:1000000035C000005AC0000058C0000056C00000B3
:1000100054C0000052C0000050C000004EC000009C
:100020004CC000004AC0000048C0000046C00000AC
:1000300044C0000042C0000040C000003EC00000BC
:100040000C9438083AC00000A1C60000D9C60000D0
:1000500034C0000032C0000030C000002EC00000DC
:100060002CC000002AC000002A06BA0711241FBEB7
:10007000CFEFD8E0DEBFCDBF11E0A0E0B1E0E2ED10
:10008000F1E102C005900D92A031B107D9F722E04D
:10009000A0E1B1E001C01D92A93FB207E1F710E075
:1000A000CCE6D0E004C02297FE010E94E308C836E7
:1000B000D107C9F7CBD50C94BD08A2CF089586E42B
:1000C00092E0909345028093440210921F02109296
:1000D0001E0210922102109220021092230210920E
:1000E00022021092250210922402109227021092EE
:1000F0002602109229021092280210922B021092CE
:100100002A0210922D0210922C0210922F021092AD
:100110002E0210923102109230021092330210928D
:10012000320210923502109234021092370210926D
:100130003602109239021092380210923B0210924D
:100140003A0210923D0210923C0210923F0210922D
:100150003E0210924102109240020895DC01ED919E
:10016000FC910190F081E02D0994DC01ED91FC916E
:100170000190F081E02D09942A98292F30E02F700A
:10018000332720632EBD0DB407FEFDCF9EB58EBD77
:100190000DB407FEFDCF8EB52A9A0895862F90E004
:1001A000EBCF2D982C982B982A9A259A2498239A4D
:1001B000229A2A9A229A8CB580648CBD8CB5806173
:1001C0008CBD8CB58F778CBD8CB58F7D8CBD8CB57F
:1001D000877F8CBD8CB58B7F8CBD8CB58D7F8CBDA6
:1001E0008CB58E7F8CBD8DB581608DBD0895D9DFB6
:1001F0008EEC90E090932102809320028EE590E0B7
:1002000090931F0280931E0242E15AE760E070E083
:1002100080914402909145022ED610924302109292
:1002200011011092100110921801109217011092F2
:1002300016011092150110921D0210921B011092CE
:100240001A011092190110921C0110921D01E2E492
:10025000F2E0808181708260816080830895DC019A
:100260001A968D919C911B97813F910509F4ACC022
:1002700024F5803B910509F456C064F4803991055A
:10028000F9F1803A910509F46CC08038910509F0C4
:10029000C9C032C0803D910509F475C02CF4803C82
:1002A000910509F0BFC073C0803E910509F43FC0BD
:1002B000803F910509F0B6C079C08A3F910539F1B8
:1002C0007CF4833F910509F498C00CF481C0863F0B
:1002D000910509F49DC0883F910509F0A3C014C0A1
:1002E0008C3F9105D1F0B4F08E3F9105C9F08F3F5E
:1002F000910509F097C08FC0FD01E25FFE4F34C049
:10030000FD01E05FFE4F30C0AA5DBE4F86C0A85D14
:10031000BE4F83C0A65DBE4F80C0A45DBE4F7DC0F2
:10032000A25DBE4F7AC0FD01EC5EFE4F1DC0FD0117
:10033000E65EFE4F0190F081E02D309709F472C027
:100340001D966C911D976F7720E8629FB001112474
:100350001C968C911C978F77682B705219968C91F4
:100360000994FD01EE5EFE4F0190F081E02D309783
:1003700009F458C01D964C911D971C966C911C97C2
:1003800019968C910994FD01E85EFE4F03C0FD01B2
:10039000EA5EFE4F0190F081E02D309709F442C0F3
:1003A0001C966C911C9719968C910994FD01E45E42
:1003B000FE4F0190F081E02D3097A1F11C966C91D9
:1003C0001C97CD010E960994FD01E25EFE4F18C008
:1003D000FD01E05EFE4F0190F081E02D309711F1BC
:1003E0001D968C911D978F7720E8829FC001112464
:1003F0001C962C912F77822B0994FD01EE5DFE4F08
:100400000190F081E02D309769F01C968C91099451
:10041000AC5DBE4F02C0A05DBE4FED91FC91309728
:1004200009F00994089580389105A9F08039910563
:1004300091F0803B910579F0803A910561F0803D23
:10044000910549F021E0803E910531F0803C910515
:1004500019F020E001C021E0822F089587FF0EC02F
:10046000843F61F0853F51F0893F41F08D3F31F08D
:10047000803F08F4807F282F30E002C020E030E089
:10048000C90108952F923F924F925F926F927F928F
:100490008F929F92AF92BF92CF92DF92EF92FF9294
:1004A0000F931F93CF93DF931F92CDB7DEB71C013D
:1004B0008C010C5C1E4F82E0E82EF12C93E0C92EDB
:1004C000D12CAA24AA94B12C30EF732E88248394C3
:1004D000912CD8018D919C91DC01ED91FC910480CF
:1004E000F581E02D0995892B09F48EC1F8018081F1
:1004F0009181DC01ED91FC910680F781E02D099559
:100500002C01482FF10187819085009709F0C0C028
:1005100042826080862DA2DF86DF882369F047FC57
:100520000BC0D10112966C92129713964C921397AE
:1005300018969C928E921797F1015280852D8EDF2E
:10054000813F910509F454C01CF5803B910509F4E5
:1005500055C06CF48039910509F450C0803A91057A
:1005600009F44CC08038910509F055C047C0803D62
:100570009105F1F12CF4803C910509F04CC038C094
:10058000803E9105D9F1803F910509F044C03AC001
:10059000883F9105A9F044F4833F910549F174F136
:1005A000863F9105C1F50CC08A3F9105A4F18D3FAE
:1005B000910534F09C012E5F31092230310558F548
:1005C000D1011B969C938E931A9719961C9219979A
:1005D0001C961C921C971D961C92F101E35FFE4F26
:1005E00081E08083F10110861782168215820DC189
:1005F000D1011696FC92EE9215970FC0F101D682AA
:10060000C5820BC0D1011696BC92AE9215971C9272
:100610001E967C9202C0F1019AC0D10117962D91CD
:100620003C91189715964D915C911697BA016150BF
:1006300071092617370730F11B969C938E931A97F2
:10064000852D8F708F5F19968C93199713968C91C7
:1006500013971C968C931C974330510531F41496D4
:100660008C9114971D968C9302C0F1011586D101CF
:1006700018961C921E92179716961C921E9215970A
:10068000F10126C02F5F3F4FF1013087278321CF33
:1006900047FE45C05524FDEF4F1651046CF42AEF78
:1006A000421651047CF4A7EF4A165104B1F0B8EF9A
:1006B0004B165104A1F506C092012E5F310922307C
:1006C000310568F5F1015386428614861586118638
:1006D000E35FFE4F81E0808398C0D1011E962C918C
:1006E0001E97F101203F99F5E80FF91F27EF2687A4
:1006F000019620EF30E0F1013387228784879587C8
:100700001186E35FFE4F81E0808318961C921E9253
:10071000179716961C921E9215971C9276C0D101BF
:1007200012962C91F101E80FF91F203F11F4468732
:1007300001C04283F1014580568092012150310968
:100740008217930708F45BC02281203F31F41086A2
:10075000178216821582108257C0822F29837EDE6F
:100760008C01D1011B969C938E931A975CDE298194
:10077000882331F0822F8F708F5FF101818703C052
:10078000D10119961C92F10183818487F3E04F1601
:10079000510439F4D10114968C9114971D968C93C1
:1007A00002C0F1011586D10118961C921E9217976E
:1007B00016961C921E921597F101E35FFE4F81E0A1
:1007C0008083003B1105A1F054F40039110581F03C
:1007D000003A110569F00038110569F409C0003DBF
:1007E000110531F0003E110519F0003C110519F416
:1007F000F101208302C0D1011C9281E006C0019664
:10080000F1019087878365CE80E00F90DF91CF91D3
:100810001F910F91FF90EF90DF90CF90BF90AF901E
:100820009F908F907F906F905F904F903F902F9010
:1008300008950F931F93CF93DF938C01EB016D3FCE
:10084000710554F46A3F710564F4663F710549F01F
:10085000683F710599F405C0CB018E5F910902973D
:1008600068F4F801EC5CFE4F80819181DC01ED9130
:10087000FC910190F081E02D6C2F0995C63FD105C8
:1008800021F4F801ED5CFE4F1082DF91CF911F91B2
:100890000F910895DF92EF92FF920F931F93CF93E2
:1008A000DF937C01EB01122F0150003118F4603806
:1008B00071052CF4F701ED5CFE4F108251C0613ED2
:1008C00071050CF03FC05FE7D52ED422602BFC01F0
:1008D000ED5CFE4F8081861769F06083F701EC5C68
:1008E000FE4F80819181DC01ED91FC910190F081BE
:1008F000E02D0995BCECEB1ABEEFFB0AF7018081F5
:100900009181DC01ED91FC910190F081E02D6D2D44
:100910000995C03CD10521F1C03DD10509F1F70190
:1009200080819181DC01ED91FC91612F6F770190C5
:10093000F081E02DDF91CF911F910F91FF90EF900B
:10094000DF900994CB01865F91090A9748F4C701AB
:10095000DF91CF911F910F91FF90EF90DF9069CFC2
:10096000DF91CF911F910F91FF90EF90DF9008954D
:10097000AF92BF92CF92DF92EF92FF920F931F93AD
:10098000CF93DF931F92CDB7DEB75C01FC01EE5C25
:10099000FE4F808180FF0BC18E7F09F408C1D50115
:1009A0001A966D917C911B97CB01805891098136E5
:1009B000910560F519960C91199711968C9121E08B
:1009C000081711F0811120E0F501EE5CFE4F8081E7
:1009D000869590E08230910539F08330910571F071
:1009E000019709F0E4C00CC0222309F4E0C0D5014E
:1009F0001D962C911D971C964C9105C02111D7C0B6
:100A0000F50125854485C50145DFD1C0663F7105E7
:100A100029F19CF4613F710509F49EC02CF4603FFC
:100A2000710509F0C4C027C0623F710509F466C0B2
:100A3000633F710509F0BBC049C06D3F710544F4C7
:100A40006A3F71055CF4683F710509F0B0C006C0EB
:100A5000CB018E5F9109029708F0A9C0C5010F90E4
:100A6000DF91CF911F910F91FF90EF90DF90CF908A
:100A7000BF90AF90DECE8501025F1F4FD5011D965E
:100A80009C911D9780E01C962C91822B8F3F9105A5
:100A900019F010F08FEF90E06C01C00ED11E7501BF
:100AA000BCECEB1ABEEFFB0A0DC0F701808191810F
:100AB000D8016D918D01DC01ED91FC910190F081E7
:100AC000E02D09950C151D0581F76DC0F501F48425
:100AD00085010C5C1E4FD8018D919C91DC01ED913C
:100AE000FC910190F081E02D63EF09956F2D6F77F8
:100AF00070E0F8018081918138DB55C0D5011D96E9
:100B00000C91B0E80B9F80011124F5018485082B1E
:100B10007501FCECEF1AFEEFFF0AD7018D919C9155
:100B2000DC01ED91FC910190F081E02D62EF0995DF
:100B3000B8016F777727F701808191810FDBB801CA
:100B4000660F672F661F770B71956F777727D70131
:100B50008D919C9103DB27C0F50184858770F0E1BE
:100B60008F9FC0011124D5011D962C912F70282B29
:100B700085010C5C1E4FF80180819181DC01ED91B3
:100B8000FC910190F081E02D61EF29830995F80136
:100B900080819181DC01ED91FC910190F081E02D4B
:100BA0002981622F0995F501ED5CFE4F10820F90AF
:100BB000DF91CF911F910F91FF90EF90DF90CF9039
:100BC000BF90AF900895CF93DF931F92CDB7DEB75C
:100BD000609111016131B0F580E191E0698352DCEF
:100BE0006981882379F180911A0190911B018039E4
:100BF000910521F480911D018823A1F080911A01B3
:100C000090911B010097F1F0805891098136910570
:100C100080F48091110190911901981751F0811180
:100C200011C007C080E890E090931B0180931A01E7
:100C3000E5CF80E191E09CDE80E191E00F90DF91D3
:100C4000CF910DCB0F90DF91CF9108955BD2CFDA8A
:100C5000BADFFECF34CAFC0184859585FC01E05CD7
:100C6000FF4F20813181FC01EE5BFF4F808191813C
:100C7000281B390B2F733327C9010895FC01848584
:100C80009585FC01E05CFF4F40815181FC01EE5BEA
:100C9000FF4F208131814217530741F00190F081CD
:100CA000E02DE80FF91F208130E002C02FEF3FEF69
:100CB000C9010895FC0184859585FC01E05CFF4F26
:100CC00040815181FC01EE5BFF4F20813181421751
:100CD000530781F0A081B181A80FB91F8C912081A9
:100CE00031812F5F3F4F2F73332731832083282F8C
:100CF00030E002C02FEF3FEFC9010895FC0181A150
:100D0000882329F0A489B5898C9186FFFBCF11A295
:100D10000895CF93DF93FC0126853785D901A05C28
:100D2000BF4F8D919C91119701968F739927E9017F
:100D3000CE5BDF4F4881598184179507D9F30D9019
:100D4000BC91A02DA20FB31F6C93A685B785A05CA4
:100D5000BF4F11969C938E93A689B7892C9181E001
:100D600090E0078C02C0880F991F0A94E2F7282BA5
:100D70002C9381E081A30488F589E02D8081806433
:100D8000808381E090E0DF91CF9108951F920F92D0
:100D90000FB60F9211242F933F934F938F939F93EE
:100DA000EF93FF938091C00082FD1CC04091C6006C
:100DB0008091EC029091ED0201968F73992720911A
:100DC000EE023091EF028217930771F0E091EC028E
:100DD000F091ED02E455FD4F40839093ED02809336
:100DE000EC0202C08091C600FF91EF919F918F911C
:100DF0004F913F912F910F900FBE0F901F9018951C
:100E00001F920F920FB60F9211242F933F938F933F
:100E10009F93EF93FF932091A8023091A9028091B4
:100E2000AA029091AB022817390731F48091C100D2
:100E30008F7D8093C10014C0E091AA02F091AB02B3
:100E4000E859FD4F20818091AA029091AB02019652
:100E50008F7399279093AB028093AA022093C600C8
:100E6000FF91EF919F918F913F912F910F900FBE26
:100E70000F901F901895CF92DF92EF92FF92CF9331
:100E8000DF93EC016A017B01411581EE5807610592
:100E90007105F1F0EC89FD8981E090E008A002C0C5
:100EA000880F991F0A94E2F7808360E079E08DE370
:100EB00090E0A701960163D1215031094109510900
:100EC0005695479537952795211580E1380790F07D
:100ED000EC89FD89108260E874E88EE190E0A7015A
:100EE00096014DD121503109410951095695479537
:100EF00037952795E889F9893083EA89FB8920832A
:100F000019A2EE89FF89408181E090E09C010C8C60
:100F100002C0220F331F0A94E2F7422B4083EE896E
:100F2000FF8940819C010D8C02C0220F331F0A945F
:100F3000E2F7422B4083EE89FF8940819C010E8CB1
:100F400002C0220F331F0A94E2F7422B4083EE893E
:100F5000FF8920810F8C02C0880F991F0A94E2F745
:100F6000809582238083DF91CF91FF90EF90DF9077
:100F7000CF900895109249021092480288EE93E0B3
:100F8000A0E0B0E080934A0290934B02A0934C0201
:100F9000B0934D0284E091E0909347028093460223
:100FA0008CEA92E0909353028093520288E692E09A
:100FB000909355028093540285EC90E090935702F1
:100FC0008093560284EC90E09093590280935802EB
:100FD00080EC90E090935B0280935A0281EC90E069
:100FE00090935D0280935C0282EC90E090935F02AC
:100FF00080935E0286EC90E09093610280936002A1
:1010000084E08093620283E08093630287E08093B0
:10101000640285E08093650281E080936602089512
:10102000CF92DF92EF92FF920F931F93CF93DF93B4
:101030006C01EB017A01E60EF71E00E010E00BC038
:101040006991D601ED91FC910190F081E02DC601EE
:101050000995080F191FCE15DF0591F7C801DF911B
:10106000CF911F910F91FF90EF90DF90CF90089557
:101070001F920F920FB60F9211242F933F938F93CD
:101080009F93AF93BF938091F0029091F102A09152
:10109000F202B091F3023091F802232F2D5F2D3729
:1010A00020F40196A11DB11D05C0232F2A570296D9
:1010B000A11DB11D2093F8028093F0029093F102DC
:1010C000A093F202B093F3028091F4029091F502A2
:1010D000A091F602B091F7020196A11DB11D809377
:1010E000F4029093F502A093F602B093F702BF9139
:1010F000AF919F918F913F912F910F900FBE0F90C5
:101100001F901895789484B5826084BD84B5816001
:1011100084BD85B5826085BD85B5816085BDEEE6FF
:10112000F0E0808181608083E1E8F0E010828081DE
:1011300082608083808181608083E0E8F0E080814C
:1011400081608083E1EBF0E0808184608083E0EB6C
:10115000F0E0808181608083EAE7F0E08081846054
:1011600080838081826080838081816080838081B0
:10117000806880831092C1000895F89428C0A1E28D
:101180001A2EAA1BBB1BFD010DC0AA1FBB1FEE1F01
:10119000FF1FA217B307E407F50720F0A21BB30B4C
:1011A000E40BF50B661F771F881F991F1A9469F7C8
:1011B00060957095809590959B01AC01BD01CF0124
:1011C0000895EE0FFF1F0590F491E02D0994F89417
:0211D000FFCF4F
:1011D20000000000890610082B065A063E067E060D
:00000001FF
