:100000005CC000007FC000007DC000007BC000001D
:1000100079C0000077C0000075C0000073C0000008
:1000200071C000006FC000006DC000006BC0000018
:1000300069C0000067C0000065C0000063C0000028
:100040004AC400005FC00000CFC1000007C200002A
:1000500059C0000057C0000055C0000053C0000048
:1000600051C000004FC00000000000070002010066
:100070000003040600000000000000000102040864
:100080001020408001020408102001020408102002
:10009000040404040404040402020202020203032E
:1000A0000303030300000000250028002B000000CC
:1000B0000000240027002A00E80211241FBECFEF11
:1000C000D8E0DEBFCDBF11E0A0E0B1E0EEEDFDE095
:1000D00002C005900D92A233B107D9F721E0A2E347
:1000E000B1E001C01D92A53EB207E1F710E0CAEBF6
:1000F000D0E003C02297FE0160D6C83BD107D1F7FC
:10010000D4D00AC67DCF0F931F93CF93DF93C0E166
:10011000D1E00CE011E061E0899139D561E0F801AE
:1001200081918F0134D5F1E0C431DF07A1F761E09F
:1001300080910A012CD561E080910B0128D5C4E0A3
:10014000D1E060E0899123D581E0CA30D807C9F7B2
:1001500040E855E260E070E082E391E0DF91CF910A
:100160001F910F91B6C1EF92FF920F931F93CF9300
:10017000DF93E82EF42EC82FD0E0CC0FDD1FFE0158
:10018000E05FFE4F6623B9F061E0808138D58E01D3
:100190000F5F1F4FF801E05FFE4F60E080812FD5B9
:1001A000C45FDE4F61E088812AD5F801E45FFE4F2D
:1001B00060E0808116C060E0808121D58E010F5FF4
:1001C0001F4FD801A05FBE4F61E08C9118D5C45F6E
:1001D000DE4F60E0888113D5D801A45FBE4F61E097
:1001E0008C910DD5EE2DF0E0E65FFE4F6F2D70E0A7
:1001F0008081DF91CF911F910F91FF90EF903EC4CE
:100200000F931F93CF93DF93C0E0D0E062E070E0E4
:1002100080E090E036D301E0672B682B692B09F46E
:1002200000E06FEF70E080E090E02BD311E0672BEF
:10023000682B692B09F410E0412F602F8C2F93DF7E
:1002400064E171E082E391E057D24AE050E0BE0100
:1002500082E391E00FD368E171E082E391E04CD258
:100260004AE050E0602F70E082E391E003D36DE15B
:1002700071E082E391E040D24AE050E0612F70E00B
:1002800082E391E0F7D22196C230D10509F0BECFCA
:1002900082E391E039D260E971E080E090E0F1D250
:1002A000DF91CF911F910F918AC3ADD32CDFA8DFCF
:1002B000FECFFC0184859585FC01E05CFF4F208129
:1002C0003181FC01EE5BFF4F80819181281B390B4E
:1002D0002F733327C9010895FC0184859585FC019E
:1002E000E05CFF4F40815181FC01EE5BFF4F2081BC
:1002F00031814217530741F00190F081E02DE80F62
:10030000F91F208130E002C02FEF3FEFC9010895AF
:10031000FC0184859585FC01E05CFF4F40815181A3
:10032000FC01EE5BFF4F208131814217530781F0C2
:10033000A081B181A80FB91F8C91208131812F5FDD
:100340003F4F2F73332731832083282F30E002C0A3
:100350002FEF3FEFC9010895FC0181A1882329F007
:10036000A489B5898C9186FFFBCF11A20895CF9304
:10037000DF93FC0126853785D901A05CBF4F8D91A5
:100380009C91119701968F739927E901CE5BDF4FFE
:100390004881598184179507D9F30D90BC91A02D00
:1003A000A20FB31F6C93A685B785A05CBF4F1196B3
:1003B0009C938E93A689B7892C9181E090E0078C5D
:1003C00002C0880F991F0A94E2F7282B2C9381E032
:1003D00081A30488F589E02D80818064808381E099
:1003E00090E0DF91CF9108951F920F920FB60F9278
:1003F00011242F933F934F938F939F93EF93FF93EA
:100400008091C00082FD1CC04091C6008091D8013F
:100410009091D90101968F7399272091DA0130913B
:10042000DB018217930771F0E091D801F091D901B7
:10043000E856FE4F40839093D9018093D80102C0C3
:100440008091C600FF91EF919F918F914F913F91C5
:100450002F910F900FBE0F901F9018951F920F9223
:100460000FB60F9211242F933F938F939F93EF9387
:10047000FF93209194013091950180919601909184
:1004800097012817390731F48091C1008F7D80933F
:10049000C10014C0E0919601F0919701EC5AFE4F13
:1004A0002081809196019091970101968F739927F1
:1004B00090939701809396012093C600FF91EF914E
:1004C0009F918F913F912F910F900FBE0F901F9092
:1004D0001895CF92DF92EF92FF92CF93DF93EC01CA
:1004E0006A017B01411581EE580761057105F1F044
:1004F000EC89FD8981E090E008A002C0880F991F77
:100500000A94E2F7808360E079E08DE390E0A70150
:10051000960104D421503109410951095695479556
:1005200037952795211580E1380790F0EC89FD89F2
:10053000108260E874E88EE190E0A7019601EED3A6
:10054000215031094109510956954795379527950D
:10055000E889F9893083EA89FB89208319A2EE8929
:10056000FF89408181E090E09C010C8C02C0220F49
:10057000331F0A94E2F7422B4083EE89FF894081C2
:100580009C010D8C02C0220F331F0A94E2F7422B0C
:100590004083EE89FF8940819C010E8C02C0220FAE
:1005A000331F0A94E2F7422B4083EE89FF892081B2
:1005B0000F8C02C0880F991F0A94E2F7809582235E
:1005C0008083DF91CF91FF90EF90DF90CF900895DF
:1005D000109235011092340188EE93E0A0E0B0E073
:1005E0008093360190933701A0933801B09339017D
:1005F00086E291E0909333018093320188E991E0A3
:1006000090933F0180933E0184E591E090934101F6
:100610008093400185EC90E09093430180934201E8
:1006200084EC90E0909345018093440180EC90E04D
:10063000909347018093460181EC90E090934901AB
:100640008093480182EC90E090934B0180934A01A3
:1006500086EC90E090934D0180934C0184E0809370
:100660004E0183E080934F0187E08093500185E045
:100670008093510181E0809352010895CF92DF92DF
:10068000EF92FF920F931F93CF93DF936C01EB01D7
:100690007A01E60EF71E00E010E00BC06991D6016A
:1006A000ED91FC910190F081E02DC6010995080FB4
:1006B000191FCE15DF0591F7C801DF91CF911F916A
:1006C0000F91FF90EF90DF90CF9008956115710525
:1006D00081F0DB010D900020E9F7AD014150510997
:1006E000461B570BDC01ED91FC910280F381E02D5C
:1006F000099480E090E00895E9CFDC01ED91FC9150
:100700000190F081E02D09940F931F93CF93DF9315
:10071000EC016DE0F2DF8C016AE0CE01EEDF9C01BE
:10072000200F311FC901DF91CF911F910F910895C3
:100730004F925F926F927F929F92AF92BF92CF92B1
:10074000DF92EF92FF920F931F93CF93DF93CDB77A
:10075000DEB7A1970FB6F894DEBF0FBECDBF5C0128
:100760006A017B01922E19A281E0821710F08AE0C3
:10077000982E8E010F5D1F4F492C512C612C712C2E
:10078000C701B601A3019201C9D28C2D929E801996
:100790001124015011098A3014F4805D01C0895C74
:1007A000F801808369017A01C114D104E104F104E4
:1007B00039F7B801C5018ADFA1960FB6F894DEBFFC
:1007C0000FBECDBFDF91CF911F910F91FF90EF90A2
:1007D000DF90CF90BF90AF909F907F906F905F9091
:1007E0004F900895CF92DF92EF92FF920F931F9355
:1007F000CF93DF93EC016A017B012115310579F478
:10080000E881F9810190F081E02D642FDF91CF9193
:100810001F910F91FF90EF90DF90CF9009942A30B5
:10082000310519F477FD0DC02AE0B701A601CE010C
:10083000DF91CF911F910F91FF90EF90DF90CF90BC
:1008400077CF6DE25ADF8C0144275527BA014C1946
:100850005D096E097F092AE0CE016ADF080F191FC2
:10086000C801DF91CF911F910F91FF90EF90DF9022
:10087000CF9008959A01AB01662757FD6095762FBA
:10088000B1CF0F931F93CF93DF9300D000D0CDB79C
:10089000DEB79B01AC01611571058105910569F019
:1008A00069833A834B835C832BD229813A814B81C4
:1008B0005C8156D28B019C0103C000E010E09801DE
:1008C000B801C9010F900F900F900F90DF91CF9159
:1008D0001F910F9108951F920F920FB60F9211243E
:1008E0002F933F938F939F93AF93BF938091DC019E
:1008F0009091DD01A091DE01B091DF013091E40122
:10090000232F2D5F2D3720F40196A11DB11D05C0A9
:10091000232F2A570296A11DB11D2093E401809335
:10092000DC019093DD01A093DE01B093DF018091A3
:10093000E0019091E101A091E201B091E301019603
:10094000A11DB11D8093E0019093E101A093E2010C
:10095000B093E301BF91AF919F918F913F912F9100
:100960000F900FBE0F901F9018950F931F939FB776
:10097000F8940091E0011091E1012091E2013091A1
:10098000E30186B5A89B06C08F3F21F00F5F1F4F84
:100990002F4F3F4F9FBF322F212F102F0027080FBF
:1009A000111D211D311D42E0000F111F221F331F99
:1009B0004A95D1F7B801C9011F910F910895CF92BF
:1009C000DF92EF92FF92CF93DF936B017C01CDDF3B
:1009D000EB010DC0CADF6C1B7D0B683E734038F025
:1009E00081E0C81AD108E108F108C851DC4FC114F0
:1009F000D104E104F10471F7DF91CF91FF90EF9002
:100A0000DF90CF900895789484B5826084BD84B5DA
:100A1000816084BD85B5826085BD85B5816085BDF9
:100A2000EEE6F0E0808181608083E1E8F0E0108212
:100A3000808182608083808181608083E0E8F0E053
:100A4000808181608083E1EBF0E08081846080833D
:100A5000E0EBF0E0808181608083EAE7F0E0808174
:100A600084608083808182608083808181608083D4
:100A70008081806880831092C10008951F93CF9376
:100A8000DF93182FEB0161E082D0209711F460E032
:100A900004C0CF3FD10531F461E0812FDF91CF91C8
:100AA0001F91ADC0E12FF0E0E859FF4FE491E33032
:100AB000B9F028F4E13051F0E230B1F50CC0E63085
:100AC00019F1E73049F1E43079F514C084B5806854
:100AD00084BDC7BD2EC084B5806284BDC8BD29C099
:100AE00080918000806880938000D0938900C093BB
:100AF00088001FC080918000806280938000D09326
:100B00008B00C0938A0015C08091B00080688093EC
:100B1000B000C093B3000DC08091B000806280939C
:100B2000B000C093B40005C0C038D1050CF0B4CFFC
:100B3000AECFDF91CF911F910895833069F028F4F3
:100B40008130A1F0823011F514C08630B1F08730C9
:100B5000C1F08430D9F404C0809180008F7703C045
:100B6000809180008F7D80938000089584B58F7779
:100B700002C084B58F7D84BD08958091B0008F77C9
:100B800003C08091B0008F7D8093B0000895CF9313
:100B9000DF9390E0FC01E458FF4F4491FC01E057E3
:100BA000FF4F8491882341F190E0880F991FFC0149
:100BB000E255FF4F25913491D9018C559F4FFC018F
:100BC00085919491C82FD92F9FB7F8948C9161117A
:100BD00006C0409584238C938881842308C06230AA
:100BE00041F4242F209582238C938881842B888341
:100BF00002C0842B8C939FBFDF91CF9108950F93F8
:100C00001F93CF93DF931F92CDB7DEB7282F30E02D
:100C1000F901E859FF4F8491F901E458FF4F14910D
:100C2000F901E057FF4F04910023C9F0882319F020
:100C3000698383DF6981E02FF0E0EE0FFF1FEC5541
:100C4000FF4F85919491DC019FB7F8948C916111CD
:100C500003C01095812301C0812B8C939FBF0F90FF
:100C6000DF91CF911F910F9108958F929F92AF9234
:100C7000BF92CF92DF92EF92FF92CF93DF93EC017E
:100C8000688179818A819B81611571058105910552
:100C900021F464E279ED8BE597E02DE133EF41E05B
:100CA00050E05ED049015A019B01AC01A7EAB1E4D2
:100CB00072D06B017C01ACEEB4EFA501940177D04A
:100CC000C60ED71EE81EF91EF7FE06C081E0C81A40
:100CD000D108E10880E8F80AC882D982EA82FB825A
:100CE000E894F7F8B601C701DF91CF91FF90EF903C
:100CF000DF90CF90BF90AF909F908F900895B5CF29
:100D000080E091E0B2CF6093000170930101809385
:100D10000201909303010895F8945FC0A1E21A2E96
:100D2000AA1BBB1BFD010DC0AA1FBB1FEE1FFF1F8F
:100D3000A217B307E407F50720F0A21BB30BE40BDF
:100D4000F50B661F771F881F991F1A9469F7609526
:100D50007095809590959B01AC01BD01CF010895E0
:100D6000052E97FB16F4009406D057FD0CD0D6DF65
:100D700007FC09D07EF490958095709561957F4F22
:100D80008F4F9F4F089550954095309521953F4F37
:100D90004F4F5F4F089515D0A59F900DB49F900DB4
:100DA000A49F800D911D11240895B7FFF4CFF3DFA8
:100DB000821B930B0895EE0FFF1F0590F491E02D19
:100DC0000994A29FB001B39FC001A39F01D0B29F1D
:0E0DD000700D811D1124911D0895F894FFCF20
:100DDE00010000000002030104050A0B02030405D2
:100DEE00060708096D3A200020643A200020733A65
:100DFE00200000000000B7013E03590188016C017C
:020E0E00AC0135
:00000001FF
