:1000000033C0000041C000003FC000003DC0000000
:100010003BC0000039C0000037C0000035C0000000
:1000200033C0000031C000002FC000002DC0000010
:100030002BC0000029C0000027C0000025C0000020
:1000400026C0000021C000001FC000001DC000002D
:100050001BC0000019C0000017C0000015C0000040
:1000600013C0000011C0000011241FBECFEFD8E064
:10007000DEBFCDBF21E0A0E0B1E001C01D92A930FC
:10008000B207E1F702D088C0BBCF4BD0FFCF1F92A1
:100090000F920FB60F9211242F933F938F939F933C
:1000A000AF93BF938091000190910101A091020153
:1000B000B091030130910801232F2D5F2D3720F4DB
:1000C0000196A11DB11D05C0232F2A570296A11D1F
:1000D000B11D209308018093000190930101A0932A
:1000E0000201B09303018091040190910501A09158
:1000F0000601B09107010196A11DB11D8093040175
:1001000090930501A0930601B0930701BF91AF91B1
:100110009F918F913F912F910F900FBE0F901F9045
:100120001895789484B5826084BD84B5816084BD5F
:1001300085B5826085BD85B5816085BDEEE6F0E060
:10014000808181608083E1E8F0E0108280818260BC
:100150008083808181608083E0E8F0E0808181603D
:100160008083E1EBF0E0808184608083E0EBF0E06D
:10017000808181608083EAE7F0E080818460808311
:1001800080818260808380818160808380818068BB
:1001900080831092C1000895F89400C0F894FFCFB6
:00000001FF
