:100000005CC000007FC000007DC000007BC000001D
:1000100079C0000077C0000075C0000073C0000008
:1000200071C000006FC000006DC000006BC0000018
:1000300069C0000067C0000065C0000063C0000028
:10004000D5C200005FC00000DEC1000016C2000083
:1000500059C0000057C0000055C0000053C0000048
:1000600051C000004FC00000000000070002010066
:100070000003040600000000000000000102040864
:100080001020408001020408102001020408102002
:10009000040404040404040402020202020203032E
:1000A0000303030300000000250028002B000000CC
:1000B0000000240027002A00780211241FBECFEF81
:1000C000D8E0DEBFCDBF11E0A0E0B1E0EAE3F9E0A7
:1000D00002C005900D92A632B107D9F721E0A6E241
:1000E000B1E001C01D92A73EB207E1F710E0CAEBF4
:1000F000D0E003C02297FE011AD4C83BD107D1F744
:10010000E3D011C47DCF0F931F93CF93DF93C0E152
:10011000D1E00CE011E061E0899197D361E0F80152
:1001200081918F0192D3F1E0C431DF07A1F761E043
:1001300080910A018AD361E080910B01DF91CF9118
:100140001F910F9182C3EF92FF920F931F93CF9352
:10015000DF93E82EF42EC82FD0E0CC0FDD1FFE0178
:10016000E05FFE4F6623B9F061E08081A6D38E0187
:100170000F5F1F4FF801E05FFE4F60E080819DD36D
:10018000C45FDE4F61E0888198D3F801E45FFE4FE1
:1001900060E0808116C060E080818FD38E010F5FA8
:1001A0001F4FD801A05FBE4F61E08C9186D3C45F22
:1001B000DE4F60E0888181D3D801A45FBE4F61E04B
:1001C0008C917BD3EE2DF0E0E65FFE4F6F2D70E05B
:1001D0008081DF91CF911F910F91FF90EF90ACC282
:1001E000CF93DF93682F70E093E0899FF001112493
:1001F000EF01CC0FDD1FC65DDE4FDF01AA0FBB1F75
:10020000A85DBE4F288139814D915C91240F351F27
:10021000A9015250329641305240E0F0A9015450A9
:1002200056954795EE0FFF1FE85DFE4F2081318107
:100230003695279536952795420F531F4F3F510509
:1002400019F010F04FEF50E0FB01EA5DFE4F4083E4
:1002500061E01DC040E054E0421B530B56954795AA
:10026000EE0FFF1FE85DFE4F208131813695279507
:1002700036952795420F531F4F3F510519F010F047
:100280004FEF50E0FB01EA5DFE4F408360E0DF91FD
:10029000CF9159CF0F931F93CF93DF93C4E0D1E059
:1002A00008E211E0899127D2F801819391938F019F
:1002B000F1E0CA30DF07B1F780E092DF81E0DF9143
:1002C000CF911F910F918CCFDBD11DDFE3DFFECFEC
:1002D000FC0184859585FC01E05CFF4F2081318124
:1002E000FC01EE5BFF4F80819181281B390B2F733E
:1002F0003327C9010895FC0184859585FC01E05CE4
:10030000FF4F40815181FC01EE5BFF4F2081318125
:100310004217530741F00190F081E02DE80FF91FDB
:10032000208130E002C02FEF3FEFC9010895FC01AA
:1003300084859585FC01E05CFF4F40815181FC0183
:10034000EE5BFF4F208131814217530781F0A0817E
:10035000B181A80FB91F8C91208131812F5F3F4F50
:100360002F73332731832083282F30E002C02FEFF3
:100370003FEFC9010895FC0181A1882329F0A489D8
:10038000B5898C9186FFFBCF11A20895CF93DF939F
:10039000FC0126853785D901A05CBF4F8D919C91CA
:1003A000119701968F739927E901CE5BDF4F488142
:1003B000598184179507D9F30D90BC91A02DA20FF8
:1003C000B31F6C93A685B785A05CBF4F11969C9315
:1003D0008E93A689B7892C9181E090E0078C02C0AA
:1003E000880F991F0A94E2F7282B2C9381E081A3B0
:1003F0000488F589E02D80818064808381E090E02D
:10040000DF91CF9108951F920F920FB60F92112492
:100410002F933F934F938F939F93EF93FF938091ED
:10042000C00082FD1CC04091C6008091DA0190910D
:10043000DB0101968F7399272091DC013091DD015A
:100440008217930771F0E091DA01F091DB01E65633
:10045000FE4F40839093DB018093DA0102C08091CC
:10046000C600FF91EF919F918F914F913F912F91F6
:100470000F900FBE0F901F9018951F920F920FB6FE
:100480000F9211242F933F938F939F93EF93FF939A
:100490002091960130919701809198019091990156
:1004A0002817390731F48091C1008F7D8093C100F6
:1004B00014C0E0919801F0919901EA5AFE4F208111
:1004C000809198019091990101968F73992790934B
:1004D0009901809398012093C600FF91EF919F911D
:1004E0008F913F912F910F900FBE0F901F901895F5
:1004F000109237011092360188EE93E0A0E0B0E050
:100500008093380190933901A0933A01B0933B0155
:1005100089E191E090933501809334018AE991E07B
:10052000909341018093400186E591E090934301CF
:100530008093420185EC90E09093450180934401C3
:1005400084EC90E0909347018093460180EC90E02A
:10055000909349018093480181EC90E090934B0186
:1005600080934A0182EC90E090934D0180934C017E
:1005700086EC90E090934F0180934E0184E080934D
:10058000500183E08093510187E08093520185E020
:100590008093530181E0809354010895CF92DF92BC
:1005A000EF92FF920F931F93CF93DF936C01EB01B8
:1005B0007A01E60EF71E00E010E00BC06991D6014B
:1005C000ED91FC910190F081E02DC6010995080F95
:1005D000191FCE15DF0591F7C801DF91CF911F914B
:1005E0000F91FF90EF90DF90CF9008951F920F92A0
:1005F0000FB60F9211242F933F938F939F93AF9336
:10060000BF938091DE019091DF01A091E001B09154
:10061000E1013091E601232F2D5F2D3720F4019663
:10062000A11DB11D05C0232F2A570296A11DB11D82
:100630002093E6018093DE019093DF01A093E00117
:10064000B093E1018091E2019091E301A091E40176
:10065000B091E5010196A11DB11D8093E201909337
:10066000E301A093E401B093E501BF91AF919F91A5
:100670008F913F912F910F900FBE0F901F90189563
:10068000789484B5826084BD84B5816084BD85B56D
:10069000826085BD85B5816085BDEEE6F0E0808134
:1006A00081608083E1E8F0E0108280818260808355
:1006B000808181608083E0E8F0E0808181608083D8
:1006C000E1EBF0E0808184608083E0EBF0E080810A
:1006D00081608083EAE7F0E08081846080838081AC
:1006E0008260808380818160808380818068808354
:1006F0001092C10008958E3008F08E5087702091BE
:10070000140140E4249F90011124822B80937C00EB
:1007100080917A00806480937A0080917A0086FDCF
:10072000FCCF2091780030917900932F80E0AC01CC
:10073000422B9A01C90108951F93CF93DF93182F7D
:10074000EB0161E082D0209711F460E004C0CF3F5C
:10075000D10531F461E0812FDF91CF911F91ADC0C0
:10076000E12FF0E0E859FF4FE491E330B9F028F4CD
:10077000E13051F0E230B1F50CC0E63019F1E7306C
:1007800049F1E43079F514C084B5806884BDC7BDF3
:100790002EC084B5806284BDC8BD29C08091800010
:1007A000806880938000D0938900C09388001FC028
:1007B00080918000806280938000D0938B00C093F2
:1007C0008A0015C08091B00080688093B000C0930B
:1007D000B3000DC08091B00080628093B000C093E0
:1007E000B40005C0C038D1050CF0B4CFAECFDF9156
:1007F000CF911F910895833069F028F48130A1F0E2
:10080000823011F514C08630B1F08730C1F08430E9
:10081000D9F404C0809180008F7703C0809180005C
:100820008F7D80938000089584B58F7702C084B552
:100830008F7D84BD08958091B0008F7703C0809133
:10084000B0008F7D8093B0000895CF93DF9390E048
:10085000FC01E458FF4F4491FC01E057FF4F8491A5
:10086000882341F190E0880F991FFC01E255FF4F6A
:1008700025913491D9018C559F4FFC01859194911C
:10088000C82FD92F9FB7F8948C91611106C040955D
:1008900084238C938881842308C0623041F4242F00
:1008A000209582238C938881842B888302C0842B9B
:1008B0008C939FBFDF91CF9108950F931F93CF9398
:1008C000DF931F92CDB7DEB7282F30E0F901E8594A
:1008D000FF4F8491F901E458FF4F1491F901E0575B
:1008E000FF4F04910023C9F0882319F0698383DF47
:1008F0006981E02FF0E0EE0FFF1FEC55FF4F85916F
:100900009491DC019FB7F8948C91611103C010950C
:10091000812301C0812B8C939FBF0F90DF91CF91DA
:100920001F910F910895F89406C0EE0FFF1F0590D8
:0A093000F491E02D0994F894FFCF34
:10093A00010000000002030104050A0B030205047A
:10094A00060708090100000000C601CE02680197E7
:06095A00017B01BB01005E
:00000001FF
