:1000000062C0000085C0000083C0000081C0000005
:100010007FC000007DC000007BC0000079C00000F0
:1000200077C0000075C0000073C000009DC10000D3
:100030006FC000006DC000006BC0000069C0000010
:1000400061C5000065C0000025C400005DC400005B
:100050005FC000005DC000005BC0000059C0000030
:1000600057C0000055C0000000000007000201005A
:100070000003040600000000000000000102040864
:100080001020408001020408102001020408102002
:10009000040404040404040402020202020203032E
:1000A00003030303000000002300260029000000D2
:1000B0000000250028002B0000000000240027007D
:1000C0002A00AE01BF0411241FBECFEFD8E0DEBF6F
:1000D000CDBF11E0A0E0B1E0E4EEFEE002C005908B
:1000E0000D92AC31B107D9F722E0ACE1B1E001C02B
:1000F0001D92AD30B207E1F710E0C6ECD0E003C0CE
:100100002297FE01DDD6C23CD107D1F723D172C6BA
:1001100077CF61E083E0D8D561E084E0D5D562E0B7
:1001200088E0D2D562E089E0CFD563E070E08EE26E
:1001300091E071D264E070E081E391E06CC22F92B3
:100140003F924F925F926F927F928F929F92AF9267
:10015000BF92CF92DF92EF92FF920F931F93CF93B4
:10016000DF93882E912CF401E05EFE4F908123E016
:10017000829FE0011124992301F1CC0FDD1FCC5D9A
:10018000DE4F68817981882777FD8095982F1F92AF
:100190001F921F9224EB2F93A12CB12C6501E12C0F
:1001A00014E0F12E00E010E020E030E0A90165D479
:1001B0000F900F900F900F9069C0FE01EE0FFF1F80
:1001C000EC5DFE4F6081718180E090E01F921F9294
:1001D00021E02F9328E62F93A12CB12C6501E12C6F
:1001E00014E0F12E00E010E020E030E0A90145D459
:1001F0001B01FE01EE0FFF1FEA5DFE4F6081718162
:1002000080E090E01F921F921F9224EB2F9320E03A
:1002100030E0A90132D42B013C01AA24BB24A2184E
:10022000B308CC24B7FCC094DC2CCC0FDD1FCE5D12
:10023000DE4F88819981BC0180E090E08101222716
:1002400017FD2095322F3F932F931F930F93E12C8F
:1002500014E0F12E00E010E020E030E0A9010DD420
:10026000CB01840D951D2DB73EB7245F3F4F0FB6D0
:10027000F8943EBF0FBE2DBF853B910514F084EB73
:1002800090E0BC0197FF02C060E070E0C401880FFD
:10029000991F880D991D825D9E4FDF91CF911F910F
:1002A0000F91FF90EF90DF90CF90BF90AF909F9015
:1002B0008F907F906F905F904F903F902F90F3C101
:1002C0000F931F93CF93DF9388E06CD521E0892BA8
:1002D00009F420E02093200189E064D521E0892BF6
:1002E00009F420E020932101C5E0D1E002E211E011
:1002F00089919FD4F801819391938F01F1E0CB30E4
:10030000DF07B1F749D400911C0110911D01209124
:100310001E0130911F01601B710B820B930B633028
:1003200071058105910588F037D460931C017093A5
:100330001D0180931E0190931F0180E000DF81E08A
:10034000DF91CF911F910F91FACEDF91CF911F9145
:100350000F91089533D4DDDEB3DFFECF8EE291E05E
:10036000BFD081E391E0BCC01F920F920FB60F92F5
:1003700011242F933F934F935F936F937F938F93AA
:100380009F93AF93BF93EF93FF938091350187FFC6
:1003900005C010928500109284001AC0209135018A
:1003A000332727FD30958091340190E028173907D5
:1003B0007CF480913501992787FD9095FC01EE0F23
:1003C000FF1FE80FF91FEA5CFE4F808186FD36C0F3
:1003D000809135018F5F809335012091350133275E
:1003E00027FD30958091340190E028173907BCF53E
:1003F000809135018C30E4F132C08091350199272C
:1004000087FD9095FC01EE0FFF1FE80FF91FEA5CD6
:10041000FE4F808161E08F738FD451C080E49CE9EE
:1004200005C0809184009091850004969093890086
:10043000809388008FEF8093350141C08091350112
:10044000992787FD9095FC01EE0FFF1FE80FF91F1C
:10045000EA5CFE4F808160E08F736ED4B9CF8091EB
:10046000840090918500049680349C49B8F2D9CFDD
:10047000809184009091850020913501332727FDDC
:100480003095F901EE0FFF1FE20FF31FEA5CFE4FFC
:1004900021813281820F931F90938900809388007D
:1004A00080913501992787FD9095FC01EE0FFF1F84
:1004B000E80FF91FEA5CFE4F808186FD9ECFFF9119
:1004C000EF91BF91AF919F918F917F916F915F91CC
:1004D0004F913F912F910F900FBE0F901F90189545
:1004E000209134012C30A0F4FC012083822F8F5FF7
:1004F00080933401822F90E0FC01EE0FFF1FE80F84
:10050000F91FEA5CFE4F88EB9BE09283818308959C
:100510002FEFFC0120830895DF92EF92FF920F935B
:100520001F93CF93DF93EC01D62E7A018901888146
:100530008C3008F063C061E08D2DC6D38881A82F70
:10054000B0E0FD01EE0FFF1FEA0FFB1FEA5CFE4F5C
:100550002D2D2F739081907C922B908360E272E01E
:100560006E197F0977FF02C06D5F7F4F75956795A4
:1005700075956795698340E659E0401B510B57FF1D
:1005800002C04D5F5F4F55954795559547954A83F6
:100590006CE041D49CE0899FB001112420E030E060
:1005A000A901460F571FFA01EE0FFF1FE40FF51FB9
:1005B000EA5CFE4F908196FD15C02F5F3F4F2C30B7
:1005C000310571F71DC01092800082E08093810098
:1005D0001092850010928400B19A80916F00826021
:1005E00080936F00888190E0FC01EE0FFF1FE80F01
:1005F000F91FEA5CFE4F808180648083888103C09C
:10060000882309F3EFCFDF91CF911F910F91FF90D6
:10061000EF90DF90089520E639E040E252E07CCF91
:10062000FC0120812C3008F03DC0318188E890E049
:10063000831B910937FD9395880F991F880F991F88
:10064000681779077CF0328188E592E0831B910975
:1006500037FD9395880F991F880F991F68177907A1
:100660000CF4CB0102974FB7F89430E0F901EE0F8C
:10067000FF1FE20FF31FEA5CFE4FAA2797FDA0952C
:10068000BA2F64E0880F991FAA1FBB1F6A95D1F784
:1006900073E0B695A795979587957A95D1F792834C
:1006A00081834FBF0895AF92BF92CF92DF92EF92B6
:1006B000FF920F931F93CF93DF93EC01603282E0A0
:1006C00078070CF040C077FD04C0653B710524F449
:1006D00005C060E070E002C064EB70E0298188E84A
:1006E00090E0821B910927FD9395880F991F880F31
:1006F000991F5C01CC24B7FCC094DC2C882777FDC3
:100700008095982F2A8148E552E0421B510927FD28
:100710005395440F551F440F551F8A01222717FD7B
:100720002095322F3F932F931F930F9314EBE12EBD
:10073000F12C00E010E020E030E0A9019ED10F9004
:100740000F900F900F90CE01DF91CF911F910F91DD
:10075000FF90EF90DF90CF90BF90AF9061CFFC0102
:1007600084859585FC01E05CFF4F20813181FC018F
:10077000EE5BFF4F80819181281B390B2F7333274C
:10078000C9010895FC0184859585FC01E05CFF4F5B
:1007900040815181FC01EE5BFF4F20813181421786
:1007A000530741F00190F081E02DE80FF91F2081FF
:1007B00030E002C02FEF3FEFC9010895FC018485AE
:1007C0009585FC01E05CFF4F40815181FC01EE5BAF
:1007D000FF4F208131814217530781F0A081B18101
:1007E000A80FB91F8C91208131812F5F3F4F2F734C
:1007F000332731832083282F30E002C02FEF3FEFD3
:10080000C9010895FC0181A1882329F0A489B58933
:100810008C9186FFFBCF11A20895CF93DF93FC014B
:1008200026853785D901A05CBF4F8D919C9111978A
:1008300001968F739927E901CE5BDF4F488159817B
:1008400084179507D9F30D90BC91A02DA20FB31F6B
:100850006C93A685B785A05CBF4F11969C938E9331
:10086000A689B7892C9181E090E0078C02C0880F9F
:10087000991F0A94E2F7282B2C9381E081A3048826
:10088000F589E02D80818064808381E090E0DF91B4
:10089000CF9108951F920F920FB60F9211242F93AC
:1008A0003F934F938F939F93EF93FF938091C0005B
:1008B00082FD1CC04091C60080910002909101020F
:1008C00001968F73992720910202309103028217BB
:1008D000930771F0E0910002F0910102E054FE4FA5
:1008E0004083909301028093000202C08091C60071
:1008F000FF91EF919F918F914F913F912F910F9089
:100900000FBE0F901F9018951F920F920FB60F9267
:1009100011242F933F938F939F93EF93FF932091F5
:10092000BC013091BD018091BE019091BF0128179B
:10093000390731F48091C1008F7D8093C10014C0CC
:10094000E091BE01F091BF01E458FE4F20818091FB
:10095000BE019091BF0101968F7399279093BF01BB
:100960008093BE012093C600FF91EF919F918F91DC
:100970003F912F910F900FBE0F901F9018951092DE
:100980005D0110925C0188EE93E0A0E0B0E08093FE
:100990005E0190935F01A0936001B09361018FE0CD
:1009A00091E090935B0180935A0180EC91E09093E9
:1009B0006701809366018CE791E0909369018093D1
:1009C000680185EC90E090936B0180936A0184EC60
:1009D00090E090936D0180936C0180EC90E0909397
:1009E0006F0180936E0181EC90E090937101809390
:1009F000700182EC90E0909373018093720186EC19
:100A000090E0909375018093740184E08093760167
:100A100083E08093770187E08093780185E080937D
:100A2000790181E080937A010895CF92DF92EF926D
:100A3000FF920F931F93CF93DF936C01EB017A0129
:100A4000E60EF71E00E010E00BC06991D601ED91B3
:100A5000FC910190F081E02DC6010995080F191F46
:100A6000CE15DF0591F7C801DF91CF911F910F914E
:100A7000FF90EF90DF90CF9008954F925F926F922A
:100A80007F92AF92BF92CF92DF92EF92FF920F933D
:100A90001F93CF93DF93CDB7DEB729013A01621BD5
:100AA000730B840B950B29893A894B895C892A1928
:100AB0003B094C095D09298B3A8B4B8B5C8B9B0165
:100AC000AC0169897A898B899C8996D1E418F508EB
:100AD00006091709A8019701CCD12A0D3B1D4C1D11
:100AE0005D1DB901CA01DF91CF911F910F91FF9058
:100AF000EF90DF90CF90BF90AF907F906F905F901E
:100B00004F9008951F920F920FB60F9211242F93BA
:100B10003F938F939F93AF93BF93809104029091E3
:100B20000502A0910602B091070230910C02232F1A
:100B30002D5F2D3720F40196A11DB11D05C0232F77
:100B40002A570296A11DB11D20930C028093040226
:100B500090930502A0930602B093070280910802C9
:100B600090910902A0910A02B0910B020196A11D79
:100B7000B11D8093080290930902A0930A02B093DA
:100B80000B02BF91AF919F918F913F912F910F9049
:100B90000FBE0F901F9018950F931F938FB7F89467
:100BA0000091040210910502209106023091070283
:100BB0008FBFB801C9011F910F910895789484B532
:100BC000826084BD84B5816084BD85B5826085BD49
:100BD00085B5816085BDEEE6F0E08081816080832F
:100BE000E1E8F0E010828081826080838081816012
:100BF0008083E0E8F0E0808181608083E1EBF0E0D9
:100C0000808184608083E0EBF0E08081816080837C
:100C1000EAE7F0E080818460808380818260808365
:100C20008081816080838081806880831092C10090
:100C300008958E3008F08E5087702091040140E4B2
:100C4000249F90011124822B80937C0080917A0054
:100C5000806480937A0080917A0086FDFCCF209199
:100C6000780030917900932F80E0AC01422B9A01FB
:100C7000C9010895833069F028F48130A1F08230F1
:100C800011F514C08630B1F08730C1F08430D9F44A
:100C900004C0809180008F7703C0809180008F7D99
:100CA00080938000089584B58F7702C084B58F7DCE
:100CB00084BD08958091B0008F7703C08091B0000B
:100CC0008F7D8093B0000895CF93DF9390E0FC0177
:100CD000E458FF4F4491FC01E057FF4F8491882373
:100CE00041F190E0880F991FFC01E854FF4F2591D6
:100CF0003491D90182559F4FFC0185919491C82F61
:100D0000D92F9FB7F8948C91611106C04095842328
:100D10008C938881842308C0623041F4242F20956D
:100D200082238C938881842B888302C0842B8C93AC
:100D30009FBFDF91CF9108950F931F93CF93DF93C0
:100D40001F92CDB7DEB7282F30E0F901E859FF4FE9
:100D50008491F901E458FF4F1491F901E057FF4FD6
:100D600004910023C9F0882319F0698383DF698126
:100D7000E02FF0E0EE0FFF1FE255FF4F85919491B9
:100D8000DC019FB7F8948C91611103C01095812309
:100D900001C0812B8C939FBF0F90DF91CF911F914A
:100DA0000F910895CF93DF93282F30E0F901E85990
:100DB000FF4F8491F901E458FF4FD491F901E057B6
:100DC000FF4FC491CC2381F0811154DFEC2FF0E070
:100DD000EE0FFF1FEC55FF4F85919491DC018C9134
:100DE0008D2321E030E011F420E030E0C901DF91F3
:100DF000CF910895F89474C0DB018F939F9354D0E2
:100E0000BF91AF91A29F800D911DA39F900DB29FA6
:100E1000900D11240895991B79E004C0991F96172D
:100E200008F0961B881F7A95C9F780950895A1E26E
:100E30001A2EAA1BBB1BFD010DC0AA1FBB1FEE1F54
:100E4000FF1FA217B307E407F50720F0A21BB30B9F
:100E5000E40BF50B661F771F881F991F1A9469F71B
:100E600060957095809590959B01AC01BD01CF0177
:100E70000895052E97FB16F4009406D057FD0CD06C
:100E8000D6DF07FC09D07EF490958095709561952A
:100E90007F4F8F4F9F4F08955095409530952195E6
:100EA0003F4F4F4F5F4F08950FD0A59F900DB49FB8
:100EB000900DA49F800D911D11240895EE0FFF1F2A
:100EC0000590F491E02D0994A29FB001B39FC00159
:100ED000A39F01D0B29F700D811D1124911D089513
:040EE000F894FFCFB4
:100EE4000100000001010203000405000000000DE0
:0C0EF400041505AF03DE03C20302040076
:00000001FF
