:100000005DC0000080C000007EC000007CC0000019
:100010007AC0000078C0000076C0000074C0000004
:1000200072C0000070C000006EC00000FAC0000086
:100030006AC0000068C0000066C0000064C0000024
:10004000DAC5000060C0000082C30000BAC300002F
:100050005AC0000058C0000056C0000054C0000044
:1000600052C0000050C00000000000070002010064
:100070000003040600000000000000000102040864
:100080001020408001020408102001020408102002
:10009000040404040404040402020202020203032E
:1000A0000303030300000000250028002B000000CC
:1000B0000000240027002A000B019B0411241FBE0E
:1000C000CFEFD8E0DEBFCDBF11E0A0E0B1E0EEEFB2
:1000D000FFE002C005900D92A232B107D9F722E0ED
:1000E000A2E2B1E001C01D92A130B207E1F710E039
:1000F000CCEBD0E003C02297FE016FD7C83BD107FD
:10010000D1F785D004C77CCF63E070E082E291E054
:10011000DFD164E070E085E291E0DAD140E855E2B9
:1001200060E070E08EE491E087C3AF92BF92CF921F
:10013000DF92EF92FF920F931F93CF9365E071E0F0
:100140008EE491E08CD481E029D6BC01882777FD2C
:100150008095982F1F921F921F92C4EBCF93A12CD2
:10016000B12C6501E12C14E0F12E00E010E020E05C
:1001700030E0A901FBD46B017C0182E291E0F0D177
:100180004AE050E0B6018EE491E0EBD46AE071E021
:100190008EE491E064D480E001D6BC01882777FD2D
:1001A0008095982F1F921F921F92CF93A12CB12C54
:1001B0006501E12C14E0F12E00E010E020E030E0D9
:1001C000A901D4D46B017C0185E291E0C9D14AE058
:1001D00050E0B6018EE491E0C4D48DB79EB7089686
:1001E0000FB6F8949EBF0FBE8DBF8EE491E0CF9105
:1001F0001F910F91FF90EF90DF90CF90BF90AF9045
:1002000036C493DF61E070E080E090E068C58BD594
:100210007BDFF7DFFECF82E291E0BFD085E291E0A5
:10022000BCC01F920F920FB60F9211242F933F93D1
:100230004F935F936F937F938F939F93AF93BF93EE
:10024000EF93FF938091290187FF05C010928500ED
:10025000109284001AC020912901332727FD309580
:100260008091280190E0281739077CF480912901BA
:10027000992787FD9095FC01EE0FFF1FE80FF91FEE
:10028000E65DFE4F808186FD36C0809129018F5F3B
:100290008093290120912901332727FD30958091F2
:1002A000280190E028173907BCF5809129018C308E
:1002B000E4F132C080912901992787FD9095FC01D6
:1002C000EE0FFF1FE80FF91FE65DFE4F808161E032
:1002D0008F73E7D551C080E49CE905C0809184000C
:1002E00090918500049690938900809388008FEF09
:1002F0008093290141C080912901992787FD90951C
:10030000FC01EE0FFF1FE80FF91FE65DFE4F808135
:1003100060E08F73C6D5B9CF80918400909185003D
:10032000049680349C49B8F2D9CF80918400909192
:10033000850020912901332727FD3095F901EE0F23
:10034000FF1FE20FF31FE65DFE4F21813281820F16
:10035000931F9093890080938800809129019927A9
:1003600087FD9095FC01EE0FFF1FE80FF91FE65D7A
:10037000FE4F808186FD9ECFFF91EF91BF91AF919F
:100380009F918F917F916F915F914F913F912F91AD
:100390000F900FBE0F901F901895209128012C30C0
:1003A000A0F4FC012083822F8F5F80932801822F8D
:1003B00090E0FC01EE0FFF1FE80FF91FE65DFE4F16
:1003C00088EB9BE09283818308952FEFFC012083CB
:1003D0000895DF92EF92FF920F931F93CF93DF93D5
:1003E000EC01D62E7A01890188818C3008F063C037
:1003F00061E08D2D1ED58881A82FB0E0FD01EE0FA4
:10040000FF1FEA0FFB1FE65DFE4F2D2D2F7390811E
:10041000907C922B908360E272E06E197F0977FFE7
:1004200002C06D5F7F4F7595679575956795698378
:1004300040E659E0401B510B57FF02C04D5F5F4F34
:1004400055954795559547954A836CE071D59CE045
:10045000899FB001112420E030E0A901460F571F09
:10046000FA01EE0FFF1FE40FF51FE65DFE4F9081CE
:1004700096FD15C02F5F3F4F2C30310571F71DC021
:100480001092800082E0809381001092850010928B
:100490008400B19A80916F00826080936F008881A0
:1004A00090E0FC01EE0FFF1FE80FF91FE65DFE4F25
:1004B000808180648083888103C0882309F3EFCF23
:1004C000DF91CF911F910F91FF90EF90DF900895F2
:1004D00020E639E040E252E07CCFFC0120812C3064
:1004E00008F03DC0318188E890E0831B910937FD19
:1004F0009395880F991F880F991F681779077CF0CB
:10050000328188E592E0831B910937FD9395880F2E
:10051000991F880F991F681779070CF4CB01029770
:100520004FB7F89430E0F901EE0FFF1FE20FF31F11
:10053000E65DFE4FAA2797FDA095BA2F64E0880FCD
:10054000991FAA1FBB1F6A95D1F773E0B695A795AF
:10055000979587957A95D1F7928381834FBF0895B8
:10056000AF92BF92CF92DF92EF92FF920F931F93C1
:10057000CF93DF93EC01603282E078070CF040C04B
:1005800077FD04C0653B710524F405C060E070E0B0
:1005900002C064EB70E0298188E890E0821B910939
:1005A00027FD9395880F991F880F991F5C01CC2414
:1005B000B7FCC094DC2C882777FD8095982F2A8182
:1005C00048E552E0421B510927FD5395440F551F42
:1005D000440F551F8A01222717FD2095322F3F9384
:1005E0002F931F930F9314EBE12EF12C00E010E0FA
:1005F00020E030E0A901BAD20F900F900F900F9039
:10060000CE01DF91CF911F910F91FF90EF90DF907E
:10061000CF90BF90AF9061CFFC0184859585FC01A0
:10062000E05CFF4F20813181FC01EE5BFF4F808158
:100630009181281B390B2F733327C9010895FC01C1
:1006400084859585FC01E05CFF4F40815181FC0170
:10065000EE5BFF4F208131814217530741F001903B
:10066000F081E02DE80FF91F208130E002C02FEF6C
:100670003FEFC9010895FC0184859585FC01E05C8C
:10068000FF4F40815181FC01EE5BFF4F20813181A2
:100690004217530781F0A081B181A80FB91F8C9137
:1006A000208131812F5F3F4F2F7333273183208388
:1006B000282F30E002C02FEF3FEFC9010895FC0161
:1006C00081A1882329F0A489B5898C9186FFFBCF6D
:1006D00011A20895CF93DF93FC0126853785D901B8
:1006E000A05CBF4F8D919C91119701968F739927B4
:1006F000E901CE5BDF4F4881598184179507D9F313
:100700000D90BC91A02DA20FB31F6C93A685B78549
:10071000A05CBF4F11969C938E93A689B7892C91AC
:1007200081E090E0078C02C0880F991F0A94E2F7DD
:10073000282B2C9381E081A30488F589E02D80810A
:100740008064808381E090E0DF91CF9108951F92D3
:100750000F920FB60F9211242F933F934F938F93C5
:100760009F93EF93FF938091C00082FD1CC0409146
:10077000C6008091F4019091F50101968F7399273D
:100780002091F6013091F7018217930771F0E09103
:10079000F401F091F501EC54FE4F40839093F50184
:1007A0008093F40102C08091C600FF91EF919F9168
:1007B0008F914F913F912F910F900FBE0F901F90EF
:1007C00018951F920F920FB60F9211242F933F93FB
:1007D0008F939F93EF93FF932091B0013091B101DC
:1007E0008091B2019091B3012817390731F48091BB
:1007F000C1008F7D8093C10014C0E091B201F091DF
:10080000B301E059FE4F20818091B2019091B30174
:1008100001968F7399279093B3018093B20120932F
:10082000C600FF91EF919F918F913F912F910F9073
:100830000FBE0F901F901895CF92DF92EF92FF920C
:10084000CF93DF93EC016A017B01411581EE5807DC
:1008500061057105F1F0EC89FD8981E090E008A067
:1008600002C0880F991F0A94E2F7808360E079E064
:100870008DE390E0A701960167D32150310941092A
:1008800051095695479537952795211580E13807E9
:1008900090F0EC89FD89108260E874E88EE190E0C8
:1008A000A701960151D321503109410951095695AB
:1008B000479537952795E889F9893083EA89FB8937
:1008C000208319A2EE89FF89408181E090E09C019C
:1008D0000C8C02C0220F331F0A94E2F7422B408394
:1008E000EE89FF8940819C010D8C02C0220F331FCD
:1008F0000A94E2F7422B4083EE89FF8940819C01F4
:100900000E8C02C0220F331F0A94E2F7422B408361
:10091000EE89FF8920810F8C02C0880F991F0A94ED
:10092000E2F7809582238083DF91CF91FF90EF9053
:10093000DF90CF900895109251011092500188EEEF
:1009400093E0A0E0B0E08093520190935301A09314
:100950005401B093550185E191E090934F0180934C
:100960004E0184EB91E090935B0180935A0180E704
:1009700091E090935D0180935C0185EC90E0909311
:100980005F0180935E0184EC90E09093610180931D
:10099000600180EC90E0909363018093620181ECB0
:1009A00090E0909365018093640182EC90E09093D5
:1009B00067018093660186EC90E0909369018093D3
:1009C000680184E080936A0183E080936B0187E093
:1009D00080936C0185E080936D0181E080936E01CE
:1009E0000895CF92DF92EF92FF920F931F93CF93D0
:1009F000DF936C01EB017A01E60EF71E00E010E0D8
:100A00000BC06991D601ED91FC910190F081E02D30
:100A1000C6010995080F191FCE15DF0591F7C8010A
:100A2000DF91CF911F910F91FF90EF90DF90CF90CA
:100A300008956115710581F0DB010D900020E9F743
:100A4000AD0141505109461B570BDC01ED91FC9162
:100A50000280F381E02D099480E090E00895E9CFD1
:100A6000DC01ED91FC910190F081E02D09940F9350
:100A70001F93CF93DF93EC016DE0F2DF8C016AE00E
:100A8000CE01EEDF9C01200F311FC901DF91CF9114
:100A90001F910F9108954F925F926F927F929F9254
:100AA000AF92BF92CF92DF92EF92FF920F931F937C
:100AB000CF93DF93CDB7DEB7A1970FB6F894DEBF23
:100AC0000FBECDBF5C016A017B01922E19A281E0AD
:100AD000821710F08AE0982E8E010F5D1F4F492C6F
:100AE000512C612C712CC701B601A30192012CD2AB
:100AF0008C2D929E80191124015011098A3014F412
:100B0000805D01C0895CF801808369017A01C114AC
:100B1000D104E104F10439F7B801C5018ADFA196D7
:100B20000FB6F894DEBF0FBECDBFDF91CF911F91FE
:100B30000F91FF90EF90DF90CF90BF90AF909F907C
:100B40007F906F905F904F9008952115310541F48B
:100B5000DC01ED91FC910190F081E02D642F09946E
:100B60009ACF9A01AB0160E070E0EFCF4F925F92B5
:100B70006F927F92AF92BF92CF92DF92EF92FF92ED
:100B80000F931F93CF93DF93CDB7DEB729013A01BF
:100B9000621B730B840B950B29893A894B895C89FD
:100BA0002A193B094C095D09298B3A8B4B8B5C8BCD
:100BB0009B01AC0169897A898B899C89AAD1E41847
:100BC000F50806091709A8019701E0D12A0D3B1D78
:100BD0004C1D5D1DB901CA01DF91CF911F910F918D
:100BE000FF90EF90DF90CF90BF90AF907F906F908D
:100BF0005F904F9008951F920F920FB60F9211249D
:100C00002F933F938F939F93AF93BF938091F8015E
:100C10009091F901A091FA01B091FB01309100028D
:100C2000232F2D5F2D3720F40196A11DB11D05C086
:100C3000232F2A570296A11DB11D209300028093F5
:100C4000F8019093F901A093FA01B093FB01809110
:100C5000FC019091FD01A091FE01B091FF01019670
:100C6000A11DB11D8093FC019093FD01A093FE0195
:100C7000B093FF01BF91AF919F918F913F912F91C1
:100C80000F900FBE0F901F9018950F931F939FB753
:100C9000F8940091FC011091FD012091FE0130912A
:100CA000FF0186B5A89B06C08F3F21F00F5F1F4F45
:100CB0002F4F3F4F9FBF322F212F102F0027080F9C
:100CC000111D211D311D42E0000F111F221F331F76
:100CD0004A95D1F7B801C9011F910F910895CF929C
:100CE000DF92EF92FF92CF93DF936B017C01CDDF18
:100CF000EB010DC0CADF6C1B7D0B683E734038F002
:100D000081E0C81AD108E108F108C851DC4FC114CC
:100D1000D104E104F10471F7DF91CF91FF90EF90DE
:100D2000DF90CF900895789484B5826084BD84B5B7
:100D3000816084BD85B5826085BD85B5816085BDD6
:100D4000EEE6F0E0808181608083E1E8F0E01082EF
:100D5000808182608083808181608083E0E8F0E030
:100D6000808181608083E1EBF0E08081846080831A
:100D7000E0EBF0E0808181608083EAE7F0E0808151
:100D800084608083808182608083808181608083B1
:100D90008081806880831092C10008958E3008F0B1
:100DA0008E5087702091040140E4249F900111240B
:100DB000822B80937C0080917A00806480937A00FB
:100DC00080917A0086FDFCCF2091780030917900E7
:100DD000932F80E0AC01422B9A01C9010895833022
:100DE00069F028F48130A1F0823011F514C086300A
:100DF000B1F08730C1F08430D9F404C08091800014
:100E00008F7703C0809180008F7D8093800008954C
:100E100084B58F7702C084B58F7D84BD089580919D
:100E2000B0008F7703C08091B0008F7D8093B000B9
:100E30000895CF93DF9390E0FC01E458FF4F449175
:100E4000FC01E057FF4F8491882341F190E0880F27
:100E5000991FFC01E255FF4F25913491D9018C5522
:100E60009F4FFC0185919491C82FD92F9FB7F8947B
:100E70008C91611106C0409584238C9388818423D2
:100E800008C0623041F4242F209582238C938881FE
:100E9000842B888302C0842B8C939FBFDF91CF91DA
:100EA00008950F931F93CF93DF931F92CDB7DEB7B3
:100EB000282F30E0F901E859FF4F8491F901E458F7
:100EC000FF4F1491F901E057FF4F04910023C9F03F
:100ED000882319F0698383DF6981E02FF0E0EE0F4A
:100EE000FF1FEC55FF4F85919491DC019FB7F8945B
:100EF0008C91611103C01095812301C0812B8C93CB
:100F00009FBF0F90DF91CF911F910F910895F8949B
:100F100074C0DB018F939F9354D0BF91AF91A29F78
:100F2000800D911DA39F900DB29F900D11240895E7
:100F3000991B79E004C0991F961708F0961B881F2B
:100F40007A95C9F780950895A1E21A2EAA1BBB1BBA
:100F5000FD010DC0AA1FBB1FEE1FFF1FA217B30785
:100F6000E407F50720F0A21BB30BE40BF50B661F9B
:100F7000771F881F991F1A9469F76095709580955F
:100F800090959B01AC01BD01CF010895052E97FB03
:100F900016F4009406D057FD0CD0D6DF07FC09D01C
:100FA0007EF490958095709561957F4F8F4F9F4F00
:100FB000089550954095309521953F4F4F4F5F4F85
:100FC00008950FD0A59F900DB49F900DA49F800D04
:100FD000911D11240895EE0FFF1F0590F491E02D4F
:100FE0000994A29FB001B39FC001A39F01D0B29FFB
:0E0FF000700D811D1124911D0895F894FFCFFE
:100FFE00010000000153413A2000202053423A20C4
:10100E0000000000006A03F1040C033B031F035FA2
:02101E000300CD
:00000001FF
