:100000005DC0000082C0000080C000007EC0000013
:100010007CC000007AC0000078C0000076C00000FC
:1000200074C0000072C0000070C000006EC000000C
:100030006CC000006AC0000068C0000066C000001C
:100040000C94C70A62C000000C940B090C9445097B
:100050005CC000005AC0000058C0000056C000003C
:1000600054C0000052C00000000000070002010060
:100070000003040600000000000000000102040864
:100080001020408001020408102001020408102002
:10009000040404040404040402020202020203032E
:1000A0000303030300000000250028002B000000CC
:1000B0000000240027002A007807FF0911241FBE32
:1000C000CFEFD8E0DEBFCDBF11E0A0E0B1E0E0EBC4
:1000D000F8E102C005900D92A034B107D9F724E0F1
:1000E000A0E4B1E001C01D92AC36B207E1F710E028
:1000F000CCEBD0E004C02297FE010E94460CC83B26
:10010000D107C9F7F1D60C94E40B7ACF89EB93E0D1
:100110009093B7038093B6031092910310929003CB
:1001200010929303109292031092950310929403ED
:1001300010929703109296031092990310929803CD
:1001400010929B0310929A0310929D0310929C03AD
:1001500010929F0310929E031092A1031092A0038D
:100160001092A3031092A2031092A5031092A4036D
:100170001092A7031092A6031092A9031092A8034D
:100180001092AB031092AA031092AD031092AC032D
:100190001092AF031092AE031092B1031092B0030D
:1001A0001092B3031092B2030895DC01ED91FC911B
:1001B0000190F081E02D0994DC01ED91FC9101901A
:1001C000F081E02D09942A98292F30E02F703327F1
:1001D00020632EBD0DB407FEFDCF9EB58EBD0DB4C0
:1001E00007FEFDCF8EB52A9A08952D982C982B984E
:1001F0002A9A259A2498239A229A2A9A229A8CB586
:1002000080648CBD8CB580618CBD8CB58F778CBDC6
:100210008CB58F7D8CBD8CB5877F8CBD8CB58B7F6D
:100220008CBD8CB58D7F8CBD8CB58E7F8CBD8DB516
:1002300081608DBD0895CF93C82F682F88E00E94FC
:10024000AE0B6C2F87E0CF910C94AE0BFF920F9307
:100250001F93CF93DF9304E011E0C0E0D0E0BE0134
:100260006F5F7F4F88EB93E044D6F82EBE0188EB9A
:1002700093E03FD66F2D0E94C20AF80181939193BB
:100280008F012296CC32D10551F7DF91CF911F918A
:100290000F91FF9008952F923F924F925F926F922D
:1002A0007F928F929F92AF92BF92CF92DF92EF9206
:1002B000FF920F931F93CF93DF93CDB7DEB72797AE
:1002C0000FB6F894DEBF0FBECDBF8F83862FDA0145
:1002D00060E070E0412C512C32014A94A12CB12CE9
:1002E0006501E12CF12C8701EA9420E030E0A901BE
:1002F000E82FF0E0FE83ED833197FA83E983FF81F5
:100300002F2E312C8D819E810A969C838B8339C040
:10031000FB01EE0FFF1FEA0FFB1F80809180281466
:10032000390468F1FB013196EE0FFF1FEA0FFB1F46
:100330000190F081E02DE215F30508F17F0100E066
:1003400010E0940140E050E08D819E81860F971F60
:10035000BC016F5F7F4F660F771F6A0F7B1FFB012A
:1003600040805180612C712CFC01EE0FFF1FEA0FC1
:10037000FB1FA080B180C12CD12C6B817C816F5F71
:100380007F4F89819A816817790714F2EF816E2F68
:1003900070E080E090E07F926F925F924F920E94B7
:1003A0007D0A0F900F900F900F9027960FB6F8943C
:1003B000DEBF0FBECDBFDF91CF911F910F91FF9098
:1003C000EF90DF90CF90BF90AF909F908F907F90F5
:1003D0006F905F904F903F902F900895CF93C62FCE
:1003E00080EC91E012D680EC91E088D5882361F012
:1003F00060E080EC91E085D544E051E06BE0845210
:100400004ADFCB01E0DE02C080E015DFEC2FF0E038
:10041000EF5BFE4F1082CF9108951F93CF93DF9330
:100420001F92CDB7DEB7162FE62FF0E0EF5BFE4F41
:1004300081E080834983FFDE109240014981612F72
:1004400080EC91E0FCD5812F84528D3350F444E050
:1004500051E06BE020DFCB010F90DF91CF911F9136
:10046000B2CE0F90DF91CF911F910895BEDE42E191
:100470005AE760E070E08091B6039091B70340D7EF
:100480001092B503109283021092820210928A0297
:1004900010928902109288021092870210928F03A4
:1004A00010928D0210928C0210928B0210928E028A
:1004B00010928F02E4EBF3E08081817082608160B2
:1004C00080838DE092E090939303809392038EEE6D
:1004D00091E09093910380939003B8DE61E088E00F
:1004E0000E94760B61E087E00E94760B80EC91E041
:1004F00026D561E080EC91E0FEC4DC011A968D9176
:100500009C911B97813F910509F4ACC024F5803B79
:10051000910509F456C064F480399105F9F1803AE7
:10052000910509F46CC08038910509F0C9C032C04A
:10053000803D910509F475C02CF4803C910509F0CB
:10054000BFC073C0803E910509F43FC0803F910554
:1005500009F0B6C079C08A3F910539F17CF4833F38
:10056000910509F498C00CF481C0863F910509F407
:100570009DC0883F910509F0A3C014C08C3F910530
:10058000D1F0B4F08E3F9105C9F08F3F910509F08D
:1005900097C08FC0FD01E25FFE4F34C0FD01E05FF8
:1005A000FE4F30C0AA5DBE4F86C0A85DBE4F83C05F
:1005B000A65DBE4F80C0A45DBE4F7DC0A25DBE4F94
:1005C0007AC0FD01EC5EFE4F1DC0FD01E65EFE4FF0
:1005D0000190F081E02D309709F472C01D966C9166
:1005E0001D976F7720E8629FB00111241C968C91B3
:1005F0001C978F77682B705219968C910994FD0186
:10060000EE5EFE4F0190F081E02D309709F458C066
:100610001D964C911D971C966C911C9719968C9168
:100620000994FD01E85EFE4F03C0FD01EA5EFE4F46
:100630000190F081E02D309709F442C01C966C9136
:100640001C9719968C910994FD01E45EFE4F019070
:10065000F081E02D3097A1F11C966C911C97CD0193
:100660000E960994FD01E25EFE4F18C0FD01E05EAA
:10067000FE4F0190F081E02D309711F11D968C9185
:100680001D978F7720E8829FC00111241C962C9122
:100690002F77822B0994FD01EE5DFE4F0190F081D2
:1006A000E02D309769F01C968C910994AC5DBE4F9B
:1006B00002C0A05DBE4FED91FC91309709F0099406
:1006C000089580389105A9F08039910591F0803B1B
:1006D000910579F0803A910561F0803D910549F0EE
:1006E00021E0803E910531F0803C910519F020E039
:1006F00001C021E0822F089587FF0EC0843F61F082
:10070000853F51F0893F41F08D3F31F0803F08F443
:10071000807F282F30E002C020E030E0C90108953A
:100720002F923F924F925F926F927F928F929F9201
:10073000AF92BF92CF92DF92EF92FF920F931F93EF
:10074000CF93DF931F92CDB7DEB71C018C010C5CF9
:100750001E4F52E0E52EF12C63E0C62ED12CAA24C8
:10076000AA94B12CE0EF7E2E88248394912CD8019A
:100770008D919C91DC01ED91FC910480F581E02D3F
:100780000995892B09F48EC1F80180819181DC01E2
:10079000ED91FC910680F781E02D09952C01482F01
:1007A000F10187819085009709F0C0C04282608086
:1007B000862DA2DF86DF882369F047FC0BC0D101BC
:1007C00012966C92129713964C92139718969C92CD
:1007D0008E921797F1015280852D8EDF813F910512
:1007E00009F454C01CF5803B910509F455C06CF424
:1007F0008039910509F450C0803A910509F44CC044
:100800008038910509F055C047C0803D9105F1F150
:100810002CF4803C910509F04CC038C0803E910515
:10082000D9F1803F910509F044C03AC0883F910555
:10083000A9F044F4833F910549F174F1863F910595
:10084000C1F50CC08A3F9105A4F18D3F910534F0AC
:100850009C012E5F31092230310558F5D1011B96DC
:100860009C938E931A9719961C9219971C961C921A
:100870001C971D961C92F101E35FFE4F81E080837F
:10088000F10110861782168215820DC1D1011696CC
:10089000FC92EE9215970FC0F101D682C5820BC073
:1008A000D1011696BC92AE9215971C921E967C9220
:1008B00002C0F1019AC0D10117962D913C91189771
:1008C00015964D915C911697BA01615071092617E2
:1008D000370730F11B969C938E931A97852D8F7056
:1008E0008F5F19968C93199713968C9113971C967A
:1008F0008C931C974330510531F414968C911497C6
:100900001D968C9302C0F1011586D10118961C9298
:100910001E92179716961C921E921597F10126C0EB
:100920002F5F3F4FF1013087278321CF47FE45C01E
:100930005524FDEF4F1651046CF42AEF4216510472
:100940007CF4A7EF4A165104B1F0B8EF4B165104EE
:10095000A1F506C092012E5F31092230310568F5FC
:10096000F10153864286148615861186E35FFE4F99
:1009700081E0808398C0D1011E962C911E97F101D1
:10098000203F99F5E80FF91F27EF2687019620EF02
:1009900030E0F10133872287848795871186E35FF2
:1009A000FE4F81E0808318961C921E921797169630
:1009B0001C921E9215971C9276C0D10112962C9112
:1009C000F101E80FF91F203F11F4468701C042836F
:1009D000F101458056809201215031098217930719
:1009E00008F45BC02281203F31F410861782168202
:1009F0001582108257C0822F29837EDE8C01D1019F
:100A00001B969C938E931A975CDE2981882331F084
:100A1000822F8F708F5FF101818703C0D1011996FA
:100A20001C92F10183818487F3E04F16510439F45D
:100A3000D10114968C9114971D968C9302C0F101EC
:100A40001586D10118961C921E92179716961C9225
:100A50001E921597F101E35FFE4F81E08083003B1A
:100A60001105A1F054F40039110581F0003A110587
:100A700069F00038110569F409C0003D110531F035
:100A8000003E110519F0003C110519F4F101208315
:100A900002C0D1011C9281E006C00196F10190874D
:100AA000878365CE80E00F90DF91CF911F910F91EA
:100AB000FF90EF90DF90CF90BF90AF909F908F907E
:100AC0007F906F905F904F903F902F9008950F937D
:100AD0001F93CF93DF938C01EB016D3F710554F4AD
:100AE0006A3F710564F4663F710549F0683F71051E
:100AF00099F405C0CB018E5F9109029768F4F80163
:100B0000EC5CFE4F80819181DC01ED91FC910190C4
:100B1000F081E02D6C2F0995C63FD10521F4F80135
:100B2000ED5CFE4F1082DF91CF911F910F910895E0
:100B3000DF92EF92FF920F931F93CF93DF937C018D
:100B4000EB01122F0150003118F4603871052CF4BC
:100B5000F701ED5CFE4F108251C0613E71050CF053
:100B60003FC0AFE7DA2ED422602BFC01ED5CFE4FD4
:100B70008081861769F06083F701EC5CFE4F80810D
:100B80009181DC01ED91FC910190F081E02D0995BE
:100B9000BCECEB1ABEEFFB0AF70180819181DC010E
:100BA000ED91FC910190F081E02D6D2D0995C03CF7
:100BB000D10521F1C03DD10509F1F7018081918175
:100BC000DC01ED91FC91612F6F770190F081E02DB8
:100BD000DF91CF911F910F91FF90EF90DF900994DB
:100BE000CB01865F91090A9748F4C701DF91CF9145
:100BF0001F910F91FF90EF90DF9069CFDF91CF9120
:100C00001F910F91FF90EF90DF900895AF92BF92E8
:100C1000CF92DF92EF92FF920F931F93CF93DF93C8
:100C20001F92CDB7DEB75C01FC01EE5CFE4F808108
:100C300080FF0BC18E7F09F408C1D5011A966D9112
:100C40007C911B97CB01805891098136910560F505
:100C500019960C91199711968C9121E0081711F0B3
:100C6000811120E0F501EE5CFE4F8081869590E0D9
:100C70008230910539F08330910571F0019709F0C8
:100C8000E4C00CC0222309F4E0C0D5011D962C91CC
:100C90001D971C964C9105C02111D7C0F5012585E3
:100CA0004485C50145DFD1C0663F710529F19CF43B
:100CB000613F710509F49EC02CF4603F710509F095
:100CC000C4C027C0623F710509F466C0633F710567
:100CD00009F0BBC049C06D3F710544F46A3F71051E
:100CE0005CF4683F710509F0B0C006C0CB018E5FAF
:100CF0009109029708F0A9C0C5010F90DF91CF912B
:100D00001F910F91FF90EF90DF90CF90BF90AF9029
:100D1000DECE8501025F1F4FD5011D969C911D9768
:100D200080E01C962C91822B8F3F910519F010F0DA
:100D30008FEF90E06C01C00ED11E7501BCECEB1A78
:100D4000BEEFFB0A0DC0F70180819181D8016D9142
:100D50008D01DC01ED91FC910190F081E02D099570
:100D60000C151D0581F76DC0F501F48485010C5C3F
:100D70001E4FD8018D919C91DC01ED91FC91019069
:100D8000F081E02D63EF09956F2D6F7770E0F8012A
:100D90008081918111DA55C0D5011D960C91B0E882
:100DA0000B9F80011124F5018485082B7501FCEC53
:100DB000EF1AFEEFFF0AD7018D919C91DC01ED91B6
:100DC000FC910190F081E02D62EF0995B8016F77F9
:100DD0007727F70180819181E8D9B801660F672FE5
:100DE000661F770B71956F777727D7018D919C914F
:100DF000DCD927C0F50184858770F0E18F9FC001A1
:100E00001124D5011D962C912F70282B85010C5C87
:100E10001E4FF80180819181DC01ED91FC910190E0
:100E2000F081E02D61EF29830995F801808191819E
:100E3000DC01ED91FC910190F081E02D2981622F80
:100E40000995F501ED5CFE4F10820F90DF91CF9177
:100E50001F910F91FF90EF90DF90CF90BF90AF90D8
:100E60000895CF93DF931F92CDB7DEB760918302D1
:100E70006131B0F582E892E0698352DC69818823B0
:100E800079F180918C0290918D028039910521F445
:100E900080918F028823A1F080918C0290918D0225
:100EA0000097F1F0805891098136910580F4809186
:100EB000830290918B02981751F0811111C007C0E5
:100EC00080E890E090938D0280938C02E5CF82E8D9
:100ED00092E09CDE82E892E00F90DF91CF910DCB03
:100EE0000F90DF91CF9108959CD3C0DABADFFECF87
:100EF0000DC9CB016BC4FC0160830895FC018181A5
:100F00000895860F911DFC0182810895AC0120E0B7
:100F100030E0FC01E20FF31F1282FA01EE5BFF4F9B
:100F20001082FA01EE57FF4F10822F5F3F4F4F5F45
:100F30005F4F2034310569F7FC0111820895E6CF37
:100F40001F93CF93DF9361111FC0DC0111966C9149
:100F500070E020E030E050E0840F951F0EC0FC01EF
:100F6000E20FF31FA381A283DF01AD5BBF4FAC9102
:100F7000EE5BFF4FA0832F5F3F4FF901E40FF51F9A
:100F8000E617F70764F328C0613031F5DC011196EC
:100F9000EC9120E030E060E070E0F0E050E08E0F97
:100FA0009F1F12C0EC01C60FD71F1A81DC01A20FD0
:100FB000B31F12961C931297CE5BDF4FC881AE5BB6
:100FC000BF4FCC932150310961507109D901AE0F47
:100FD000BF1F4A175B0734F3DF91CF911F9108952C
:100FE000FC01418150E020E030E00AC0FC01E20F4A
:100FF000F31F7281761302C0822F08952F5F3F4F37
:10100000241735079CF38FEF0895CF93DF93EC01FE
:101010008981882359F0CE01E3DF8F3F39F0482FD3
:1010200060E0CE018DDF89818150898381E0298153
:101030009881291708F480E0DF91CF9108958F926D
:101040009F92AF92BF92DF92EF92FF920F931F9306
:10105000CF93DF931F92CDB7DEB75C01D62E4983C5
:10106000D4DFF501518180E090E020E030E0852E72
:10107000912CD501A80DB91D498114C07D01E20E46
:10108000F31EF70162818D01080F191FF8016283B9
:10109000F2E4EF0EF11CF70160810E5B1F4FF801C7
:1010A00060830197215031098C01080D191D012B16
:1010B00029F7503418F45F5FF5015183F501D282AE
:1010C000EE5BFF4F40830F90DF91CF911F910F9107
:1010D000FF90EF90DF90BF90AF909F908F9008951A
:1010E000FC0184859585FC01E05CFF4F2081318106
:1010F000FC01EE5BFF4F80819181281B390B2F7320
:101100003327C9010895FC0184859585FC01E05CC5
:10111000FF4F40815181FC01EE5BFF4F2081318107
:101120004217530741F00190F081E02DE80FF91FBD
:10113000208130E002C02FEF3FEFC9010895FC018C
:1011400084859585FC01E05CFF4F40815181FC0165
:10115000EE5BFF4F208131814217530781F0A08160
:10116000B181A80FB91F8C91208131812F5F3F4F32
:101170002F73332731832083282F30E002C02FEFD5
:101180003FEFC9010895FC0181A1882329F0A489BA
:10119000B5898C9186FFFBCF11A20895CF93DF9381
:1011A000FC0126853785D901A05CBF4F8D919C91AC
:1011B000119701968F739927E901CE5BDF4F488124
:1011C000598184179507D9F30D90BC91A02DA20FDA
:1011D000B31F6C93A685B785A05CBF4F11969C93F7
:1011E0008E93A689B7892C9181E090E0078C02C08C
:1011F000880F991F0A94E2F7282B2C9381E081A392
:101200000488F589E02D80818064808381E090E00E
:10121000DF91CF9108951F920F920FB60F92112474
:101220002F933F934F938F939F93EF93FF938091CF
:10123000C00082FD1CC04091C60080915F04909167
:10124000600401968F7399272091610430916204A4
:101250008217930771F0E0915F04F0916004E15E02
:10126000FB4F40839093600480935F0402C08091A1
:10127000C600FF91EF919F918F914F913F912F91D8
:101280000F900FBE0F901F9018951F920F920FB6E0
:101290000F9211242F933F938F939F93EF93FF937C
:1012A00020911B0430911C0480911D0490911E0418
:1012B0002817390731F48091C1008F7D8093C100D8
:1012C00014C0E0911D04F0911E04E552FC4F2081F2
:1012D00080911D0490911E0401968F73992790931D
:1012E0001E0480931D042093C600FF91EF919F91EF
:1012F0008F913F912F910F900FBE0F901F901895D7
:10130000CF92DF92EF92FF92CF93DF93EC016A01CD
:101310007B01411581EE580761057105F1F0EC89FB
:10132000FD8981E090E008A002C0880F991F0A940F
:10133000E2F7808360E079E08DE390E0A701960119
:101340005CD221503109410951095695479537958D
:101350002795211580E1380790F0EC89FD891082EE
:1013600060E874E88EE190E0A701960146D2215032
:101370003109410951095695479537952795E889CF
:10138000F9893083EA89FB89208319A2EE89FF89D4
:10139000408181E090E09C010C8C02C0220F331F41
:1013A0000A94E2F7422B4083EE89FF8940819C0139
:1013B0000D8C02C0220F331F0A94E2F7422B4083A8
:1013C000EE89FF8940819C010E8C02C0220F331FE1
:1013D0000A94E2F7422B4083EE89FF8920810F8C2B
:1013E00002C0880F991F0A94E2F7809582238083B8
:1013F000DF91CF91FF90EF90DF90CF900895109202
:10140000BC031092BB0388EE93E0A0E0B0E08093B1
:10141000BD039093BE03A093BF03B093C00384E3C6
:1014200091E09093BA038093B9038FE194E0909395
:10143000C6038093C5038BED93E09093C80380931C
:10144000C70385EC90E09093CA038093C90384ECB2
:1014500090E09093CC038093CB0380EC90E090934A
:10146000CE038093CD0381EC90E09093D0038093E2
:10147000CF0382EC90E09093D2038093D10386EC6B
:1014800090E09093D4038093D30384E08093D503BA
:1014900083E08093D60387E08093D70385E0809331
:1014A000D80381E08093D9030895CF92DF92EF9221
:1014B000FF920F931F93CF93DF936C01EB017A019F
:1014C000E60EF71E00E010E00BC06991D601ED9129
:1014D000FC910190F081E02DC6010995080F191FBC
:1014E000CE15DF0591F7C801DF91CF911F910F91C4
:1014F000FF90EF90DF90CF9008954F925F926F92A0
:101500007F92AF92BF92CF92DF92EF92FF920F93B2
:101510001F93CF93DF93CDB7DEB729013A01621B4A
:10152000730B840B950B29893A894B895C892A199D
:101530003B094C095D09298B3A8B4B8B5C8B9B01DA
:10154000AC0169897A898B899C8948D1E418F508AE
:1015500006091709A801970172D12A0D3B1D4C1DE0
:101560005D1DB901CA01DF91CF911F910F91FF90CD
:10157000EF90DF90CF90BF90AF907F906F905F9093
:101580004F900895382F20E0262BC90108951F920F
:101590000F920FB60F9211242F933F938F939F9327
:1015A000AF93BF938091630490916404A09165040C
:1015B000B091660430916B04232F2D5F2D3720F4FA
:1015C0000196A11DB11D05C0232F2A570296A11D0A
:1015D000B11D20936B048093630490936404A093E3
:1015E0006504B09366048091670490916804A091AB
:1015F0006904B0916A040196A11DB11D809367042E
:1016000090936804A0936904B0936A04BF91AF916A
:101610009F918F913F912F910F900FBE0F901F9030
:101620001895789484B5826084BD84B5816084BD4A
:1016300085B5826085BD85B5816085BDEEE6F0E04B
:10164000808181608083E1E8F0E0108280818260A7
:101650008083808181608083E0E8F0E08081816028
:101660008083E1EBF0E0808184608083E0EBF0E058
:10167000808181608083EAE7F0E0808184608083FC
:1016800080818260808380818160808380818068A6
:1016900080831092C1000895833069F028F481306E
:1016A000A1F0823011F514C08630B1F08730C1F05E
:1016B0008430D9F404C0809180008F7703C080917A
:1016C00080008F7D80938000089584B58F7702C05D
:1016D00084B58F7D84BD08958091B0008F7703C05D
:1016E0008091B0008F7D8093B0000895CF93DF93F9
:1016F00090E0FC01E458FF4F4491FC01E057FF4F9C
:101700008491882341F190E0880F991FFC01E255F4
:10171000FF4F25913491D9018C559F4FFC01859144
:101720009491C82FD92F9FB7F8948C91611106C05E
:10173000409584238C938881842308C0623041F4CF
:10174000242F209582238C938881842B888302C048
:10175000842B8C939FBFDF91CF9108950F931F939C
:10176000CF93DF931F92CDB7DEB7282F30E0F9017A
:10177000E859FF4F8491F901E458FF4F1491F901A2
:10178000E057FF4F04910023C9F0882319F06983C3
:1017900083DF6981E02FF0E0EE0FFF1FEC55FF4F74
:1017A00085919491DC019FB7F8948C91611103C0ED
:1017B0001095812301C0812B8C939FBF0F90DF91E7
:1017C000CF911F910F910895F89470C0F999FECFB1
:1017D00092BD81BDF89A992780B50895DB018F935A
:1017E0009F9348D0BF91AF91A29F800D911DA39F61
:1017F000900DB29F900D11240895A1E21A2EAA1BFC
:10180000BB1BFD010DC0AA1FBB1FEE1FFF1FA217B0
:10181000B307E407F50720F0A21BB30BE40BF50BAD
:10182000661F771F881F991F1A9469F76095709536
:10183000809590959B01AC01BD01CF010895052EC7
:1018400097FB16F4009406D057FD0CD0D6DF07FCAA
:1018500009D07EF490958095709561957F4F8F4F5C
:101860009F4F089550954095309521953F4F4F4F8C
:101870005F4F08950FD0A59F900DB49F900DA49F2A
:10188000800D911D11240895EE0FFF1F0590F49116
:10189000E02D0994A29FB001B39FC001A39F01D086
:1018A000B29F700D811D1124911D0895F894FFCFF2
:1018B00001000000000006000C00120018001E00CD
:1018C00024002A00300036003C0000009A01330357
:1018D000CD04660600089A09330BCD0C660EFF0F87
:1018E00000000000CE08550A70089F088308C3084E
:00000001FF
