:10000000A0C00000C6C00000C4C00000C2C0000004
:10001000C0C00000BEC00000BCC000000C94F00BCB
:10002000B8C00000B6C00000B4C00000B2C00000FC
:10003000B0C00000AEC00000ACC00000AAC000000C
:100040000C94E815A6C000000C94EA130C94241438
:10005000A0C000009EC000009CC000009AC000002C
:1000600098C0000096C0000007634236B79BD8A72F
:100070001A39685618AEBAAB558C1D3CB7CC5763CD
:10008000BD6DEDFD753EF6177231BF000000803F7B
:1000900008000000BE922449123EABAAAA2ABECD97
:1000A000CCCC4C3E00000080BEABAAAAAA3E000009
:1000B0000000BF000000803F000000000008417801
:1000C000D3BB4387D1133D190E3CC3BD4282AD2B38
:1000D0003E68EC8276BED98FE1A93E4C80EFFFBE30
:1000E00001C4FF7F3F000000000000000007000285
:1000F00001000003040600000000000000000102EF
:1001000004081020408001020408102001020408A5
:100110001020040404040404040402020202020283
:1001200003030303030300000000250028002B0045
:1001300000000000240027002A00830A130CDE14AC
:10014000920A11241FBECFEFD8E0DEBFCDBF11E071
:10015000A0E0B1E0EEE7F6E302C005900D92A03911
:10016000B107D9F727E0A0E9B1E001C01D92AE3494
:10017000B207E1F711E0C0E4D1E004C02297FE012C
:100180000E94231BCA33D107C9F70E947E0A0C9430
:100190005C1736CF08950895089508950895089539
:1001A000089590E0FC01E656FE4F6083FC01EC569A
:1001B000FE4F1082089590E0FC01E656FE4F20812C
:1001C000203258F433E5389FF001399FF00D1124A7
:1001D000E35BFB4FE20FF11D638323E5289FF001F2
:1001E000299FF00D1124E35BFB4F21E02283FC01EA
:1001F000EC56FE4F10820895462F682F8FE396E04D
:100200000C94FA0ACF93DF93D82FC62F282F30E013
:10021000F901EC56FE4F81E0808393E5929FF00157
:10022000939FF00D1124E35BFB4F9091A701DF0139
:10023000A90FB11D13966C9382838D2FDDDF809102
:1002400004028D1305C06C2F86E0DF91CF91D4CFCF
:10025000DF91CF910895CF93DF93C82FD0E0FE01B7
:10026000EA51FE4F91E090834FEF682F8FE396E0C5
:100270000E94FA0AFE01EE0FFF1FEE0FFF1FE2536E
:10028000FE4F8091410690914206A0914306B091A5
:10029000440680839183A283B383DF91CF91089535
:1002A00080930402809348068FE092E00C94D3116F
:1002B000611102C040E001C04FEF682F8FE396E06C
:1002C0000C94FA0A2F923F924F925F926F927F9214
:1002D0008F929F92AF92BF92CF92DF92EF92FF9256
:1002E0000F931F93CF93DF93CDB7DEB727970FB64A
:1002F000F894DEBF0FBECDBF8F83862FDA0160E09A
:1003000070E0412C512C32014A94A12CB12C650192
:10031000E12CF12C8701EA9420E030E0A901E82FDC
:10032000F0E0FE83ED833197FA83E983FF812F2E7E
:10033000312C8D819E810A969C838B8339C0FB0171
:10034000EE0FFF1FEA0FFB1F8080918028143904F5
:1003500068F1FB013196EE0FFF1FEA0FFB1F0190C2
:10036000F081E02DE215F30508F17F0100E010E0D7
:10037000940140E050E08D819E81860F971FBC0163
:100380006F5F7F4F660F771F6A0F7B1FFB014080F7
:100390005180612C712CFC01EE0FFF1FEA0FFB1F37
:1003A000A080B180C12CD12C6B817C816F5F7F4F8D
:1003B00089819A816817790714F2EF816E2F70E0B6
:1003C00080E090E07F926F925F924F920E94A3151F
:1003D0000F900F900F900F9027960FB6F894DEBFF6
:1003E0000FBECDBFDF91CF911F910F91FF90EF9086
:1003F000DF90CF90BF90AF909F908F907F906F9045
:100400005F904F903F902F90089590E0FC01E8534B
:10041000FE4F2081253079F0263069F02430A1F498
:1004200023E5289FF001299FF00D1124E35BFB4F8A
:1004300081E08283089523E5289FF001299FF00D34
:100440001124E35BFB4F12820895E82FF0E0E8539C
:10045000FE4F6083DACF3F924F925F926F927F920E
:100460008F929F92AF92BF92CF92DF92EF92FF92C4
:100470000F931F93CF93DF93D82FF62E882E912CB6
:10048000F401E853FE4F80818530E9F0863009F4AD
:10049000B7C1843009F03AC383E5889DF001899D96
:1004A000F00D1124E35BFB4F81E08283EB5BFF4F98
:1004B000D401AA0FBB1FAA0FBB1FA055BE4F119698
:1004C0008C91808323C32401440C551C440C551C7F
:1004D000F201E055FE4FC0813180128183E5889D95
:1004E0003001899D700C11248DE494E0680E791E12
:1004F000D30112961C92838184FF06C06D2F8FE377
:1005000096E00E94FF0AC80FF201E055FE4F83817A
:1005100086FF06C06D2F8FE396E00E94FF0A180F3A
:10052000F201E055FE4F838183FB882780F9F401B7
:10053000E250FE4F8083882309F483C08C2F90E023
:1005400054E0959587955A95E1F74FE050E0481BA8
:10055000590BFA01EE0FFF1FE25DFE4F2081318142
:10056000F401EE0FFF1FEE50FE4F31832083F401A4
:10057000E451FE4F443051051CF481E0808301C0FA
:1005800010828081882381F140E050E06091AC01CD
:100590007091AD018091AE019091AF010E94D41A8B
:1005A0006AE1689DC001699D900D1124B9018F5CBD
:1005B0009D4F0E94BA10E301C85BDF4FF401EE0FBC
:1005C000FF1FEE50FE4F2081318140E050E06091EE
:1005D000AC017091AD018091AE019091AF010E948C
:1005E000D41A3983288348C08091AC019091AD0121
:1005F000289FB001299F700D389F700D11242AE1AA
:10060000289DC001299D900D11248F5C9D4F0E9453
:10061000BA10D301A85BBF4FF401EE0FFF1FEE50DD
:10062000FE4F408151812091AC013091AD01429F3C
:10063000C001439F900D529F900D11248D939C9368
:100640001BC0C09548E151E065E08C2F3BDE4AE1DC
:10065000489D9001499D300D1124C9018F5C9D4F2B
:100660000E94BA1048E151E065E08C2F2BDEF301C7
:10067000E85BFF4F71836083F301EA5BFF4F3082D9
:1006800011828AE1889DE001899DD00D1124CF5C03
:10069000DD4F6FEFCE010E94E210FF2009F436C259
:1006A000612F70E080E090E01F921F921F9227E080
:1006B0002F93A12CB12C6501E12CF12C8701EA9438
:1006C00020E030E0A9010E94A3150F900F900F9039
:1006D0000F90633071058105910509F467C05CF4E2
:1006E0006130710581059105C1F07CF5672B682BA0
:1006F000692B81F00BC2653071058105910509F404
:100700005FC00CF45AC0663071058105910509F08F
:10071000FDC15DC060E070E002C061E070E0CE014C
:100720000E94D81060E0CE010E94DF10632DCE0140
:100730000E94DC106FEFCE010E94E2101092A60121
:10074000F401E056FE4F1082E1C160E070E0CE019E
:100750000E94D81060E0CE010E94DF10832D90E04F
:10076000B4E095958795BA95E1F7282F883068F021
:1007700088E0821B61E070E001C0660F8A95EAF7AD
:10078000CE010E94E21060E00AC061E070E001C0AA
:10079000660F8A95EAF7CE010E94E2106FEFCE0154
:1007A0000E94DC1081E08093A601CACF60E070E077
:1007B000CE010E94D81061E1B6CF61E070E002C0C6
:1007C00060E070E0CE010E94D81060E1ACCFF20191
:1007D000E055FE4F82818E3F20F081E0F30180835F
:1007E00002C0D3011C9262E070E0CE010E94D810DA
:1007F000F401E056FE4F81E080831092A60186C18D
:1008000083E5889DF001899DF00D1124E35BFB4F8A
:1008100012828401000F111F000F111FF801E05513
:10082000FE4F8381F401E250FE4F83FB992790F93C
:100830009083E401A6E0CC0FDD1FAA95E1F7B3E0B9
:100840006B1322C0EDEC6E2EE2E07E2E6C0E7D1E50
:1008500081FF0CC040E050E068EC72E4C3010E94EC
:10086000EF0D40E050E068EC72E40BC040E050E077
:1008700060E07FE3C3010E94EF0D4AE057ED63E2C1
:100880007CE3C3010E94330EF401E250FE4F8081ED
:10089000882309F4C4C0F801E055FE4F4081842E3E
:1008A000912C64E0959487946A95E1F7D401AA0F9E
:1008B000BB1FA25DBE4F4C90F11018C06091AC01FF
:1008C0007091AD018091AE019091AF01242D30E087
:1008D00040E050E0E3E08E1691042CF40E94D41A1C
:1008E000CA01B901D6C00E94921AD3C022E0F21206
:1008F0005EC0828190E044E0959587954A95E1F746
:10090000EFE0F0E0E81BF90BEE0FFF1FE25DFE4F9A
:1009100040806091AC017091AD018091AE019091E9
:10092000AF01512C612C712CA3E08A16910414F5AF
:100930003DEC832E32E0932E8C0E9D1EA30192017E
:100940000E94D41ACA01B9010E949118AB01BC01DE
:10095000C4010E94B20C6091AC017091AD01809114
:10096000AE019091AF01A30192010E94D41ACA0175
:10097000B901BAC02DEC822E22E0922E8C0E9D1E63
:10098000A30192010E94921A0E949118AB01BC012E
:10099000C401E8D76091AC017091AD018091AE01C6
:1009A0009091AF01A30192010E94921A9DC0B1E003
:1009B000FB12A0C0A181B0E0F4E0B595A795FA952F
:1009C000E1F7EFE0F0E0EA1BFB0BEE0FFF1FE25D4B
:1009D000FE4F20816091AC017091AD018091AE011C
:1009E0009091AF0130E040E050E0139774F4EDECEB
:1009F0008E2EE2E09E2E8C0E9D1E0E94D41AF401D3
:100A0000208731874287538775C0FE01E353FD4F2E
:100A10000E94921A60877187828793876BC0F1E08A
:100A2000FF122DC08DEC882E82E0982E8C0E9D1E1C
:100A300090EB692E91E0792E600E711ED301119614
:100A40006C9170E080E090E00E94911820E030E02E
:100A50004FE753E40E94C717AB01BC01C4010E94D9
:100A6000400D44E051E065E0F30181812BDCD401CD
:100A700018966D937D938D939C931B973BC0F110BB
:100A800011C0F801E055FE4F44E051E065E080817F
:100A900019DC0E949118AB01BC01CE0183539D4F1C
:100AA000A8D728C0B2E0FB1225C0A0EB6A2EA1E0B7
:100AB0007A2E600E711E44E051E065E0F301828100
:100AC00001DCBDEC8B2EB2E09B2E8C0E9D1E0E9495
:100AD0009118AB01BC01C40145D744E051E065E089
:100AE000D30112968C91EEDB0E949118AB01BC01F0
:100AF000C40101D7F801E055FE4F8381C353DD4F98
:100B000080FF03C081E0888301C01882DF91CF910C
:100B10001F910F91FF90EF90DF90CF90BF90AF901B
:100B20009F908F907F906F905F904F903F9008952F
:100B3000DF92EF92FF920F931F93CF93DF938091F9
:100B4000410690914206A0914306B091440640911F
:100B5000A8015091A9016091AA017091AB018C018B
:100B60009D01041B150B260B370B0093AC01109352
:100B7000AD012093AE013093AF018093A801909313
:100B8000A901A093AA01B093AB018091A7018F3175
:100B900020F48F5F8093A70102C01092A70180917B
:100BA0009201909193018F3F910509F030F40196E5
:100BB000909393018093920104C01092930110923C
:100BC0009201E0910402F0E0E853FE4F808184300E
:100BD00031F46091A7018FE092E00E94D61102EFFC
:100BE00011E038ECE32E31E0F32EC0E0D0E043E535
:100BF000D42E8091040290E08C179D07D1F4FE0161
:100C0000E853FE4F80818430A1F0FE01E250FE4F98
:100C10008081882371F0809192019091930183707B
:100C20009927892B31F46091A7018FE092E00E940F
:100C3000D611F70181917F018430A9F4DC9EC001B7
:100C4000DD9E900D1124835B9B4FFC01E85BFF4F01
:100C50002091AC013091AD01318320836091A701D7
:100C60000E949B0E2CC0FE01E250FE4F8081882323
:100C700031F1FE01E451FE4F808181110BC0809162
:100C8000920190919301F801608171810E94AD1AE7
:100C9000892BA9F4DC9EC001DD9E900D1124835B9D
:100CA0009B4F0E949A0ECE0126E0880F991F2A952D
:100CB000E1F783539D4FF1D560E08C2FCCDB21967B
:100CC0000E5F1F4FC630D10509F093CFDF91CF9152
:100CD0001F910F91FF90EF90DF90089594E0899F0E
:100CE000F0011124E60FF11DE055FE4F4083B3CB18
:100CF000EF92FF920F931F93CF93DF9360E076E91B
:100D00008FE092E00E94D0116AEC70E08FE092E0F8
:100D10000E94B5126BEC70E08FE092E00E94B91275
:100D20006CEC70E08FE092E00E94BD126BE271E02B
:100D30008FE092E00E94C1126DEC70E08FE092E0D3
:100D40000E94C5126EEC70E08FE092E00E94C91222
:100D50006FEC70E08FE092E00E94CD1260E571E0F0
:100D60008FE092E00E94D11260ED70E08FE092E09F
:100D70000E94D51268E571E08FE092E00E94D912DE
:100D80006CEF70E08FE092E00E94DD1261ED70E0A8
:100D90008FE092E00E94E1126BED70E08FE092E054
:100DA0000E94E51262E071E08FE092E00E94E91299
:100DB00065E272E08FE092E00E94ED126EE676E06E
:100DC0008FE092E00E94F11268E975E08FE396E00F
:100DD000C2D400E010E06AE1E62E73E5F72EE801E8
:100DE00056E0CC0FDD1F5A95E1F7C353DD4F40E0CD
:100DF00050E06AE774E4CE01FCD540E050E06AEFD1
:100E000074E4CE01AFD540E050E86BE375E4CE0169
:100E100072D540E050E060E07FE3CE0131D640E0A3
:100E200050E060E07FE3CE01DAD64AE057ED63E2BE
:100E30007CE3CE0118D7E09EE001E19ED00D1124A5
:100E4000CF5CDD4F68EE73E0CE010E94A21064EF2C
:100E500071E0CE010E94BA10F09EC001F19E900D8B
:100E60001124602F835B9B4F62D70F5F1F4F0630AB
:100E7000110509F0B4CF8091410690914206A091EE
:100E80004306B09144068093050290930602A09316
:100E90000702B0930802DF91CF911F910F91FF904D
:100EA000EF9008952F923F924F925F926F927F92B0
:100EB0008F929F92AF92BF92CF92DF92EF92FF926A
:100EC0000F931F93CF93DF93CDB7DEB72B970FB65A
:100ED000F894DEBF0FBECDBF88EC91E09F838E8378
:100EE000E6EEF1E0FA83E983F9E0EF2EF2E0FF2E7F
:100EF000A3EBCA2EA1E0DA2EB0E66B2EB6E07B2E75
:100F00008EEC91E09C838B8300E010E01D82212C0D
:100F1000312C80E8482E8FE3582EEE81FF812191FD
:100F2000FF83EE83243009F45BC030F4213059F0A4
:100F3000233009F00FC240C0253009F460C02630CC
:100F400009F008C2B2C0B02E602F8FE396E02B8765
:100F500056D32B85813408F448C2F7018081811172
:100F600044C23CC2F7018081811147C2E981FA8104
:100F70008081811101C0EEC18091410690914206AD
:100F8000A0914306B0914406EB81FC8140815181E0
:100F900062817381841B950BA60BB70B4597A10546
:100FA000B10508F4D7C1E981FA81108240E06B2DC8
:100FB0008FE396E01FD3CEC1602F8FE396E01FD35F
:100FC000F3019081891709F4C5C1602F8FE396E082
:100FD00016D3482F602F8FE092E00E94E011BAC133
:100FE000F801EC56FE4F80818111B4C1F3E5F09F0A
:100FF000C001F19F900D1124835B9B4F39C0F60116
:10100000808184FF0BC0602F8FE396E0F8D2F3015C
:101010009081891719F060E0802F1DDAF601808138
:1010200085FF04C0602F8FE396E0E9D2F60180814E
:1010300086FF0BC0602F8FE396E0E1D2F301908131
:10104000891719F062E0802F06DAF801E056FE4FAA
:101050008081882381F0F3E5F09F5001F19FB00C6F
:1010600011248DE494E0A80EB91EC5017DD7C501F9
:101070000E944C1017C09AE1909FF001919FF00DD3
:101080001124EF5CFD4F8385948523893489820F79
:10109000931F948783876091900170919101CF0194
:1010A0000E947B11B82E482F50C1F6018081580153
:1010B000E6E0AA0CBB1CEA95E1F782FF1CC0950193
:1010C00023533D4F81E0F9018183902E602F8FE300
:1010D00096E02B873A8793D22B853A85813408F4A2
:1010E0009AC1F7018081811196C18AC1F70180817F
:1010F000811199C11FC0C50183539D4F998788876E
:10110000FC011182902E602F8FE396E078D281341B
:1011100008F48CC1F7018081811188C18FC1F7016A
:101120008081811191C106C084E090E0E885F98555
:1011300093838283F501E353FD4FF987E88782812A
:1011400093818230910509F489C034F40097C1F18C
:10115000019709F0EAC03BC08430910509F4B0C0A2
:10116000059709F0E2C0E885F98584819581A6811B
:10117000B7810196A11DB11D84839583A683B78392
:10118000408551856285738584179507A607B70743
:1011900084F014821582168217828181882319F0C7
:1011A00084E090E004C082E090E0E885F9859383D4
:1011B0008283E885F9852486358646865786B5C0BC
:1011C000E885F9858181882309F4AFC0A7C0E88547
:1011D000F985248D358D468D578D64857585868579
:1011E00097850E94211AE885F98524A935A946A981
:1011F00057A90E945F17862E972EA82EB92EE88534
:10120000F98584869586A686B78620E030E040E89A
:101210005FE30E94681987FD88C0E885F985248608
:101220003586468657868081882349F085E090E0A0
:1012300093838283148215821682178276C0E88592
:10124000F9858181882329F084E090E0938382836B
:101250006CC082E090E0E885F985F8CFE885F985F3
:1012600020A131A142A153A164857585868597850A
:101270000E94211AE885F98520AD31AD42AD53AD0C
:101280000E945F17862E972EA82EB92EE885F98525
:1012900084869586A686B78680A491A4A2A4B3A4CA
:1012A000A50194010E94C31718160CF43EC0E885EE
:1012B000F98584869586A686B78683E090E0C6CFBA
:1012C000E885F98524A135A146A157A164857585D6
:1012D000868597850E94211AE885F98524AD35AD6C
:1012E00046AD57AD0E945F17862E972EA82EB92EB9
:1012F000E885F98584869586A686B78620E030E065
:10130000A9010E94C317181684F0E885F985148690
:101310001586168617868181882319F081E090E072
:1013200095CFE885F9851382128220E030E04FE7FF
:1013300053E4E885F98564857585868597850E94DF
:10134000211A0E946018462FB62E602F8FE396E078
:1013500051D101C0B12C2091040230E002171307D3
:1013600009F4BD820F5F1F4F89819A8101969A838C
:1013700089839FEFE91AF90AE4E0CE0ED11CFFEF52
:101380006F1A7F0A8B819C8104969C838B83063025
:10139000110509F0C2CDF901EC56FE4F8081811193
:1013A0005DC04D8166E08FE396E02B960FB6F89412
:1013B000DEBF0FBECDBFDF91CF911F910F91FF9088
:1013C000EF90DF90CF90BF90AF909F908F907F90E5
:1013D0006F905F904F903F902F900CC1F70120834A
:1013E000602F8FE092E0E7D7C1CD6B2D8FE396E0C1
:1013F00006D1813408F4B6CDB9CDF7011082B6CD4F
:1014000081E0F7018083F901138212821486158628
:10141000168617868FCE692D8FE396E0F0D0813443
:1014200008F464CE87CEF701108284CE692D8FE355
:1014300096E0E5D0813408F472CE7CCE21E0F7014D
:10144000208381E090E072CEF7011082E885F98573
:1014500082819381892B09F067CE6CCE2B960FB6D3
:10146000F894DEBF0FBECDBFDF91CF911F910F91DA
:10147000FF90EF90DF90CF90BF90AF909F908F90B4
:101480007F906F905F904F903F902F9008958FE3E3
:1014900096E08ED18FE396E0B7D08FE396E003D14C
:1014A0008FE396E027C18091410690914206A0917A
:1014B0004306B091440640910502509106026091A6
:1014C00007027091080284179507A607B70799F0DD
:1014D0008093050290930602A0930702B09308023E
:1014E0008091900190919101019690939101809348
:1014F0009001D8DCCCDF8FE092E066C70E94321604
:10150000F7DBD1DFFECFCF93DF93CDECD2E0CE017E
:10151000E7D2C05CDF4F84E0CD34D807C1F7DF915C
:10152000CF910895CF93DF93CDE4D4E0C054D10997
:10153000CE01B2D182E0CD3CD807C1F7DF91CF9187
:101540000895FC014281538164817581AB01662756
:101550007727CA01089580E090E00895089580E01B
:10156000089508950895089580E0089508950895D0
:10157000089580E008950895089508956091B30056
:1015800089E09DE370E00E94AD1ACB01089580E4EC
:1015900080937C00EAE7F0E080E8808380818760C8
:1015A00080830895ECE7F0E09081907790839081BC
:1015B000982B908321E030E0082E01C0220F0A947E
:1015C000EAF720937E000895EAE7F0E080818064E6
:1015D0008083089580917A0082958170089520918A
:1015E000780030917900932F80E0AC01422B9A0172
:1015F000C9010895860F911DFC0143870895860F48
:10160000911DFC01838D08950F931F93CF93DF935A
:10161000EC01E0DF882309F441C08FA18E01080F9F
:10162000111DF801838D81A3DADF96958795969534
:101630008795F801838F2FA1FE01E20FF11D81A193
:1016400090E0338D831B910997FF03C0919581959D
:10165000910938A541E050E060E070E0022E04C03E
:10166000440F551F661F771F0A94D2F7029714F094
:10167000432B02C04095432348A72F5F263010F428
:101680002FA301C01FA2EFA1F0E0EE58FE4F808112
:1016900089DFDF91CF911F910F9196CFDF91CF918D
:1016A0001F910F910895FC0180E082872A9AA285FC
:1016B000B0E0A858BE4F9C919EBD0DB407FEFDCF73
:1016C0009EB59285DF01A90FB11D1B969C919EBD11
:1016D0000DB407FEFDCF9EB52A989285DF01A90FB4
:1016E000B11D1B969C911B9753969C938F5F8730DF
:1016F000E1F60895FC018185833018F0289A299835
:101700000895299A289808950F931F93CF93DF93F4
:101710008C01C0E0D0E0F801C287EC0FFD1F1386FA
:10172000C801C1DF2196C830D105A9F7DF91CF915B
:101730001F910F910895CF93DF93EC017BD081E04F
:101740008FD081E09BD084E094D02A981A86CE0175
:10175000DF91CF91D9CF0F931F93CF93DF93EC01FC
:101760008B01F89453985B9A229A219A209A209A96
:10177000219AE1DF18870F8382E08093B000E0E7D1
:10178000F0E080818260808387E08093B1008FE009
:101790008093B3001092B200FADE1FA280E002DF55
:1017A00013DF18A67894DF91CF911F910F910895C0
:1017B0001F93CF93DF93EC01EF81F885309761F0B1
:1017C00019B113FB112710F981E0182721F08E8140
:1017D000811101C009951E83DF91CF911F9108955A
:1017E0001F920F920FB60F9211248F939F93AF9376
:1017F000BF93EF93FF93EFE3F6E082819381A4819F
:10180000B5810196A11DB11D82839383A483B58305
:10181000FF91EF91BF91AF919F918F910F900FBE6C
:101820000F901F90189582E591E090934006809369
:101830003F06089561E08AE00E94CF1661E08AE0E9
:101840000E9497168CB580618CBD8CB580648CBD70
:1018500061E08DE00E94971661E08BE00C94971692
:10186000811103C08CB5806202C08CB58F7D8CBDA8
:1018700008959CB5937F982B9CBD08952CB5982F07
:1018800093702C7F922B9CBD9DB582FB882780F99D
:101890009E7F982B9DBD0895089508958F929F92E5
:1018A000AF92BF92CF92DF92EF92FF920F931F936E
:1018B0004A015B016801790120E030E040E85FE324
:1018C000C701B6010E945F17A70196010E94C717C2
:1018D0000E94AE199058A50194010E94C7171F914C
:1018E0000F91FF90EF90DF90CF90BF90AF909F90BF
:1018F0008F900C943418CF92DF92EF92FF920F9357
:101900001F93CF93DF93EC01488F598F6A8F7B8FA2
:10191000C8A8D9A8EAA8FBA897018601BFDF9B0148
:10192000AC016CA37DA38EA39FA3F7FAF094F7F804
:10193000F09460E070E080E89FE30E945E179B01F6
:10194000AC01C701B6010E94211A6CAF7DAF8EAF0A
:101950009FAFDF91CF911F910F91FF90EF90DF909C
:10196000CF9008958F929F92AF92BF92CF92DF92C5
:10197000EF92FF920F931F93CF93DF93EC014C8B69
:101980005D8B6E8B7F8BC8A8D9A8EAA8FBA89701AE
:10199000860184DF4B015C0168A379A38AA39BA322
:1019A000A701960168A579A58AA59BA50E945E1747
:1019B0006B017C01A501940160E070E080E89FE389
:1019C0000E945E179B01AC01C701B6010E94211A5B
:1019D00068AF79AF8AAF9BAFDF91CF911F910F9125
:1019E000FF90EF90DF90CF90BF90AF909F908F903F
:1019F00008958F929F92AF92BF92CF92DF92EF9213
:101A0000FF920F931F93CF93DF93EC01488B598B79
:101A10006A8B7B8BCCA4DDA4EEA4FFA49701860186
:101A20003DDF4B015C016C8F7D8F8E8F9F8F20E09F
:101A300030E040E85FE3C701B6010E945F176B0129
:101A40007C01A501940160E070E080E89FE30E94C2
:101A50005E179B01AC01C701B6010E94211A6CAB55
:101A60007DAB8EAB9FABDF91CF911F910F91FF901C
:101A7000EF90DF90CF90BF90AF909F908F900895A0
:101A8000CF92DF92EF92FF92CF93DF93EC01CB01E5
:101A9000BA0168A779A78AA79BA728A939A94AA943
:101AA0005BA90E945E176B017C0128A139A14AA1A4
:101AB0005BA160E070E080E89FE30E945E179B01FD
:101AC000AC01C701B6010E94211A68AF79AF8AAF95
:101AD0009BAFDF91CF91FF90EF90DF90CF90089573
:101AE000CF92DF92EF92FF92CF93DF93EC011B82B4
:101AF0001A821C861D861E861F8640E050E0BA01B1
:101B000078DF40E050E0BA01CE012CDF40E050E049
:101B1000BA01CE01F0DE40E050E060E87FE3CE01A4
:101B2000AFDF8AE999E9A9E9BEE38CA79DA7AEA733
:101B3000BFA72C8D3D8D4E8D5F8D60E070E080E8FD
:101B40009FE30E945E1726E636E646EA5FE30E94C0
:101B5000211A6CAB7DAB8EAB9FAB87E197EBA1ED10
:101B6000B8E388AB99ABAAABBBAB9C01AD0168A550
:101B700079A58AA59BA50E945E176B017C0128A10F
:101B800039A14AA15BA160E070E080E89FE30E9478
:101B90005E179B01AC01C701B6010E94211A68AF14
:101BA00079AF8AAF9BAF2CA13DA14EA15FA160E0B0
:101BB00070E080E89FE30E945E1727E137EB41ED7C
:101BC00058EB0E94211A6CAF7DAF8EAF9FAF198288
:101BD000DF91CF91FF90EF90DF90CF900895CF925B
:101BE000DF92EF92FF92CF93DF93EC016A017B01CA
:101BF0002FE530E749E850E3C701B6010E94C3175B
:101C000087FF08C08FE5C82E80E7D82E89E8E82E28
:101C100080E3F82ECCA6DDA6EEA6FFA620E030E0FD
:101C200040E85FE3C701B6010E945F176B017C01CA
:101C30002C8D3D8D4E8D5F8D60E070E080E89FE3E0
:101C40000E945E179B01AC01C701B6010E94211AD8
:101C50006CAB7DAB8EAB9FABDF91CF91FF90EF90E4
:101C6000DF90CF9008958F929F92AF92BF92CF92C4
:101C7000DF92EF92FF92CF93DF93EC016A017B0139
:101C80002FE530E749E850E3C701B6010E94C317CA
:101C900087FF08C09FE5C92E90E7D92E99E8E92E65
:101CA00090E3F92EC8AAD9AAEAAAFBAAA70196012D
:101CB00068A579A58AA59BA50E945E174B015C01CA
:101CC00028A139A14AA15BA160E070E080E89FE310
:101CD0000E945E179B01AC01C501B4010E94211A4C
:101CE00068AF79AF8AAF9BAFF7FAF094F7F8F0944A
:101CF0002CA13DA14EA15FA160E070E080E89FE3D0
:101D00000E945E179B01AC01C701B6010E94211A17
:101D10006CAF7DAF8EAF9FAFDF91CF91FF90EF9013
:101D2000DF90CF90BF90AF909F908F900895FC016F
:101D30006183089508954F928F929F92AF92BF92C0
:101D4000CF92DF92EF92FF920F931F93CF93DF9387
:101D5000EC01962EFC01EE5AFF4F6083FC01EB5B19
:101D6000FF4F4080642D70E080E090E0FE01E85B72
:101D7000FF4F2081318189011F921F921F932F9362
:101D8000A12CB12C6501A394E12CF12C8701EA94DC
:101D900020E030E0A901D7D68B01FE01E05BFF4FC8
:101DA000718360830F900F900F900F908A8188232A
:101DB00009F47EC02EE12915E8F17E01E90CF11C41
:101DC000F701648170E080E090E00E9491184B017F
:101DD0005C01F701638170E080E090E00E9491185F
:101DE000E980F8E0EF9E7001112428E636E0E20E6B
:101DF000F31E2FB7F894F701608371838283938376
:101E00002FBF2081318142815381C501B4010E94DD
:101E10005E174B015C01B80180E090E00E949118D0
:101E20009B01AC01C501B4010E94C717AB01BC0105
:101E3000F7013AC06B8170E080E090E00E94911859
:101E40006B017C01FE01E90DF11D638170E080E012
:101E500090E00E9491188980F8E08F9E4001112443
:101E600028E636E0820E931E2FB7F894F4016083C3
:101E70007183828393832FBF20813181428153817B
:101E8000C701B6010E945E176B017C01B80180E0BA
:101E900090E00E9491189B01AC01C701B6010E941D
:101EA000C717AB01BC01F401448355836683778374
:101EB000C25BDF4F19821882DF91CF911F910F9182
:101EC000FF90EF90DF90CF90BF90AF909F908F905A
:101ED0004F900895FC0142A120E030E0FC01E20FA8
:101EE000F31F51A152A321503109213EFFEF3F07BB
:101EF000A9F7FC0143830895CF93DF93EC01EADF58
:101F000020E430E040E050E060E070E0CB01FED53E
:101F10002C8130E02F513109260F371F2F3F31051B
:101F200009F01CF437FD04C005C02FEF30E002C0FB
:101F300020E030E02B83DF91CF910895FC01EE5B30
:101F4000FF4F50819C014FE1F901EF5BFF4F608132
:101F5000F901EE5BFF4F608341502150310941117F
:101F6000F3CFFC0153A308954F925F926F927F923B
:101F70008F929F92AF92BF92CF92DF92EF92FF9299
:101F80000F931F93CF93DF93EC01FC01E65BFF4FB0
:101F900080819181019691838083DE01A85BBF4F90
:101FA0002D913C9182179307B8F011821082FE01A7
:101FB000EC5BFF4F80818F3118F48F5F808301C00D
:101FC00010828A81811108C08881811103C0CE01ED
:101FD00093DF02C0CE017EDF4E018CE4880E911C9F
:101FE000F40180819181019691838083FE01EA5BF7
:101FF000FF4F40805180B20180E090E0FE01E85B3D
:10200000FF4F2081318129011F921F925F922F93F0
:10201000A12CB12C6501EE24EA9417E0F12E00E02A
:1020200010E020E030E0A9018ED50F900F900F90C6
:102030000F90F401208131812617370730F011828B
:1020400010829B80CE017ADF9BA2DF91CF911F91FE
:102050000F91FF90EF90DF90CF90BF90AF909F9047
:102060008F907F906F905F904F90089520E030E0C8
:1020700040E050E0FC01E20FF31F63A1460F511D49
:102080002F5F3F4F20323105A9F7CA0155E09695E1
:1020900087955A95E1F708951F93CF93DF93FC013D
:1020A0002281222309F43FC0E25BFF4F208131816E
:1020B000DC01A05BBF4F4D915C912417350728F5DB
:1020C0002F5F3F4F31832083FC01C181F8E0CF9F18
:1020D000E0011124C859D94F1FB7F8942C813D81D4
:1020E0004E815F81688179818A819B81E8D6AB01CD
:1020F000BC01488359836A837B831FBF68817981D0
:102100008A819B81E2D7862F19C0FC01EE5AFF4FCE
:1021100020812F3119F4FC01838110C0FC01E20FF2
:10212000F11D84810BC0FC01EA5BFF4F20813181EE
:10213000232B89F3DF91CF911F9198CFDF91CF911E
:102140001F910895FC0111821082158214828FEF75
:10215000808781E090E092878187158617821682BA
:10216000178A128213821486138617861686728B3C
:10217000618B0895CF93DF93EC019B01611571058D
:10218000A1F07695679580E090E0019640E050E000
:102190000E94D41AC9013C8B2B8B8C599F4F26E08F
:1021A000969587952A95E1F78E8BDF91CF910895CB
:1021B000FC01718360830895FC0162830895FC0132
:1021C00063830895CF93DF93EC01611101C061E057
:1021D000262F30E040E050E060E070E081E090E0E9
:1021E0000E94D41A225031093D832C83DF91CF9174
:1021F0000895CF93DF93EC018B859C852E813F81E1
:102200004C815D81BC01621B730B6417750710F470
:102210008D896EC0240F351F3F832E83892F992708
:10222000482F8D872B81282309F061C02889582FDA
:10223000521B09F0888B288139812230310579F5CC
:10224000888D998D851B9109998F888F181619068D
:1022500064F06E89660F80E084D09E89891B8F8B25
:1022600068E28AE07ED0888F198E89859A850197E9
:1022700089F44F892D89842F992787FD9095820FA6
:10228000911D288530E02817390714F097FF02C008
:1022900041954F8B8D899F89890F8D8B11C0211599
:1022A000310531F02130310559F487FD03C0440F69
:1022B0004D8B06C02FEF30E0281B390B220F2D8BE2
:1022C0008D894885481770F429853A85642F0E94C6
:1022D000A11A232B09F405C080FF03C0491B4D8BB5
:1022E00001C09D8B8A819D8989278D8B01C080E0EB
:1022F000DF91CF910895FC010CC0838594854389BB
:102300005489840F951F948783872F5F3F4F3787AA
:102310002687268537852617370779F7CF0169CFB6
:1023200020912C0130912D01C9019695982F882775
:1023300097958795822793279C01232F33272695EE
:102340002695269528273927C901880F991F880FB8
:10235000991F8227932790932D0180932C01892F19
:1023600008951F93CF93DF93182FC62FD0E0C81B7B
:10237000D1092196D5DF8E3F20F4D2DF282F30E01F
:1023800002C02EEF30E02C9FA0012D9F500D3C9FEE
:10239000500D1124812F850FDF91CF911F9108954A
:1023A00088E996E022C188E996E071C1462F62E093
:1023B00088E996E020C1462F64E088E996E01BC1D9
:1023C000625E88E996E017C1EF92FF920F931F9328
:1023D000CF93DF931F92CDB7DEB77C010AE010E008
:1023E00088E996E019D1882309F4B7C088E996E016
:1023F00048D1282F88E996E0298346D1482F2981A2
:10240000243049F138F42230D1F0F8F4213009F0C9
:1024100045C008C0263059F120F1273071F128302D
:10242000E9F531C0813029F088E996E0498332D15D
:102430004981D7011296ED91FC91139729C0D701DC
:102440001496ED91FC91159723C0D7011696ED9146
:10245000FC9117971DC0D7011896ED91FC91199723
:1024600017C0D7011A96ED91FC911B9711C0D701A7
:102470001C96ED91FC911D970BC0D7011E96ED9116
:10248000FC911F9705C0D7015096ED91FC91519793
:10249000309709F4A5CF842F0995A2CF822F8A50B7
:1024A0008A3030F4D7015296ED91FC9153973BC09E
:1024B000822F84518A3030F4D7015496ED91FC91EB
:1024C000559731C0822F8E518A3030F4D7015696FD
:1024D000ED91FC91579727C0822F88528A3030F4B3
:1024E000D7015896ED91FC9159971DC0822F8253C8
:1024F0008A3030F4D7015A96ED91FC915B9713C066
:10250000822F8C538A3030F4D7015C96ED91FC9188
:102510005D9709C0822F86548A3058F4D7015E96A1
:10252000ED91FC915F97309709F45ACF642F09958C
:1025300057CF243608F454CFD7019096ED91FC91F3
:102540009197309709F44CCF822F90E084569109EF
:10255000B8010E94C11A099543CF0F90DF91CF9126
:102560001F910F91FF90EF900895FC017383628398
:102570000895FC01758364830895FC017783668365
:102580000895FC01718760870895FC017387628755
:102590000895FC01758764870895FC017787668735
:1025A0000895FC01718B608B0895FC01738B628B25
:1025B0000895FC01758B648B0895FC01778B668B05
:1025C0000895FC01718F608F0895FC01738F628FF5
:1025D0000895FC01758F648F0895FC01778F668FD5
:1025E0000895FC0171A360A30895AB0160E070E061
:1025F0008BE996E064C1CF93DF931F92CDB7DEB72E
:102600008BE996E04983A9D04981642F8BE996E054
:102610000F90DF91CF91A1C0CF93DF93EC018BE9B5
:1026200096E03DD0892B39F18A8181110EC08BE96A
:1026300096E064D0888391E09A83893031F489816F
:10264000893019F41A82188219828A81813091F4B2
:102650008BE996E024D0892B71F08BE996E04ED07F
:1026600089831A829881993041F4893031F4188233
:10267000198203C003C080E001C081E0DF91CF91E7
:102680000895FC0180810895FC018181089549E04D
:1026900069E0B1CFFC011282108211820895FC0121
:1026A00084859585FC01E05CFF4F20813181FC0130
:1026B000EE5BFF4F80819181281B390B2F733327ED
:1026C000C9010895FC0184859585FC01E05CFF4FFC
:1026D00040815181FC01EE5BFF4F20813181421727
:1026E000530741F00190F081E02DE80FF91F2081A0
:1026F00030E002C02FEF3FEFC9010895FC0184854F
:102700009585FC01E05CFF4F40815181FC01EE5B4F
:10271000FF4F208131814217530781F0A081B181A1
:10272000A80FB91F8C91208131812F5F3F4F2F73EC
:10273000332731832083282F30E002C02FEF3FEF73
:10274000C9010895FC0181A1882329F0A489B589D4
:102750008C9186FFFBCF11A20895CF93DF93FC01EC
:1027600026853785D901A05CBF4F8D919C9111972B
:1027700001968F739927E901CE5BDF4F488159811C
:1027800084179507D9F30D90BC91A02DA20FB31F0C
:102790006C93A685B785A05CBF4F11969C938E93D2
:1027A000A689B7892C9181E090E0078C02C0880F40
:1027B000991F0A94E2F7282B2C9381E081A30488C7
:1027C000F589E02D80818064808381E090E0DF9155
:1027D000CF9108951F920F920FB60F9211242F934D
:1027E0003F934F938F939F93EF93FF938091C000FC
:1027F00082FD1CC04091C600809141079091420724
:1028000001968F73992720914307309144078217CF
:10281000930771F0E0914107F0914207EF5FF84FA5
:102820004083909342078093410702C08091C60085
:10283000FF91EF919F918F914F913F912F910F9029
:102840000FBE0F901F9018951F920F920FB60F9208
:1028500011242F933F938F939F93EF93FF93209196
:10286000FD063091FE068091FF0690910007281723
:10287000390731F48091C1008F7D8093C10014C06D
:10288000E091FF06F0910007E354F94F2081809119
:10289000FF069091000701968F7399279093000788
:1028A0008093FF062093C600FF91EF919F918F9137
:1028B0003F912F910F900FBE0F901F901895CF92C0
:1028C000DF92EF92FF92CF93DF93EC016A017B01DD
:1028D000411581EE580761057105F1F0EC89FD891C
:1028E00081E090E008A002C0880F991F0A94E2F7E7
:1028F000808360E079E08DE390E0A701960154D6F3
:102900002150310941095109569547953795279529
:10291000211580E1380790F0EC89FD89108260E88C
:1029200074E88EE190E0A70196013ED6215031096E
:10293000410951095695479537952795E889F989B1
:102940003083EA89FB89208319A2EE89FF894081BF
:1029500081E090E09C010C8C02C0220F331F0A948E
:10296000E2F7422B4083EE89FF8940819C010D8C68
:1029700002C0220F331F0A94E2F7422B4083EE89F4
:10298000FF8940819C010E8C02C0220F331F0A94E4
:10299000E2F7422B4083EE89FF8920810F8C02C031
:1029A000880F991F0A94E2F7809582238083DF9134
:1029B000CF91FF90EF90DF90CF90089510929E06F8
:1029C00010929D0688EE93E0A0E0B0E080939F0611
:1029D0009093A006A093A106B093A20684E891E08C
:1029E00090939C0680939B0681E097E09093A806C5
:1029F0008093A7068DEB96E09093AA068093A90694
:102A000085EC90E09093AC068093AB0684EC90E06C
:102A10009093AE068093AD0680EC90E09093B00664
:102A20008093AF0681EC90E09093B2068093B1065C
:102A300082EC90E09093B4068093B30686EC90E02D
:102A40009093B6068093B50684E08093B70683E042
:102A50008093B80687E08093B90685E08093BA0634
:102A600081E08093BB060895CF92DF92EF92FF92B0
:102A70000F931F93CF93DF936C01EB017A01E60E66
:102A8000F71E00E010E00BC06991D601ED91FC91BA
:102A90000190F081E02DC6010995080F191FCE1590
:102AA000DF0591F7C801DF91CF911F910F91FF9042
:102AB000EF90DF90CF9008950F931F93CF93DF9304
:102AC00000D000D0CDB7DEB79B01AC016115710518
:102AD0008105910569F069833A834B835C83E0D17A
:102AE00029813A814B815C8181D58B019C0103C096
:102AF00000E010E09801B801C9010F900F900F900D
:102B00000F90DF91CF911F910F910895CF92DF9297
:102B1000EF92FF926B017C016217730784079507A0
:102B20005CF4CA01B9016C197D098E099F09C4DFE3
:102B3000C60ED71EE81EF91EB601C701FF90EF9022
:102B4000DF90CF9008954F925F926F927F92AF92F5
:102B5000BF92CF92DF92EF92FF920F931F93CF938A
:102B6000DF93CDB7DEB729013A01621B730B840BEB
:102B7000950B29893A894B895C892A193B094C09AB
:102B80005D09298B3A8B4B8B5C8B9B01AC0169896E
:102B90007A898B899C89C6D4E418F5080609170937
:102BA000A801970123D52A0D3B1D4C1D5D1DB901C0
:102BB000CA01DF91CF911F910F91FF90EF90DF90AD
:102BC000CF90BF90AF907F906F905F904F9008959F
:102BD0001F920F920FB60F9211242F933F938F9352
:102BE0009F93AF93BF938091450790914607A09123
:102BF0004707B091480730914D07232F2D5F2D37A0
:102C000020F40196A11DB11D05C0232F2A5702965D
:102C1000A11DB11D20934D07809345079093460752
:102C2000A0934707B09348078091490790914A07BE
:102C3000A0914B07B0914C070196A11DB11D809347
:102C4000490790934A07A0934B07B0934C07BF9155
:102C5000AF919F918F913F912F910F900FBE0F9049
:102C60001F901895789484B5826084BD84B5816086
:102C700084BD85B5826085BD85B5816085BDEEE684
:102C8000F0E0808181608083E1E8F0E01082808163
:102C900082608083808181608083E0E8F0E08081D1
:102CA00081608083E1EBF0E0808184608083E0EBF1
:102CB000F0E0808181608083EAE7F0E080818460D9
:102CC0008083808182608083808181608083808135
:102CD000806880831092C1000895833069F028F4E1
:102CE0008130A1F0823011F514C08630B1F0873008
:102CF000C1F08430D9F404C0809180008F7703C084
:102D0000809180008F7D80938000089584B58F77B7
:102D100002C084B58F7D84BD08958091B0008F7707
:102D200003C08091B0008F7D8093B0000895CF9351
:102D3000DF9390E0FC01E250FF4F4491FC01EE5E16
:102D4000FE4F8491882341F190E0880F991FFC0188
:102D5000E05DFE4F25913491D9018A5D9E4FFC01C3
:102D600085919491C82FD92F9FB7F8948C916111B8
:102D700006C0409584238C938881842308C06230E8
:102D800041F4242F209582238C938881842B88837F
:102D900002C0842B8C939FBFDF91CF9108950F9336
:102DA0001F93CF93DF931F92CDB7DEB7282F30E06C
:102DB000F901E651FF4F8491F901E250FF4F149160
:102DC000F901EE5EFE4F04910023C9F0882319F04B
:102DD000698383DF6981E02FF0E0EE0FFF1FEA5D7A
:102DE000FE4F85919491DC019FB7F8948C9161110D
:102DF00003C01095812301C0812B8C939FBF0F903E
:102E0000DF91CF911F910F9108958F929F92AF9272
:102E1000BF92CF92DF92EF92FF92CF93DF93EC01BC
:102E2000688179818A819B81611571058105910590
:102E300021F464E279ED8BE597E02DE133EF41E099
:102E400050E0D4D349015A019B01AC01A7EAB1E497
:102E5000E8D36B017C01ACEEB4EFA5019401EDD396
:102E6000C60ED71EE81EF91EF7FE06C081E0C81A7E
:102E7000D108E10880E8F80AC882D982EA82FB8298
:102E8000E894F7F8B601C701DF91CF91FF90EF907A
:102E9000DF90CF90BF90AF909F908F900895B5CF67
:102EA00080E091E0B2CF60930001709301018093C4
:102EB0000201909303010895F894D5C35058BB279D
:102EC000AA270ED0CBC1BCD130F0C1D120F031F453
:102ED0009F3F11F41EF48CC10EF4E095E7FB82C114
:102EE000E92FCDD180F3BA176207730784079507DE
:102EF00018F071F49EF5E5C10EF4E0950B2EBA2F93
:102F0000A02D0B01B90190010C01CA01A0011124EF
:102F1000FF27591B99F0593F50F4503E68F11A169B
:102F2000F040A22F232F342F4427585FF3CF46952C
:102F300037952795A795F0405395C9F77EF41F164E
:102F4000BA0B620B730B840BBAF09150A1F0FF0F18
:102F5000BB1F661F771F881FC2F70EC0BA0F621F04
:102F6000731F841F48F4879577956795B795F795F4
:102F70009E3F08F0B3CF9395880F08F09927EE0F86
:102F80009795879508950AD108F481E008950CD0AB
:102F900065C15DD140F054D130F021F45F3F19F0AC
:102FA00021C151118FC124C16AD198F39923C9F36A
:102FB0005523B1F3951B550BBB27AA27621773073F
:102FC000840738F09F5F5F4F220F331F441FAA1FF3
:102FD000A9F333D00E2E3AF0E0E830D091505040B3
:102FE000E695001CCAF729D0FE2F27D0660F771F61
:102FF000881FBB1F261737074807AB07B0E809F043
:10300000BB0B802DBF01FF2793585F4F2AF09E3FD7
:10301000510568F0E7C056C15F3FECF3983EDCF322
:10302000869577956795B795F7959F5FC9F7880F50
:10303000911D9695879597F90895E1E0660F771FA2
:10304000881FBB1F621773078407BA0720F0621B33
:10305000730B840BBA0BEE1F88F7E095089519F4F3
:103060000EF0C0C02EC1C4C012D1C8F39638C0F74C
:1030700007F80F92E8942BE33AEA48EB5FE7EFD1C9
:103080000F920F920F924DB75EB70F92A7D1E8E65D
:10309000F0E0B1D04F915F91EF91FF91E595EE1F78
:1030A000FF1F49F0FE57E0684427EE0F441FFA95D2
:1030B000E1F74195550B19D10F9007FE0DC1089509
:1030C00004D06894B111FEC00895E1D088F09F57F4
:1030D00090F0B92F9927B751A0F0D1F0660F771F64
:1030E000881F991F1AF0BA95C9F712C0B13081F044
:1030F000E8D0B1E00895E5C0672F782F8827B85F42
:1031000039F0B93FCCF3869577956795B395D9F7A4
:103110003EF490958095709561957F4F8F4F9F4FAE
:103120000895E89409C097FB3EF4909580957095BA
:1031300061957F4F8F4F9F4F9923A9F0F92F96E903
:10314000BB279395F695879577956795B795F11178
:10315000F8CFFAF4BB0F11F460FF1BC06F5F7F4F15
:103160008F4F9F4F16C0882311F096E911C0772327
:1031700021F09EE8872F762F05C0662371F096E830
:10318000862F70E060E02AF09A95660F771F881FFF
:10319000DAF7880F9695879597F90895990F0008A3
:1031A000550FAA0BE0E8FEEF16161706E807F90719
:1031B000C0F012161306E407F50798F0621B730BB4
:1031C000840B950B39F40A2661F0232B242B252B35
:1031D00021F408950A2609F4A140A6958FEF811DD8
:1031E000811D089597F99F6780E870E060E0089579
:1031F0009FEF80EC0895DF93CF931F930F93FF927F
:10320000EF92DF927B018C01689405C0DA2EEF010A
:1032100024D1FE01E894A5912591359145915591D0
:10322000AEF3EF015DDEFE019701A801DA9479F7B4
:10323000DF90EF90FF900F911F91CF91DF91089554
:1032400000240A9416161706180609060895002485
:103250000A9412161306140605060895092E0394FF
:10326000000C11F4882352F0BB0F40F4BF2B11F473
:1032700060FF04C06F5F7F4F8F4F9F4F089557FDD2
:103280009058440F551F59F05F3F71F04795880FD4
:1032900097FB991F61F09F3F79F08795089512166B
:1032A00013061406551FF2CF4695F1DF08C0161617
:1032B00017061806991FF1CF8695710561050894C8
:1032C0000895E894BB2766277727CB0197F90895DF
:1032D00065DF08F48FEF08959B01AC0160E070E0BA
:1032E00080E89FE354CE7ECF0FC1D1DFE8F399236E
:1032F000D9F3940F511DBBF39150504094F059F005
:10330000882332F0660F771F881F91505040C1F715
:103310009E3F510544F7880F911D9695879597F923
:1033200008955F3FACF0983E9CF0BB27869577955B
:103330006795B79508F4B1609395C1F7BB0F58F73F
:1033400011F460FFE8CF6F5F7F4F8F4F9F4FE3CF48
:10335000B9CF0EF0D9C04CCF689444CF98DFC8F3F2
:103360009923D1F3C6F3DF93CF931F930F93FF926B
:10337000C92FDD2788232AF02197660F771F881F22
:10338000DAF720E030E040E85FEB9FE3883920F097
:10339000803E30F021968F7792DDE0E9F0E003C0C7
:1033A0008EDDEDEBF0E027DF8B01BE01EC01FB2EA3
:1033B0006F5771097595771F880B990BB4DE28E15B
:1033C00032E741E35FE349D0AF2D9801AE01FF90B2
:1033D0000F911F91CF91DF9183DD40CFFA01DC0186
:1033E000AA0FBB1F9B01AC01BF5728F4222733272C
:1033F000442750781FC0B75188F4AB2F002446955E
:1034000037952795011CA395D2F3002069F0220F70
:10341000331F441FB395DAF30DD050CD61307105E1
:10342000A0E88A07B94630F49B01AC0166277727EC
:1034300088279078309621F020833183428353830C
:1034400008950BD00BCFFCDE28F001DF18F0952398
:1034500009F0C8CECDCE112435CF11DFA0F3959F52
:10346000D1F3950F50E0551F629FF001729FBB276B
:10347000F00DB11D639FAA27F00DB11DAA1F649F17
:103480006627B00DA11D661F829F2227B00DA11DCA
:10349000621F739FB00DA11D621F839FA00D611D50
:1034A000221F749F3327A00D611D231F849F600D71
:1034B000211D822F762F6A2F11249F5750408AF0AA
:1034C000E1F088234AF0EE0FFF1FBB1F661F771F36
:1034D000881F91505040A9F79E3F510570F082CE51
:1034E000F1CE5F3FECF3983EDCF3869577956795D8
:1034F000B795F795E7959F5FC1F7FE2B880F911D54
:103500009695879597F908959F3F31F0915020F453
:10351000879577956795B795880F911D96958795AF
:1035200097F90895DB018F939F937BD0BF91AF9163
:10353000A29F800D911DA39F900DB29F900D11240D
:103540000895991B79E004C0991F961708F0961BFF
:10355000881F7A95C9F780950895AA1BBB1B51E176
:1035600007C0AA1FBB1FA617B70710F0A61BB70BF3
:10357000881F991F5A95A9F780959095BC01CD0198
:10358000089597FB072E16F4009406D077FD08D017
:10359000E4DF07FC05D03EF4909581959F4F089598
:1035A000709561957F4F0895A1E21A2EAA1BBB1B4F
:1035B000FD010DC0AA1FBB1FEE1FFF1FA217B307FF
:1035C000E407F50720F0A21BB30BE40BF50B661F15
:1035D000771F881F991F1A9469F7609570958095D9
:1035E00090959B01AC01BD01CF010895052E97FB7D
:1035F00016F4009406D057FD0CD0D6DF07FC09D096
:103600007EF490958095709561957F4F8F4F9F4F79
:10361000089550954095309521953F4F4F4F5F4FFE
:10362000089515D0A59F900DB49F900DA49F800D77
:10363000911D11240895B7FFF4CFF3DF821B930B84
:103640000895EE0FFF1F0590F491E02D0994A29FBD
:10365000B001B39FC001A39F01D0B29F700D811D27
:103660001124911D089511E0C0E4D1E003C0FE01D2
:0E367000EADF2296C234D107D1F7F894FFCFDB
:10367E000100000000003F007F00BF00FF000A00B5
:10368E00F401E803B80B102700003F007F00BF00D5
:10369E00FF000A00F401E803B80B10272A0004000B
:1036AE0003000200010002000300040006000800EF
:1036BE0010001800200030004000800000010000C3
:1036CE000000AE0AAB0AAF0AB10AB20AB30AB40AD4
:1036DE00B60AB70AB80AA10ABE0AB90ABB0ABC0AD8
:1036EE00BD0A050103040002030F0701050D090BB6
:1036FE0000000000AD1334154F137E136213A21396
:00000001FF
