:10000000A0C00000C5C00000C3C00000C1C0000007
:10001000BFC00000BDC00000BBC0000036C600006D
:10002000B7C00000B5C00000B3C00000B1C0000000
:10003000AFC00000ADC00000ABC00000A9C0000010
:100040000C944A0CA5C000000C94930A0C94CD0AA1
:100050009FC000009DC000009BC0000099C0000030
:1000600097C0000095C0000007634236B79BD8A731
:100070001A39685618AEBAAB558C1D3CB7CC5763CD
:10008000BD6DEDFD753EF6177231BF000000803F7B
:1000900008000000BE922449123EABAAAA2ABECD97
:1000A000CCCC4C3E00000080BEABAAAAAA3E000009
:1000B0000000BF000000803F000000000008417801
:1000C000D3BB4387D1133D190E3CC3BD4282AD2B38
:1000D0003E68EC8276BED98FE1A93E4C80EFFFBE30
:1000E00001C4FF7F3F000000000000000007000285
:1000F00001000003040600000000000000000102EF
:1001000004081020408001020408102001020408A5
:100110001020040404040404040402020202020283
:1001200003030303030300000000250028002B0045
:1001300000000000240027002A00E9046806870B5D
:10014000F80411241FBECFEFD8E0DEBFCDBF11E011
:10015000A0E0B1E0E8EFF1E202C005900D92AC370B
:10016000B107D9F726E0ACE7B1E001C01D92AD358B
:10017000B207E1F711E0C0E4D1E004C02297FE012C
:100180000E94E010CA33D107C9F71FD40C94670D41
:1001900037CF08950895089508950895089508950E
:1001A00090E0FC01EC57FE4F6083FC01E258FE4FEB
:1001B0001082089590E0FC01EC57FE4F2081203220
:1001C00058F433E5389FF001399FF00D1124E357BF
:1001D000FC4FE20FF11D638323E5289FF001299F67
:1001E000F00D1124E357FC4F21E02283FC01E2587B
:1001F000FE4F108208950895462F682F8FE795E0EF
:100200005FC4CF93DF93D82FC62F282F30E0F9019A
:10021000E258FE4F81E0808393E5929FF001939F27
:10022000F00D1124E357FC4F90918A01DF01A90FD3
:10023000B11D13966C9382838D2FDEDF8091D101E7
:100240008D1305C06C2F86E0DF91CF91D5CFDF9164
:10025000CF910895CF93DF93C82FD0E0FE01EB53E9
:10026000FE4F91E090834FEF682F8FE795E028D401
:10027000FE01EE0FFF1FEE0FFF1FE355FE4F8091B3
:10028000810590918205A0918305B09184058083BA
:100290009183A283B383DF91CF9108958093D1019D
:1002A00086ED91E00C949B09611102C040E001C011
:1002B0004FEF682F8FE795E003C42F923F924F9244
:1002C0005F926F927F928F929F92AF92BF92CF92E6
:1002D000DF92EF92FF920F931F93CF93DF93CDB7EF
:1002E000DEB727970FB6F894DEBF0FBECDBF8F8362
:1002F000862FDA0160E070E0412C512C32014A94E3
:10030000A12CB12C6501E12CF12C8701EA9420E0AD
:1003100030E0A901E82FF0E0FE83ED833197FA8306
:10032000E983FF812F2E312C8D819E810A969C833B
:100330008B8339C0FB01EE0FFF1FEA0FFB1F80808C
:1003400091802814390468F1FB013196EE0FFF1FEC
:10035000EA0FFB1F0190F081E02DE215F30508F193
:100360007F0100E010E0940140E050E08D819E812B
:10037000860F971FBC016F5F7F4F660F771F6A0F55
:100380007B1FFB0140805180612C712CFC01EE0F22
:10039000FF1FEA0FFB1FA080B180C12CD12C6B8105
:1003A0007C816F5F7F4F89819A816817790714F28A
:1003B000EF816E2F70E080E090E07F926F925F920D
:1003C0004F920E94050C0F900F900F900F90279660
:1003D0000FB6F894DEBF0FBECDBFDF91CF911F9156
:1003E0000F91FF90EF90DF90CF90BF90AF909F90D4
:1003F0008F907F906F905F904F903F902F900895D7
:1004000090E0FC01E955FE4F2081253079F026303F
:1004100069F02430A1F423E5289FF001299FF00D15
:100420001124E357FC4F81E08283089523E5289F40
:10043000F001299FF00D1124E357FC4F128208951B
:10044000E82FF0E0E955FE4F6083DACF8F929F925C
:10045000AF92BF92CF92DF92EF92FF920F931F93D2
:10046000CF93DF931F92CDB7DEB7262FE82EF12C66
:10047000F701E955FE4F8081843021F0863009F084
:1004800096C116C083E58E9DF0018F9DF00D11245D
:10049000E357FC4F81E08283EB5BFF4FD701AA0F4C
:1004A000BB1FAA0FBB1FA157BE4F11968C917CC1D9
:1004B00083E58E9DF0018F9DF00D1124E357FC4FD5
:1004C00012828701000F111F000F111FF801E15761
:1004D000FE4F8381F701E553FE4F83FB992790F987
:1004E00090834701A6E0880C991CAA95E1F7633038
:1004F00011F5EDE0CE2EE2E0DE2EC80CD91C81FF16
:100500000CC040E050E068EC72E4C6012983A6D537
:1005100040E050E068EC72E40BC040E050E060E086
:100520007FE3C60129839AD54AE057ED63E27CE375
:10053000C601D4D52981F701E553FE4F8081882378
:1005400009F4C4C0F801E157FE4F4081A42EB12C3C
:1005500064E0B594A7946A95E1F7D501AA0FBB1F93
:10056000A65EBE4FCC90211118C02C2D30E040E08B
:1005700050E060918B0170918C0180918D01909180
:100580008E01E3E0AE16B1042CF40E949710CA016C
:10059000B901D1C00E946810CEC0223009F062C0FB
:1005A000828190E044E0959587954A95E1F7EFE0E8
:1005B000F0E0E81BF90BEE0FFF1FE65EFE4FC08078
:1005C00060918B0170918C0180918D0190918E01D1
:1005D000D12CE12CF12CF3E0AF16B1040CF53DE089
:1005E000A32E32E0B32EA80CB91CA70196010E94DD
:1005F0009710CA01B9010E946B0EAB01BC01C50185
:10060000FCD360918B0170918C0180918D01909150
:100610008E01A70196010E949710CA01B9011CC062
:100620002DE0A22E22E0B22EA80CB91CA701960143
:100630000E9468100E946B0EAB01BC01C501DDD3A6
:1006400060918B0170918C0180918D0190918E0150
:10065000A70196010E9468100E946B0EAB01BC01BD
:10066000C50197C0213009F095C0A181B0E0F4E048
:10067000B595A795FA95E1F7EFE0F0E0EA1BFB0BE3
:10068000EE0FFF1FE65EFE4F208160918B0170919F
:100690008C0180918D0190918E0130E040E050E01E
:1006A000139774F4EDE0EE2EE2E0FE2EE80CF91C58
:1006B0000E949710F70120873187428753876AC0CD
:1006C000F401E35FFD4F0E94681026C0213049F518
:1006D0008DE0E82E82E0F82EE80CF91C9FE8C92E88
:1006E00091E0D92EC00ED11EF601618170E080E04C
:1006F00090E00E946B0E20E030E04FE753E40E9450
:10070000D20DAB01BC01C70102D444E051E065E069
:10071000F6018181D2DDF701608771878287938737
:1007200039C0211111C0F801E157FE4F44E051E0FA
:1007300065E08081C2DD0E946B0EAB01BC01C4018B
:10074000835F9D4F9FD326C0223021F5AFE8CA2E8C
:10075000A1E0DA2EC00ED11E44E051E065E0F601C2
:100760008281ABDDBDE0EB2EB2E0FB2EE80CF91C84
:100770000E946B0EAB01BC01C7013FD344E051E0C6
:1007800065E0F601828199DD0E946B0EAB01BC0130
:10079000C701FDD2F801E157FE4F8381F401E35F09
:1007A000FD4F80FF03C081E0808301C010820F9065
:1007B000DF91CF911F910F91FF90EF90DF90CF903D
:1007C000BF90AF909F908F90089594E0899FF00123
:1007D0001124E60FF11DE157FE4F408337CEFF9203
:1007E0000F931F93CF93DF9360E076E986ED91E05E
:1007F0009FD569EC70E086ED91E0A0D56AEC70E0E1
:1008000086ED91E09FD56BEC70E086ED91E09ED592
:100810006AE271E086ED91E09DD56CEC70E086EDCA
:1008200091E09CD56DEC70E086ED91E09BD56EEC8F
:1008300070E086ED91E09AD56EE471E086ED91E08E
:1008400099D56FEC70E086ED91E098D564E571E0A4
:1008500086ED91E097D56CEF70E086ED91E096D54E
:1008600060ED70E086ED91E095D56AED70E086ED83
:1008700091E094D561E071E086ED91E093D560E27E
:1008800072E086ED91E092D565EE73E086ED91E041
:1008900091D56BEF70E08FE795E0B4D100E010E008
:1008A00093E5F92EE80186E0CC0FDD1F8A95E1F78C
:1008B000C35FDD4F40E050E06AE774E4CE01E2D26E
:1008C00040E050E06AEF74E4CE0197D240E050E897
:1008D0006BE375E4CE015BD240E050E060E07FE383
:1008E000CE0115D340E050E060E07FE3CE01B6D307
:1008F0004AE057ED63E27CE3CE01F0D3F09EC00105
:10090000F19E900D1124602F83579C4F45D40F5FAB
:100910001F4F0630110509F0C5CF809181059091D8
:100920008205A0918305B09184058093D2019093B4
:10093000D301A093D401B093D501DF91CF911F9142
:100940000F91FF9008958FE795E087D18FE795E0AD
:10095000BCD08FE795E008C1809181059091820518
:10096000A0918305B09184054091D2015091D301AB
:100970006091D4017091D50184179507A607B70738
:1009800019F18093D2019093D301A093D401B09335
:10099000D50180917C0190917D01019690937D011C
:1009A00080937C0160E273E088EF91E0F8D360917E
:1009B0007C0170917D0188EF91E0F5D3482F60E0D4
:1009C0008FE795E07DD0BFCF0895AED708DFC4DFB5
:1009D000FECFCF93DF93CDE0D2E0CE01C6D2C05C94
:1009E000DF4F83E0CD38D807C1F7DF91CF9108956D
:1009F000CF93DF93CDE8D3E0C054D109CE019DD190
:100A000082E0CD30D807C1F7DF91CF910895FC0186
:100A10004281538164817581AB0166277727CA01C2
:100A2000089580E090E00895089580E00895089585
:100A30000895089580E0089508950895089580E048
:100A400008950895089508956091B30089E09DE3A5
:100A500070E00E948310CB01089580E480937C00B5
:100A6000EAE7F0E080E880838081876080830895F2
:100A7000ECE7F0E09081907790839081982B9083C1
:100A800021E030E0082E01C0220F0A94EAF72093FB
:100A90007E000895EAE7F0E0808180648083089515
:100AA00080917A008295817008952091780030912C
:100AB0007900932F80E0AC01422B9A01C90108957F
:100AC000860F911DFC01428708950F931F93CF93CA
:100AD000DF93EC01E5DF882309F441C08EA18E018C
:100AE000080F111DF801828D80A3DFDF9695879591
:100AF00096958795F801828F2EA1FE01E20FF11DD8
:100B000080A190E0328D831B910997FF03C09195DE
:100B1000819591093FA141E050E060E070E0022E34
:100B200004C0440F551F661F771F0A94D2F702971F
:100B300014F0432B02C0409543234FA32F5F263070
:100B400010F42EA301C01EA2EEA1F0E0E25AFE4F67
:100B500080818EDFDF91CF911F910F919BCFDF912D
:100B6000CF911F910F910895FC0180E081872A9A0F
:100B7000A185B0E0AC59BE4F9C919EBD0DB407FE5F
:100B8000FDCF9EB59185DF01A90FB11D1A969C91ED
:100B90009EBD0DB407FEFDCF9EB52A989185DF015D
:100BA000A90FB11D1A969C911A9752969C938F5F2C
:100BB0008730E1F608950F931F93CF93DF938C0155
:100BC000C0E0D0E0F801C187EC0FFD1F1286C8011C
:100BD000CBDF2196C830D105A9F7DF91CF911F91C6
:100BE0000F910895CF93DF93EC0179D081E089D004
:100BF00081E095D084E08ED02A981986CE01DF91CD
:100C0000CF91D9CF0F931F93CF93DF93EC018B013B
:100C1000F89453985B9A229A219A209AE3DF1887D6
:100C20000F8382E08093B000E0E7F0E08081826093
:100C3000808387E08093B1008FE08093B3001092AF
:100C4000B2000BDF1EA280E013DF24DF1FA2789426
:100C5000DF91CF911F910F9108951F93CF93DF9351
:100C6000EC01EF81F885309761F019B113FB112782
:100C700010F981E0182721F08E81811101C00995BA
:100C80001E83DF91CF911F9108951F920F920FB68F
:100C90000F9211248F939F93AF93BF93EF93FF9382
:100CA000EFE7F5E082819381A481B5810196A11DD2
:100CB000B11D82839383A483B583FF91EF91BF918C
:100CC000AF919F918F910F900FBE0F901F9018952D
:100CD0008EE391E09093800580937F05089561E015
:100CE0008AE0BFD661E08AE084D68CB580618CBD95
:100CF0008CB580648CBD61E08DE07BD661E08BE0DB
:100D000078C6811103C08CB5806202C08CB58F7D1E
:100D10008CBD08959CB5937F982B9CBD08952CB5F0
:100D2000982F93702C7F922B9CBD9DB582FB8827BA
:100D300080F99E7F982B9DBD089508958F929F9274
:100D4000AF92BF92CF92DF92EF92FF920F931F93D9
:100D50004A015B016801790120E030E040E85FE38F
:100D6000C701B601B7D6A70196011CD70E94840F10
:100D70009058A501940116D71F910F91FF90EF9005
:100D8000DF90CF90BF90AF909F908F9078C7CF9219
:100D9000DF92EF92FF920F931F93CF93DF93EC01BB
:100DA000488F598F6A8F7B8FC8A8D9A8EAA8FBA85B
:100DB00097018601C3DF9B01AC016CA37DA38EA3C9
:100DC0009FA3F7FAF094F7F8F09460E070E080E801
:100DD0009FE37FD69B01AC01C701B6010E94F70FCC
:100DE0006CAF7DAF8EAF9FAFDF91CF911F910F9111
:100DF000FF90EF90DF90CF9008958F929F92AF92E7
:100E0000BF92CF92DF92EF92FF920F931F93CF93F7
:100E1000DF93EC014C8B5D8B6E8B7F8BC8A8D9A8C0
:100E2000EAA8FBA89701860189DF4B015C0168A352
:100E300079A38AA39BA3A701960168A579A58AA592
:100E40009BA547D66B017C01A501940160E070E091
:100E500080E89FE33ED69B01AC01C701B6010E942A
:100E6000F70F68AF79AF8AAF9BAFDF91CF911F913A
:100E70000F91FF90EF90DF90CF90BF90AF909F9039
:100E80008F9008958F929F92AF92BF92CF92DF92F0
:100E9000EF92FF920F931F93CF93DF93EC01488B58
:100EA000598B6A8B7B8BCCA4DDA4EEA4FFA49701A5
:100EB000860144DF4B015C016C8F7D8F8E8F9F8F8D
:100EC00020E030E040E85FE3C701B60103D66B01E4
:100ED0007C01A501940160E070E080E89FE3F9D512
:100EE0009B01AC01C701B6010E94F70F6CAB7DAB53
:100EF0008EAB9FABDF91CF911F910F91FF90EF9041
:100F0000DF90CF90BF90AF909F908F900895CF9239
:100F1000DF92EF92FF92CF93DF93EC01CB01BA0106
:100F200068A779A78AA79BA728A939A94AA95BA975
:100F3000D0D56B017C0128A139A14AA15BA160E059
:100F400070E080E89FE3C5D59B01AC01C701B60105
:100F50000E94F70F68AF79AF8AAF9BAFDF91CF9157
:100F6000FF90EF90DF90CF900895CF92DF92EF92B5
:100F7000FF92CF93DF93EC011B821A821C861D86A1
:100F80001E861F8640E050E0BA017CDF40E050E062
:100F9000BA01CE0132DF40E050E0BA01CE01F7DE07
:100FA00040E050E060E87FE3CE01B1DF8AE999E9F3
:100FB000A9E9BEE38CA79DA7AEA7BFA72C8D3D8D49
:100FC0004E8D5F8D60E070E080E89FE382D526E67D
:100FD00036E646EA5FE30E94F70F6CAB7DAB8EAB63
:100FE0009FAB87E197EBA1EDB8E388AB99ABAAABD8
:100FF000BBAB9C01AD0168A579A58AA59BA569D568
:101000006B017C0128A139A14AA15BA160E070E0DD
:1010100080E89FE35ED59B01AC01C701B601E7D72D
:1010200068AF79AF8AAF9BAF2CA13DA14EA15FA164
:1010300060E070E080E89FE34CD527E137EB41EDBD
:1010400058EBD5D76CAF7DAF8EAF9FAF1982DF91D4
:10105000CF91FF90EF90DF90CF900895CF92DF92E5
:10106000EF92FF92CF93DF93EC016A017B012FE5B2
:1010700030E749E850E3C701B60190D587FF08C0C3
:101080008FE5C82E80E7D82E89E8E82E80E3F82E79
:10109000CCA6DDA6EEA6FFA620E030E040E85FE3A8
:1010A000C701B60117D56B017C012C8D3D8D4E8D8E
:1010B0005F8D60E070E080E89FE30BD59B01AC01A1
:1010C000C701B60194D76CAB7DAB8EAB9FABDF9104
:1010D000CF91FF90EF90DF90CF9008958F929F92E5
:1010E000AF92BF92CF92DF92EF92FF92CF93DF93B6
:1010F000EC016A017B012FE530E749E850E3C701C5
:10110000B6014CD587FF08C09FE5C92E90E7D92EC0
:1011100099E8E92E90E3F92EC8AAD9AAEAAAFBAA6F
:10112000A701960168A579A58AA59BA5D2D44B01F4
:101130005C0128A139A14AA15BA160E070E080E8D0
:101140009FE3C7D49B01AC01C501B40150D768AF80
:1011500079AF8AAF9BAFF7FAF094F7F8F0942CA12F
:101160003DA14EA15FA160E070E080E89FE3B1D4B3
:101170009B01AC01C701B6013AD76CAF7DAF8EAF12
:101180009FAFDF91CF91FF90EF90DF90CF90BF9016
:10119000AF909F908F900895FC0161830895FC01AA
:1011A0007487638708951F93CF93DF93EC018D8538
:1011B0009E858617970740F089859A852B853C8503
:1011C000820F931F9A8789877E876D8789859A8585
:1011D000681B790B962F6B857C8580E094D7162F42
:1011E0008889262F281B8F85281710F489895CC0D1
:1011F000688B888199818230910561F58B899C8902
:10120000821B91099C8B8B8B1816190654F067E092
:1012100080E06FD083508A8B6EE18FE06AD08B8B39
:101220001C8A8D819E81019789F44A892989842F9E
:10123000992787FD9095820F911D2C8130E028170A
:10124000390714F097FF02C041954A8B89899A8922
:10125000890F10C0009719F0019769F402C0698BDB
:101260000AC067FD02C0862F04C08FEF90E0861B86
:101270009109880F898B89894C81481768F42D81E1
:101280003E81642F34D7232B09F405C080FF03C0AF
:10129000491B498B01C0998B8A8199898927898B40
:1012A0009B81912309F080E0DF91CF911F910895F8
:1012B0002091180130911901C9019695982F88271E
:1012C00097958795822793279C01232F332726956F
:1012D0002695269528273927C901880F991F880F39
:1012E000991F822793279093190180931801892FC2
:1012F00008951F93CF93DF93182FC62FD0E0C81BFC
:10130000D1092196D5DF8E3F20F4D2DF282F30E09F
:1013100002C02EEF30E02C9FA0012D9F500D3C9F6E
:10132000500D1124812F850FDF91CF911F910895CA
:1013300087EA95E043C087EA95E057C0FC017383D4
:1013400062830895FC01758364830895FC017783AB
:1013500066830895FC01718760870895FC01738797
:1013600062870895FC01758764870895FC0177877B
:1013700066870895FC01718B608B0895FC01738B67
:10138000628B0895FC01758B648B0895FC01778B4B
:10139000668B0895FC01718F608F0895FC01738F37
:1013A000628F0895FC01758F648F0895FC01778F1B
:1013B000668F0895FC0171A360A30895AB0160E0FE
:1013C00070E08AEA95E024C1CF93DF931F92CDB7F6
:1013D000DEB78AEA95E0498369D04981642F8AEAB9
:1013E00095E00F90DF91CF9161C049E069E0ECCFCB
:1013F000FC0184859585FC01E05CFF4F20813181F3
:10140000FC01EE5BFF4F80819181281B390B2F730C
:101410003327C9010895FC0184859585FC01E05CB2
:10142000FF4F40815181FC01EE5BFF4F20813181F4
:101430004217530741F00190F081E02DE80FF91FAA
:10144000208130E002C02FEF3FEFC9010895FC0179
:1014500084859585FC01E05CFF4F40815181FC0152
:10146000EE5BFF4F208131814217530781F0A0814D
:10147000B181A80FB91F8C91208131812F5F3F4F1F
:101480002F73332731832083282F30E002C02FEFC2
:101490003FEFC9010895FC0181A1882329F0A489A7
:1014A000B5898C9186FFFBCF11A20895CF93DF936E
:1014B000FC0126853785D901A05CBF4F8D919C9199
:1014C000119701968F739927E901CE5BDF4F488111
:1014D000598184179507D9F30D90BC91A02DA20FC7
:1014E000B31F6C93A685B785A05CBF4F11969C93E4
:1014F0008E93A689B7892C9181E090E0078C02C079
:10150000880F991F0A94E2F7282B2C9381E081A37E
:101510000488F589E02D80818064808381E090E0FB
:10152000DF91CF9108951F920F920FB60F92112461
:101530002F933F934F938F939F93EF93FF938091BC
:10154000C00082FD1CC04091C60080915006909161
:10155000510601968F7399272091520630915306B8
:101560008217930771F0E0915006F0915106E05F09
:10157000F94F4083909351068093500602C08091AA
:10158000C600FF91EF919F918F914F913F912F91C5
:101590000F900FBE0F901F9018951F920F920FB6CD
:1015A0000F9211242F933F938F939F93EF93FF9369
:1015B00020910C0630910D0680910E0690910F0639
:1015C0002817390731F48091C1008F7D8093C100C5
:1015D00014C0E0910E06F0910F06E453FA4F2081FB
:1015E00080910E0690910F0601968F739927909324
:1015F0000F0680930E062093C600FF91EF919F91F6
:101600008F913F912F910F900FBE0F901F901895C3
:10161000CF92DF92EF92FF92CF93DF93EC016A01BA
:101620007B01411581EE580761057105F1F0EC89E8
:10163000FD8981E090E008A002C0880F991F0A94FC
:10164000E2F7808360E079E08DE390E0A701960106
:101650006ED5215031094109510956954795379565
:101660002795211580E1380790F0EC89FD891082DB
:1016700060E874E88EE190E0A701960158D521500A
:101680003109410951095695479537952795E889BC
:10169000F9893083EA89FB89208319A2EE89FF89C1
:1016A000408181E090E09C010C8C02C0220F331F2E
:1016B0000A94E2F7422B4083EE89FF8940819C0126
:1016C0000D8C02C0220F331F0A94E2F7422B408395
:1016D000EE89FF8940819C010E8C02C0220F331FCE
:1016E0000A94E2F7422B4083EE89FF8920810F8C18
:1016F00002C0880F991F0A94E2F7809582238083A5
:10170000DF91CF91FF90EF90DF90CF9008951092EE
:10171000AD051092AC0588EE93E0A0E0B0E08093B8
:10172000AE059093AF05A093B005B093B10580E7E7
:1017300091E09093AB058093AA0580E196E09093A9
:10174000B7058093B6058CEC95E09093B90580932E
:10175000B80585EC90E09093BB058093BA0584ECC6
:1017600090E09093BD058093BC0580EC90E0909351
:10177000BF058093BE0581EC90E09093C1058093F6
:10178000C00582EC90E09093C3058093C20586EC7F
:1017900090E09093C5058093C40584E08093C605CE
:1017A00083E08093C70587E08093C80585E0809338
:1017B000C90581E08093CA050895CF92DF92EF9228
:1017C000FF920F931F93CF93DF936C01EB017A018C
:1017D000E60EF71E00E010E00BC06991D601ED9116
:1017E000FC910190F081E02DC6010995080F191FA9
:1017F000CE15DF0591F7C801DF91CF911F910F91B1
:10180000FF90EF90DF90CF9008954F925F926F928C
:101810007F92AF92BF92CF92DF92EF92FF920F939F
:101820001F93CF93DF93CDB7DEB729013A01621B37
:10183000730B840B950B29893A894B895C892A198A
:101840003B094C095D09298B3A8B4B8B5C8B9B01C7
:10185000AC0169897A898B899C893AD4E418F508A6
:1018600006091709A801970184D42A0D3B1D4C1DB8
:101870005D1DB901CA01DF91CF911F910F91FF90BA
:10188000EF90DF90CF90BF90AF907F906F905F9080
:101890004F9008951F920F920FB60F9211242F931D
:1018A0003F938F939F93AF93BF93809154069091F2
:1018B0005506A0915606B091570630915C06232F2D
:1018C0002D5F2D3720F40196A11DB11D05C0232FDA
:1018D0002A570296A11DB11D20935C0680935406E1
:1018E00090935506A0935606B093570680915806DC
:1018F00090915906A0915A06B0915B060196A11DE0
:10190000B11D8093580690935906A0935A06B09340
:101910005B06BF91AF919F918F913F912F910F9057
:101920000FBE0F901F901895789484B5826084BD87
:1019300084B5816084BD85B5826085BD85B58160D3
:1019400085BDEEE6F0E0808181608083E1E8F0E033
:101950001082808182608083808181608083E0E862
:10196000F0E0808181608083E1EBF0E08081846041
:101970008083E0EBF0E0808181608083EAE7F0E043
:1019800080818460808380818260808380818160A7
:1019900080838081806880831092C10008958330A5
:1019A00069F028F48130A1F0823011F514C086303E
:1019B000B1F08730C1F08430D9F404C08091800048
:1019C0008F7703C0809180008F7D80938000089581
:1019D00084B58F7702C084B58F7D84BD08958091D2
:1019E000B0008F7703C08091B0008F7D8093B000EE
:1019F0000895CF93DF9390E0FC01E250FF4F4491B4
:101A0000FC01EE5EFE4F8491882341F190E0880F47
:101A1000991FFC01E05DFE4F25913491D9018A5D4B
:101A20009E4FFC0185919491C82FD92F9FB7F894B0
:101A30008C91611106C0409584238C938881842306
:101A400008C0623041F4242F209582238C93888132
:101A5000842B888302C0842B8C939FBFDF91CF910E
:101A600008950F931F93CF93DF931F92CDB7DEB7E7
:101A7000282F30E0F901E651FF4F8491F901E2503F
:101A8000FF4F1491F901EE5EFE4F04910023C9F05F
:101A9000882319F0698383DF6981E02FF0E0EE0F7E
:101AA000FF1FEA5DFE4F85919491DC019FB7F8948A
:101AB0008C91611103C01095812301C0812B8C93FF
:101AC0009FBF0F90DF91CF911F910F910895F894D0
:101AD00087C35058BB27AA270ED09AC18BD130F0AC
:101AE00090D120F031F49F3F11F41EF45BC10EF44D
:101AF000E095E7FB51C1E92F9CD180F3BA1762074B
:101B000073078407950718F071F49EF5B4C10EF4BD
:101B1000E0950B2EBA2FA02D0B01B90190010C01FD
:101B2000CA01A0011124FF27591B99F0593F50F415
:101B3000503E68F11A16F040A22F232F342F44276D
:101B4000585FF3CF469537952795A795F040539565
:101B5000C9F77EF41F16BA0B620B730B840BBAF035
:101B60009150A1F0FF0FBB1F661F771F881FC2F7A0
:101B70000EC0BA0F621F731F841F48F487957795B4
:101B80006795B795F7959E3F08F0B3CF9395880F6B
:101B900008F09927EE0F979587950895D9D008F406
:101BA00081E008950CD034C12CD140F023D130F025
:101BB00021F45F3F19F0F0C051115EC1F3C039D17B
:101BC00098F39923C9F35523B1F3951B550BBB2704
:101BD000AA2762177307840738F09F5F5F4F220FB1
:101BE000331F441FAA1FA9F333D00E2E3AF0E0E8AA
:101BF00030D091505040E695001CCAF729D0FE2FF6
:101C000027D0660F771F881FBB1F26173707480787
:101C1000AB07B0E809F0BB0B802DBF01FF2793583D
:101C20005F4F2AF09E3F510568F0B6C025C15F3F67
:101C3000ECF3983EDCF3869577956795B795F79525
:101C40009F5FC9F7880F911D9695879597F908951D
:101C5000E1E0660F771F881FBB1F621773078407B9
:101C6000BA0720F0621B730B840BBA0BEE1F88F7C8
:101C7000E095089519F40EF08FC0FDC093C0E1D037
:101C8000C8F39638C0F707F80F92E8942BE33AEAC6
:101C900048EB5FE7BAD10F920F920F924DB75EB744
:101CA0000F9272D1E8E6F0E080D04F915F91EF9112
:101CB000FF91E595EE1FFF1F49F0FE57E0684427AE
:101CC000EE0F441FFA95E1F74195550BE4D00F90C4
:101CD00007FED8C00895E89409C097FB3EF490959C
:101CE0008095709561957F4F8F4F9F4F9923A9F0F5
:101CF000F92F96E9BB279395F69587957795679584
:101D0000B795F111F8CFFAF4BB0F11F460FF1BC0C7
:101D10006F5F7F4F8F4F9F4F16C0882311F096E95A
:101D200011C0772321F09EE8872F762F05C0662308
:101D300071F096E8862F70E060E02AF09A95660FC1
:101D4000771F881FDAF7880F9695879597F908957A
:101D5000990F0008550FAA0BE0E8FEEF16161706BC
:101D6000E807F907C0F012161306E407F50798F024
:101D7000621B730B840B950B39F40A2661F0232B3D
:101D8000242B252B21F408950A2609F4A140A695B9
:101D90008FEF811D811D089597F99F6780E870E09E
:101DA00060E008959FEF80EC0895DF93CF931F9339
:101DB0000F93FF92EF92DF927B018C01689405C034
:101DC000DA2EEF0120D1FE01E894A59125913591FD
:101DD00045915591AEF3EF018EDEFE019701A8010A
:101DE000DA9479F7DF90EF90FF900F911F91CF91E8
:101DF000DF91089500240A9416161706180609069E
:101E0000089500240A941216130614060506089570
:101E1000092E0394000C11F4882352F0BB0F40F4F8
:101E2000BF2B11F460FF04C06F5F7F4F8F4F9F4F38
:101E3000089557FD9058440F551F59F05F3F71F0BA
:101E40004795880F97FB991F61F09F3F79F0879521
:101E50000895121613061406551FF2CF4695F1DFAA
:101E600008C0161617061806991FF1CF869571053A
:101E7000610508940895E894BB2766277727CB016E
:101E800097F908959B01AC0160E070E080E89FE362
:101E900089CE82CF0FC1D5DFE8F39923D9F3940F10
:101EA000511DBBF39150504094F059F0882332F00B
:101EB000660F771F881F91505040C1F79E3F510514
:101EC00044F7880F911D9695879597F908955F3F80
:101ED000ACF0983E9CF0BB27869577956795B795B3
:101EE00008F4B1609395C1F7BB0F58F711F460FF88
:101EF000E8CF6F5F7F4F8F4F9F4FE3CFBDCF0EF087
:101F0000D9C050CF689448CF9CDFC8F39923D1F350
:101F1000C6F3DF93CF931F930F93FF92C92FDD2753
:101F200088232AF02197660F771F881FDAF720E0B1
:101F300030E040E85FEB9FE3883920F0803E30F0EE
:101F400021968F77C7DDE0E9F0E003C0C3DDEDEB5C
:101F5000F0E02BDF8B01BE01EC01FB2E6F57710906
:101F60007595771F880B990BB8DE28E132E741E3BE
:101F70005FE349D0AF2D9801AE01FF900F911F9103
:101F8000CF91DF91B8DD44CFFA01DC01AA0FBB1F6E
:101F90009B01AC01BF5728F42227332744275078F0
:101FA0001FC0B75188F4AB2F00244695379527956D
:101FB000011CA395D2F3002069F0220F331F441FA8
:101FC000B395DAF30DD085CD61307105A0E88A07AD
:101FD000B94630F49B01AC016627772788279078B3
:101FE000309621F0208331834283538308950BD0B0
:101FF0000FCF00DF28F005DF18F0952309F0CCCED5
:10200000D1CE112439CF15DFA0F3959FD1F3950FD1
:1020100050E0551F629FF001729FBB27F00DB11D6C
:10202000639FAA27F00DB11DAA1F649F6627B00DFC
:10203000A11D661F829F2227B00DA11D621F739FE5
:10204000B00DA11D621F839FA00D611D221F749FF3
:102050003327A00D611D231F849F600D211D822F3A
:10206000762F6A2F11249F5750408AF0E1F0882381
:102070004AF0EE0FFF1FBB1F661F771F881F91508E
:102080005040A9F79E3F510570F086CEF5CE5F3FD8
:10209000ECF3983EDCF3869577956795B795F795C1
:1020A000E7959F5FC1F7FE2B880F911D9695879549
:1020B00097F908959F3F31F0915020F487957795D7
:1020C0006795B795880F911D9695879597F908950F
:1020D000DB018F939F9368D0BF91AF91A29F800D3A
:1020E000911DA39F900DB29F900D11240895991BEF
:1020F00079E004C0991F961708F0961B881F7A95FF
:10210000C9F780950895AA1BBB1B51E107C0AA1F00
:10211000BB1FA617B70710F0A61BB70B881F991F88
:102120005A95A9F780959095BC01CD010895A1E23B
:102130001A2EAA1BBB1BFD010DC0AA1FBB1FEE1F41
:10214000FF1FA217B307E407F50720F0A21BB30B8C
:10215000E40BF50B661F771F881F991F1A9469F708
:1021600060957095809590959B01AC01BD01CF0164
:102170000895052E97FB16F4009406D057FD0CD059
:10218000D6DF07FC09D07EF4909580957095619517
:102190007F4F8F4F9F4F08955095409530952195D3
:1021A0003F4F4F4F5F4F08950FD0A59F900DB49FA5
:1021B000900DA49F800D911D11240895EE0FFF1F17
:1021C0000590F491E02D0994A29FB001B39FC00146
:1021D000A39F01D0B29F700D811D1124911D089500
:1021E00011E0C0E4D1E003C0FE01EADF2296C23470
:0821F000D107D1F7F894FFCFED
:1021F8000100000000003F007F00BF00FF000A0050
:10220800F401E803B80B10272A00040003000200B9
:102218000100020003000400060008001000180076
:10222800200030004000800000010000000014057C
:10223800110515051705180519051A051C051D05AD
:102248001E05070524051F0521052205230505018F
:1022580003040002030F0701050D090B000000002D
:0C226800560ADD0BF809270A0B0A4B0A86
:00000001FF
