:10000000A0C00000C6C00000C4C00000C2C0000004
:10001000C0C00000BEC00000BCC000000C94380A84
:10002000B8C00000B6C00000B4C00000B2C00000FC
:10003000B0C00000AEC00000ACC00000AAC000000C
:100040000C94CF12A6C000000C9418110C945211FD
:10005000A0C000009EC000009CC000009AC000002C
:1000600098C0000096C0000007634236B79BD8A72F
:100070001A39685618AEBAAB558C1D3CB7CC5763CD
:10008000BD6DEDFD753EF6177231BF000000803F7B
:1000900008000000BE922449123EABAAAA2ABECD97
:1000A000CCCC4C3E00000080BEABAAAAAA3E000009
:1000B0000000BF000000803F000000000008417801
:1000C000D3BB4387D1133D190E3CC3BD4282AD2B38
:1000D0003E68EC8276BED98FE1A93E4C80EFFFBE30
:1000E00001C4FF7F3F000000000000000007000285
:1000F00001000003040600000000000000000102EF
:1001000004081020408001020408102001020408A5
:100110001020040404040404040402020202020283
:1001200003030303030300000000250028002B0045
:1001300000000000240027002A00D7085B0A0C12E8
:10014000E60811241FBECFEFD8E0DEBFCDBF11E01F
:10015000A0E0B1E0E2E9FFE202C005900D92AC3709
:10016000B107D9F727E0ACE7B1E001C01D92A43197
:10017000B207E1F711E0C0E4D1E004C02297FE012C
:100180000E94AD17CA33D107C9F70E94D2080C9458
:10019000EC1336CF089508950895089508950895AD
:1001A000089590E0FC01EA57FE4F6083FC01E0589F
:1001B000FE4F1082089590E0FC01EA57FE4F208127
:1001C000203258F433E5389FF001399FF00D1124A7
:1001D000EC5EFB4FE20FF11D638323E5289FF001E6
:1001E000299FF00D1124EC5EFB4F21E02283FC01DE
:1001F000E058FE4F10820895462F682F86E096E063
:100200000C944E09CF93DF93D82FC62F282F30E0C0
:10021000F901E058FE4F81E0808393E5929FF00161
:10022000939FF00D1124EC5EFB4F90918C01DF0148
:10023000A90FB11D13966C9382838D2FDDDF809102
:10024000E9018D1305C06C2F86E0DF91CF91D4CFEB
:10025000DF91CF910895CF93DF93C82FD0E0FE01B7
:10026000E553FE4F91E090834FEF682F86E096E0D4
:100270000E944E09FE01EE0FFF1FEE0FFF1FED540F
:10028000FE4F8091080690910906A0910A06B09150
:100290000B0680839183A283B383DF91CF9108956E
:1002A0008093E90184EF91E00C94020F611102C088
:1002B00040E001C04FEF682F86E096E0EFC72F9235
:1002C0003F924F925F926F927F928F929F92AF92E6
:1002D000BF92CF92DF92EF92FF920F931F93CF9333
:1002E000DF93CDB7DEB727970FB6F894DEBF0FBE0A
:1002F000CDBF8F83862FDA0160E070E0412C512C56
:1003000032014A94A12CB12C6501E12CF12C87011A
:10031000EA9420E030E0A901E82FF0E0FE83ED83CD
:100320003197FA83E983FF812F2E312C8D819E81B5
:100330000A969C838B8339C0FB01EE0FFF1FEA0FE7
:10034000FB1F808091802814390468F1FB013196ED
:10035000EE0FFF1FEA0FFB1F0190F081E02DE21569
:10036000F30508F17F0100E010E0940140E050E067
:100370008D819E81860F971FBC016F5F7F4F660F37
:10038000771F6A0F7B1FFB0140805180612C712C0D
:10039000FC01EE0FFF1FEA0FFB1FA080B180C12CF4
:1003A000D12C6B817C816F5F7F4F89819A81681727
:1003B000790714F2EF816E2F70E080E090E07F9279
:1003C0006F925F924F920E948A120F900F900F903F
:1003D0000F9027960FB6F894DEBF0FBECDBFDF910A
:1003E000CF911F910F91FF90EF90DF90CF90BF9032
:1003F000AF909F908F907F906F905F904F903F90C5
:100400002F90089590E0FC01E355FE4F20812530A8
:1004100079F0263069F02430A1F423E5289FF0011B
:10042000299FF00D1124EC5EFB4F81E0828308953B
:1004300023E5289FF001299FF00D1124EC5EFB4F6E
:1004400012820895E82FF0E0E355FE4F6083DACF83
:100450008F929F92AF92BF92CF92DF92EF92FF92D4
:100460000F931F93CF93DF931F92CDB7DEB7262F45
:10047000E82EF12CF701E355FE4F8081843021F006
:10048000863009F099C116C083E58E9DF0018F9DDD
:10049000F00D1124EC5EFB4F81E08283EB5BFF4F9C
:1004A000D701AA0FBB1FAA0FBB1FAB56BE4F119699
:1004B0008C917FC183E58E9DF0018F9DF00D1124FD
:1004C000EC5EFB4F12828701000F111F000F111FFE
:1004D000F801EB56FE4F8381F701ED51FE4F83FB90
:1004E000992790F990834701A6E0880C991CAA955A
:1004F000E1F7633029F5E4E9CE2EE2E0DE2EC80C08
:10050000D91C81FF0DC040E050E068EC72E4C601E8
:1005100029830E94340C40E050E068EC72E40CC087
:1005200040E050E060E07FE3C60129830E94340C84
:100530004AE057ED63E27CE3C6010E94760C298114
:10054000F701ED51FE4F8081882309F4C4C0F80102
:10055000EB56FE4F4081A42EB12C64E0B594A794D5
:100560006A95E1F7D501AA0FBB1FA65EBE4FCC90DE
:10057000211118C02C2D30E040E050E06091910135
:10058000709192018091930190919401E3E0AE16F5
:10059000B1042CF40E946417CA01B901D1C00E94B1
:1005A0002217CEC0223009F062C0828190E044E080
:1005B000959587954A95E1F7EFE0F0E0E81BF90B98
:1005C000EE0FFF1FE65EFE4FC080609191017091BB
:1005D00092018091930190919401D12CE12CF12C06
:1005E000F3E0AF16B1040CF534E9A32E32E0B32EDC
:1005F000A80CB91CA70196010E946417CA01B90191
:100600000E942115AB01BC01C501F4D76091910195
:10061000709192018091930190919401A7019601AC
:100620000E946417CA01B9011CC024E9A22E22E06D
:10063000B22EA80CB91CA70196010E9422170E9495
:100640002115AB01BC01C501D5D760919101709115
:1006500092018091930190919401A70196010E94CB
:1006600022170E942115AB01BC01C50197C02130A2
:1006700009F095C0A181B0E0F4E0B595A795FA9591
:10068000E1F7EFE0F0E0EA1BFB0BEE0FFF1FE65E89
:10069000FE4F2081609191017091920180919301B0
:1006A0009091940130E040E050E0139774F4E4E955
:1006B000EE2EE2E0FE2EE80CF91C0E946417F70112
:1006C00020873187428753876AC0F401EC56FD4F7B
:1006D0000E94221726C0213049F584E9E82E82E0E5
:1006E000F82EE80CF91C95E9C92E91E0D92EC00E20
:1006F000D11EF601618170E080E090E00E9421153A
:1007000020E030E04FE753E40E945714AB01BC01F6
:10071000C701FED744E051E065E0F6018181CFDDFD
:10072000F701608771878287938739C0211111C0D3
:10073000F801EB56FE4F44E051E065E08081BFDDFB
:100740000E942115AB01BC01C4018C569D4F99D765
:1007500026C0223021F5A5E9CA2EA1E0DA2EC00E6E
:10076000D11E44E051E065E0F6018281A8DDB4E9E4
:10077000EB2EB2E0FB2EE80CF91C0E942115AB0118
:10078000BC01C70137D744E051E065E0F601828142
:1007900096DD0E942115AB01BC01C701F4D6F8011A
:1007A000EB56FE4F8381F401EC56FD4F80FF03C0F2
:1007B00081E0808301C010820F90DF91CF911F9163
:1007C0000F91FF90EF90DF90CF90BF90AF909F90F0
:1007D0008F900895CF92DF92EF92FF920F931F9325
:1007E000CF93DF938091080690910906A0910A06A5
:1007F000B0910B0640918D0150918E0160918F0157
:10080000709190018C019D01041B150B260B370B79
:1008100000939101109392012093930130939401DE
:1008200080938D0190938E01A0938F01B0939001DE
:1008300080918C018F3120F48F5F80938C0102C0F6
:1008400010928C0180917E0190917F018F3F9105E4
:1008500009F030F4019690937F0180937E0104C0EB
:1008600010927F0110927E01E091E901F0E0E355E2
:10087000FE4F8081843031F460918C0184EF91E0EF
:100880000E94050F07ED11E03DEAE32E31E0F32E63
:10089000C0E0D0E043E5D42E55E1C52E8091E901BA
:1008A00090E08C179D07D1F4FE01E355FE4F808147
:1008B0008430A1F0FE01ED51FE4F8081882371F05C
:1008C00080917E0190917F0183709927892B31F46B
:1008D00060918C0184EF91E00E94050FF7018191F6
:1008E0007F018430A9F4DC9EC001DD9E900D1124AF
:1008F0008C5E9B4FFC01E85BFF4F20919101309192
:1009000092013183208360918C010E94DA0C4FC0E8
:10091000FE01ED51FE4F8081882309F448C0FE019D
:10092000EF52FE4F80818823B1F0CC9EC001CD9E56
:10093000900D11244091080660E08A5E9D4F0E9450
:10094000240EDC9EC001DD9E900D11248C5E9B4F19
:100950000E94D90C20C080917E0190917F01F80106
:10096000608171810E943D17892B09F5DC9EC001D1
:10097000DD9E900D11248C5E9B4F0E94D90CCC9E65
:10098000C001CD9E900D11244091080660E08A5E62
:100990009D4F0E94240ECE0126E0880F991F2A95B4
:1009A000E1F78C569D4FC1D560E08C2F51DD21962B
:1009B0000E5F1F4FC630D10509F070CFDF91CF9188
:1009C0001F910F91FF90EF90DF90CF90089594E0EA
:1009D000899FF0011124E60FF11DEB56FE4F408375
:1009E00037CDEF92FF920F931F93CF93DF9360E089
:1009F00076E984EF91E00E94FF0E6AEC70E084EFEC
:100A000091E00E94E30F6BEC70E084EF91E00E94B4
:100A1000E70F6CEC70E084EF91E00E94EB0F6BE26B
:100A200071E084EF91E00E94EF0F6DEC70E084EFD5
:100A300091E00E94F30F6EEC70E084EF91E00E9471
:100A4000F70F6FEC70E084EF91E00E94FB0F60E520
:100A500071E084EF91E00E94FF0F60ED70E084EFA1
:100A600091E00E94031066E571E084EF91E00E943E
:100A700007106CEF70E084EF91E00E940B1061EDC5
:100A800070E084EF91E00E940F106BED70E084EF56
:100A900091E00E94131062E071E084EF91E00E9407
:100AA000171062E272E084EF91E00E941B1067EE83
:100AB00074E084EF91E00E941F106AEE73E086E01C
:100AC00096E093D400E010E075E1E72EE3E5FE2E1A
:100AD000E80166E0CC0FDD1F6A95E1F7CC56DD4FEB
:100AE00040E050E06AE774E4CE01CBD540E050E04E
:100AF0006AEF74E4CE017ED540E050E86BE375E424
:100B0000CE0141D540E050E060E07FE3CE0100D669
:100B100040E050E060E07FE3CE01A6D64AE057ED2A
:100B200063E27CE3CE01E2D6E09EE001E19ED00DDF
:100B30001124CA5EDD4FCE010E940B0E64EF71E0FE
:100B4000CE010E94200EF09EC001F19E900D112456
:100B5000602F8C5E9B4F2AD70F5F1F4F0630110509
:100B600009F0B6CF8091080690910906A0910A0677
:100B7000B0910B068093EA019093EB01A093EC01F6
:100B8000B093ED01DF91CF911F910F91FF90EF9006
:100B900008952F923F924F925F926F927F928F9221
:100BA0009F92AF92BF92CF92DF92EF92FF920F93FC
:100BB0001F93CF93DF93CDB7DEB729970FB6F89485
:100BC000DEBF0FBECDBF2DEA31E03E832D838BEC1F
:100BD00091E09C838B830EEE11E0612C712C1A82C4
:100BE0001982312CB5E12B2E812C912C80E8A82E76
:100BF0008FE3B82E44244394AD81BE812D91BE83F2
:100C0000AD83243009F45FC030F4213059F0233033
:100C100009F0FFC141C0253009F468C0263009F051
:100C2000F8C182C0F9806F2D86E096E02F833BD318
:100C30002F81813408F432C2F801808181112EC2E3
:100C400027C2D8018C91811131C2EB81FC81808156
:100C5000811101C0DEC1F301ED54FE4F8091080601
:100C600090910906A0910A06B0910B06408151812E
:100C700062817381841B950BA60BB70B4597A10569
:100C8000B10508F4C6C1AB81BC811C9240E06F2D58
:100C900086E096E003D3BDC1698186E096E003D388
:100CA000E981FA81EA5FF94F90A1891709F4B1C18E
:100CB000698186E096E0F7D2482F698184EF91E060
:100CC0000E940F0FA6C1E981FA81E058FE4F808192
:100CD00081119FC123E5E981FA812E9FC0012F9FD9
:100CE000900D11248C5E9B4F40D71BC089819A8147
:100CF000289E7001299EF00C1124A6E1B2E0EA0EB4
:100D0000FB1EF301EB56FE4F6081B0E16B9FB0011B
:100D10001124C70195D760917C0170917D01C701B5
:100D2000A7D7F82E482F70C1F301EB56FE4F8381F1
:100D3000C980DA80F6E0CC0CDD1CFA95E1F7A4E975
:100D4000EA2EA2E0FA2EEC0CFD1C82FF14C0F70183
:100D500041825980652D86E096E0A5D2813408F461
:100D6000A8C1D8018C918111A4C1ABC1F8018081C7
:100D70008111B1C11AC0D70111961C925980652DFD
:100D800086E096E090D2813408F4ACC1F80180810D
:100D90008111A8C1A3C1D8018C918111ABC105C03B
:100DA00024E030E0F70133832283C6018C569D4F47
:100DB00099878887DC0112968D919C9113978230D8
:100DC000910509F498C034F40097E9F1019709F00E
:100DD0000BC142C08430910509F4C7C0059709F0E2
:100DE00003C1E885F98584819581A681B781019643
:100DF000A11DB11D84839583A683B783408551854A
:100E00006285738584179507A607B7079CF0DF01F5
:100E100014821582168217828181882319F0E4E0FA
:100E2000F0E004C0E2E0F0E0A885B9851396FC93F9
:100E3000EE931297A885B9851C968D929D92AD92DE
:100E4000BC921F97D1C0E885F9858181882309F478
:100E5000CBC0E1E0F0E048C0A885B9855C962D9153
:100E60003D914D915C915F971C966D917D918D9117
:100E70009C911F970E94B116E885F98524A935A990
:100E800046A957A90E94EF13C62ED72EE82EF92E99
:100E9000A885B9851C96CD92DD92ED92FC921F97A4
:100EA00020E030E040E85FE30E94F81587FD9CC039
:100EB000E885F98584869586A686B786808188230D
:100EC00049F025E030E033832283148215821682B4
:100ED00017828AC0E885F9858181882319F024E08A
:100EE00030E079C0E2E0F0E0A885B9851396FC9384
:100EF000EE93129779C0A885B98590962D913D9172
:100F00004D915C9193971C966D917D918D919C91E3
:100F10001F970E94B116E885F98520AD31AD42AD2D
:100F200053AD0E94EF13C62ED72EE82EF92EA885BA
:100F3000B9851C96CD92DD92ED92FC921F97989602
:100F4000CD90DD90ED90FC909B97A70196010E94BB
:100F5000531418160CF448C0E885F985C486D58664
:100F6000E686F78623E030E036C0A885B9859496FA
:100F70002D913D914D915C9197971C966D917D912E
:100F80008D919C911F970E94B116E885F98524AD3B
:100F900035AD46AD57AD0E94EF13C62ED72EE82EC5
:100FA000F92EA885B9851C96CD92DD92ED92FC9222
:100FB0001F9720E030E0A9010E9453141816A4F0F6
:100FC000E885F9851486158616861786818188231B
:100FD00029F021E030E03383228306C0A885B9855B
:100FE00013961C921E92129720E030E04FE753E4D4
:100FF000E885F98564857585868597850E94B11693
:101000000E94F014462FF62E698186E096E046D1C4
:1010100001C0F12C2091E90130E089819A81821789
:10102000930709F43F2CA981BA811196BA83A98349
:10103000EB81FC813196FC83EB83F4E06F0E711C35
:101040000F5F1F4F169709F0D7CDF901E058FE4FFB
:101050008081811158C0432D66E086E096E0299694
:101060000FB6F894DEBF0FBECDBFDF91CF911F91B9
:101070000F91FF90EF90DF90CF90BF90AF909F9037
:101080008F907F906F905F904F903F902F9006C110
:101090002083698184EF91E0BDD6D7CD6F2D86E0A6
:1010A00096E001D1813408F4CCCDCFCDF801108287
:1010B000CCCD652D86E096E0F6D0813408F456CE8E
:1010C00074CED8014C92F7011382128214861586D1
:1010D000168617866ACEF801108267CE408221E01C
:1010E00030E060CE652D86E096E0DDD0813408F4F6
:1010F00052CE5BCED8011C92F70182819381892B5D
:1011000009F04ECE52CE29960FB6F894DEBF0FBE30
:10111000CDBFDF91CF911F910F91FF90EF90DF90A6
:10112000CF90BF90AF909F908F907F906F905F9087
:101130004F903F902F90089586E096E081D186E011
:1011400096E0B6D086E096E002C1809108069091C4
:101150000906A0910A06B0910B064091EA01509150
:10116000EB016091EC017091ED0184179507A607E2
:10117000B707B9F020917C0130917D012F5F3F4F7F
:1011800030937D0120937C018093EA019093EB01E1
:10119000A093EC01B093ED0184EF91E044D6F9DC2B
:1011A000CBCF08950E9419131CDCCFDFFECFCF9365
:1011B000DF93C4E9D2E0CE01DBD2C05CDF4F84E034
:1011C000C431D807C1F7DF91CF910895CF93DF9352
:1011D000C4E1D4E0C054D109CE01A6D182E0C43923
:1011E000D807C1F7DF91CF910895FC014281538167
:1011F00064817581AB0166277727CA01089580E075
:1012000090E00895089580E0089508950895089560
:1012100080E0089508950895089580E00895089560
:10122000089508956091B30089E09DE370E00E9405
:101230003D17CB01089580E480937C00EAE7F0E05D
:1012400080E880838081876080830895ECE7F0E008
:101250009081907790839081982B908321E030E06B
:10126000082E01C0220F0A94EAF720937E00089509
:10127000EAE7F0E0808180648083089580917A00BD
:101280008295817008952091780030917900932F94
:1012900080E0AC01422B9A01C9010895860F911D8F
:1012A000FC0142870895860F911DFC01828D0895EF
:1012B0000F931F93CF93DF93EC01E0DF882309F4B2
:1012C00041C08EA18E01080F111DF801828D80A3EF
:1012D000DADF9695879596958795F801828F2EA1EE
:1012E000FE01E20FF11D80A190E0328D831B910978
:1012F00097FF03C09195819591093FA141E050E08E
:1013000060E070E0022E04C0440F551F661F771F77
:101310000A94D2F7029714F0432B02C0409543235E
:101320004FA32F5F263010F42EA301C01EA2EEA102
:10133000F0E0E25AFE4F808189DFDF91CF911F916B
:101340000F9196CFDF91CF911F910F910895FC01DE
:1013500080E081872A9AA185B0E0AC59BE4F9C916C
:101360009EBD0DB407FEFDCF9EB59185DF01A90F8F
:10137000B11D1A969C919EBD0DB407FEFDCF9EB582
:101380002A989185DF01A90FB11D1A969C911A9791
:1013900052969C938F5F8730E1F608950F931F93C9
:1013A000CF93DF938C01C0E0D0E0F801C187EC0F50
:1013B000FD1F1286C801CBDF2196C830D105A9F7E1
:1013C000DF91CF911F910F910895CF93DF93EC019F
:1013D00079D081E08DD081E099D084E092D02A98B4
:1013E0001986CE01DF91CF91D9CF0F931F93CF9361
:1013F000DF93EC018B01F89453985B9A229A219A1F
:10140000209AE3DF18870F8382E08093B000E0E743
:10141000F0E080818260808387E08093B1008FE07C
:101420008093B3001092B20006DF1EA280E00EDFB0
:101430001FDF1FA27894DF91CF911F910F91089524
:101440001F93CF93DF93EC01EF81F885309761F024
:1014500019B113FB112710F981E0182721F08E81B3
:10146000811101C009951E83DF91CF911F910895CD
:101470001F920F920FB60F9211248F939F93AF93E9
:10148000BF93EF93FF93E6E0F6E082819381A4811E
:10149000B5810196A11DB11D82839383A483B58379
:1014A000FF91EF91BF91AF919F918F910F900FBEE0
:1014B0000F901F9018958EE391E09093070680930C
:1014C0000606089561E08AE00E94B61361E08AE0B2
:1014D0000E947E138CB580618CBD8CB580648CBD00
:1014E00061E08DE00E947E1361E08BE00C947E133E
:1014F000811103C08CB5806202C08CB58F7D8CBD1C
:1015000008959CB5937F982B9CBD08952CB5982F7A
:1015100093702C7F922B9CBD9DB582FB882780F910
:101520009E7F982B9DBD0895089508958F929F9258
:10153000AF92BF92CF92DF92EF92FF920F931F93E1
:101540004A015B016801790120E030E040E85FE397
:10155000C701B6010E94EF13A70196010E9457141C
:101560000E943E169058A50194010E9457141F91A5
:101570000F91FF90EF90DF90CF90BF90AF909F9032
:101580008F900C94C414CF92DF92EF92FF920F933E
:101590001F93CF93DF93EC01488F598F6A8F7B8F16
:1015A000C8A8D9A8EAA8FBA897018601BFDF9B01BC
:1015B000AC016CA37DA38EA39FA3F7FAF094F7F878
:1015C000F09460E070E080E89FE30E94EE139B01DE
:1015D000AC01C701B6010E94B1166CAF7DAF8EAFF2
:1015E0009FAFDF91CF911F910F91FF90EF90DF9010
:1015F000CF9008958F929F92AF92BF92CF92DF9239
:10160000EF92FF920F931F93CF93DF93EC014C8BDC
:101610005D8B6E8B7F8BC8A8D9A8EAA8FBA8970121
:10162000860184DF4B015C0168A379A38AA39BA395
:10163000A701960168A579A58AA59BA50E94EE132E
:101640006B017C01A501940160E070E080E89FE3FC
:101650000E94EE139B01AC01C701B6010E94B116B6
:1016600068AF79AF8AAF9BAFDF91CF911F910F9198
:10167000FF90EF90DF90CF90BF90AF909F908F90B2
:1016800008958F929F92AF92BF92CF92DF92EF9286
:10169000FF920F931F93CF93DF93EC01488B598BED
:1016A0006A8B7B8BCCA4DDA4EEA4FFA497018601FA
:1016B0003DDF4B015C016C8F7D8F8E8F9F8F20E013
:1016C00030E040E85FE3C701B6010E94EF136B0111
:1016D0007C01A501940160E070E080E89FE30E9436
:1016E000EE139B01AC01C701B6010E94B1166CABB1
:1016F0007DAB8EAB9FABDF91CF911F910F91FF9090
:10170000EF90DF90CF90BF90AF909F908F90089513
:10171000CF92DF92EF92FF92CF93DF93EC01CB0158
:10172000BA0168A779A78AA79BA728A939A94AA9B6
:101730005BA90E94EE136B017C0128A139A14AA18B
:101740005BA160E070E080E89FE30E94EE139B01E4
:10175000AC01C701B6010E94B11668AF79AF8AAF7C
:101760009BAFDF91CF91FF90EF90DF90CF900895E6
:10177000CF92DF92EF92FF92CF93DF93EC011B8227
:101780001A821C861D861E861F8640E050E0BA0124
:1017900078DF40E050E0BA01CE012CDF40E050E0BD
:1017A000BA01CE01F0DE40E050E060E87FE3CE0118
:1017B000AFDF8AE999E9A9E9BEE38CA79DA7AEA7A7
:1017C000BFA72C8D3D8D4E8D5F8D60E070E080E871
:1017D0009FE30E94EE1326E636E646EA5FE30E94A8
:1017E000B1166CAB7DAB8EAB9FAB87E197EBA1EDF8
:1017F000B8E388AB99ABAAABBBAB9C01AD0168A5C4
:1018000079A58AA59BA5EAD76B017C0128A139A1FE
:101810004AA15BA160E070E080E89FE3DFD79B0115
:10182000AC01C701B6010E94B11668AF79AF8AAFAB
:101830009BAF2CA13DA14EA15FA160E070E080E8CC
:101840009FE3CCD727E137EB41ED58EB0E94B1166F
:101850006CAF7DAF8EAF9FAF1982DF91CF91FF90BC
:10186000EF90DF90CF900895CF92DF92EF92FF92AA
:10187000CF93DF93EC016A017B012FE530E749E864
:1018800050E3C701B6010E94531487FF08C08FE5DB
:10189000C82E80E7D82E89E8E82E80E3F82ECCA663
:1018A000DDA6EEA6FFA620E030E040E85FE3C7013A
:1018B000B60195D76B017C012C8D3D8D4E8D5F8DD2
:1018C00060E070E080E89FE389D79B01AC01C7012D
:1018D000B6010E94B1166CAB7DAB8EAB9FABDF91B6
:1018E000CF91FF90EF90DF90CF9008958F929F92CD
:1018F000AF92BF92CF92DF92EF92FF92CF93DF939E
:10190000EC016A017B012FE530E749E850E3C701AC
:10191000B601C9D787FF08C09FE5C92E90E7D92E29
:1019200099E8E92E90E3F92EC8AAD9AAEAAAFBAA57
:10193000A701960168A579A58AA59BA54FD74B015C
:101940005C0128A139A14AA15BA160E070E080E8B8
:101950009FE344D79B01AC01C501B4010E94B116BD
:1019600068AF79AF8AAF9BAFF7FAF094F7F8F094CD
:101970002CA13DA14EA15FA160E070E080E89FE353
:101980002DD79B01AC01C701B6010E94B1166CAF07
:101990007DAF8EAF9FAFDF91CF91FF90EF90DF9043
:1019A000CF90BF90AF909F908F900895FC0161837E
:1019B000089508954F928F929F92AF92BF92CF92C7
:1019C000DF92EF92FF920F931F93CF93DF93EC017F
:1019D000962EFC01EE5AFF4F6083FC01EB5BFF4F3C
:1019E0004080642D70E080E090E0FE01E85BFF4FF6
:1019F0002081318189011F921F921F932F93A12C67
:101A0000B12C6501A394E12CF12C8701EA9420E02C
:101A100030E0A9017FD58B01FE01E05BFF4F7183B0
:101A200060830F900F900F900F908A81882309F4A4
:101A300074C02EE12915C0F17E01E90CF11CF701FB
:101A4000648170E080E090E0FCD74B015C01F7011D
:101A5000638170E080E090E0F4D7E980F8E0EF9EE9
:101A6000700111242EE236E0E20EF31E2FB7F89437
:101A7000F70160837183828393832FBF208131813B
:101A800042815381C501B401A9D64B015C01B80163
:101A900080E090E0D6D79B01AC01C501B40107D727
:101AA000AB01BC01F70135C06B8170E080E090E0D4
:101AB000C8D76B017C01FE01E90DF11D638170E067
:101AC00080E090E0BED78980F8E08F9E400111242D
:101AD0002EE236E0820E931E2FB7F894F401608355
:101AE0007183828393832FBF20813181428153810F
:101AF000C701B60173D66B017C01B80180E090E0AC
:101B0000A0D79B01AC01C701B601D1D6AB01BC0186
:101B1000F4014483558366837783C25BDF4F198268
:101B20001882DF91CF911F910F91FF90EF90DF907E
:101B3000CF90BF90AF909F908F904F90089520E0EE
:101B400030E040E050E0FC01E20FF31F63A1460FDC
:101B5000511D2F5F3F4F20323105A9F7CA0155E0D3
:101B6000969587955A95E1F708951F93CF93DF9344
:101B7000FC012281222309F43FC0E25BFF4F208158
:101B80003181DC01A05BBF4F4D915C91241735077B
:101B900028F52F5F3F4F31832083FC01C181F8E09E
:101BA000CF9FE0011124C25DD94F1FB7F8942C815B
:101BB0003D814E815F81688179818A819B810FD6C9
:101BC000AB01BC01488359836A837B831FBF688153
:101BD00079818A819B8109D7862F19C0FC01EE5A31
:101BE000FF4F20812F3119F4FC01838110C0FC01CB
:101BF000E20FF11D84810BC0FC01EA5BFF4F2081E5
:101C00003181232B89F3DF91CF911F9198CFDF9101
:101C1000CF911F910895FC011182108217868FEFDA
:101C2000848381E090E096838583178280E8808BAF
:101C30001286118616861586128A128213820895DC
:101C4000FC0174876387089550E0DC011B96ED91D9
:101C5000FC911C976E9F90016F9F300D1124232FD4
:101C60003327421B530B1A965C934E931997089592
:101C70001F93CF93DF93EC018D859E858617970781
:101C800040F089859A852B853C85820F931F9A8722
:101C900089877E876D8789859A85681B790B962F42
:101CA0006B857C8580E00E943D17162F8889262F42
:101CB000281B8F85281710F489895DC0688B88815F
:101CC00099818230910561F58B899C89821B9109EC
:101CD0009C8B8B8B1816190654F067E080E070D04F
:101CE00083508A8B6EE18FE06BD08B8B1C8A8D8149
:101CF0009E81019789F44A892989842F992787FD34
:101D00009095820F911D2C8130E02817390714F02F
:101D100097FF02C041954A8B89899A89890F10C023
:101D2000009719F0019769F402C0698B0AC067FD3A
:101D300002C0862F04C08FEF90E0861B9109880FA8
:101D4000898B89894C81481770F42D813E81642FDD
:101D50000E943117232B09F405C080FF03C0491BE3
:101D6000498B01C0998B8A8199898927898B9B81AD
:101D7000912309F080E0DF91CF911F910895209188
:101D8000180130911901C9019695982F88279795C8
:101D90008795822793279C01232F33272695269505
:101DA000269528273927C901880F991F880F991F61
:101DB000822793279093190180931801892F089502
:101DC0001F93CF93DF93182FC62FD0E0C81BD109E4
:101DD0002196D5DF8E3F20F4D2DF282F30E002C0DD
:101DE0002EEF30E02C9FA0012D9F500D3C9F500DF9
:101DF0001124812F850FDF91CF911F9108958EE5DA
:101E000096E021C18EE596E070C1462F62E08EE536
:101E100096E01FC1462F64E08EE596E01AC1625E2F
:101E20008EE596E016C1EF92FF920F931F93CF932A
:101E3000DF931F92CDB7DEB77C010AE010E08EE59C
:101E400096E018D1882309F4B6C08EE596E047D114
:101E5000282F8EE596E0298345D1482F298124300B
:101E600049F138F42230D1F0F8F4213009F045C0BE
:101E700008C0263059F120F1273071F12830E9F5FA
:101E800031C0813029F08EE596E0498331D1498116
:101E9000D7011296ED91FC91139729C0D7011496A2
:101EA000ED91FC91159723C0D7011696ED91FC9109
:101EB00017971DC0D7011896ED91FC91199717C07F
:101EC000D7011A96ED91FC911B9711C0D7011C9672
:101ED000ED91FC911D970BC0D7011E96ED91FC91E1
:101EE0001F9705C0D7015096ED91FC9151973097FF
:101EF00009F4A5CF842F0995A2CF822F8A508A306A
:101F000030F4D7015296ED91FC9153973BC0822F4C
:101F100084518A3030F4D7015496ED91FC91559755
:101F200031C0822F8E518A3030F4D7015696ED9110
:101F3000FC91579727C0822F88528A3030F4D701FE
:101F40005896ED91FC9159971DC0822F82538A308B
:101F500030F4D7015A96ED91FC915B9713C0822F14
:101F60008C538A3030F4D7015C96ED91FC915D97EB
:101F700009C0822F86548A3058F4D7015E96ED91BD
:101F8000FC915F97309709F45ACF642F099557CF8A
:101F9000243608F454CFD7019096ED91FC91919797
:101FA000309709F44CCF822F90E084569109B80104
:101FB00078D7099544CF0F90DF91CF911F910F9162
:101FC000FF90EF900895FC01738362830895FC01F4
:101FD000758364830895FC01778366830895FC010B
:101FE000718760870895FC01738762870895FC01FB
:101FF000758764870895FC01778766870895FC01DB
:10200000718B608B0895FC01738B628B0895FC01CA
:10201000758B648B0895FC01778B668B0895FC01AA
:10202000718F608F0895FC01738F628F0895FC019A
:10203000758F648F0895FC01778F668F0895FC017A
:1020400071A360A30895AB0160E070E081E696E0C3
:1020500064C1CF93DF931F92CDB7DEB781E696E0E0
:102060004983A9D04981642F81E696E00F90DF91E2
:10207000CF91A1C0CF93DF93EC0181E696E03DD0F4
:10208000892B39F18A8181110EC081E696E064D0F6
:10209000888391E09A83893031F48981893019F4F9
:1020A0001A82188219828A81813091F481E696E041
:1020B00024D0892B71F081E696E04ED089831A8274
:1020C0009881993041F4893031F41882198203C023
:1020D00003C080E001C081E0DF91CF910895FC0151
:1020E00080810895FC018181089549E069E0B1CFC4
:1020F000FC011282108211820895FC01848595856D
:10210000FC01E05CFF4F20813181FC01EE5BFF4F61
:1021100080819181281B390B2F733327C9010895C2
:10212000FC0184859585FC01E05CFF4F4081518175
:10213000FC01EE5BFF4F208131814217530741F0D4
:102140000190F081E02DE80FF91F208130E002C0FE
:102150002FEF3FEFC9010895FC0184859585FC01AF
:10216000E05CFF4F40815181FC01EE5BFF4F20811D
:1021700031814217530781F0A081B181A80FB91FA7
:102180008C91208131812F5F3F4F2F733327318313
:102190002083282F30E002C02FEF3FEFC9010895C0
:1021A000FC0181A1882329F0A489B5898C9186FF3F
:1021B000FBCF11A20895CF93DF93FC0126853785CD
:1021C000D901A05CBF4F8D919C91119701968F739F
:1021D0009927E901CE5BDF4F488159818417950724
:1021E000D9F30D90BC91A02DA20FB31F6C93A685BF
:1021F000B785A05CBF4F11969C938E93A689B78933
:102200002C9181E090E0078C02C0880F991F0A94FE
:10221000E2F7282B2C9381E081A30488F589E02D37
:1022200080818064808381E090E0DF91CF91089588
:102230001F920F920FB60F9211242F933F934F933B
:102240008F939F93EF93FF938091C00082FD1CC0FA
:102250004091C600809107079091080701968F73FF
:1022600099272091090730910A078217930771F087
:10227000E0910707F0910807E953F94F40839093E5
:1022800008078093070702C08091C600FF91EF9175
:102290009F918F914F913F912F910F900FBE0F9073
:1022A0001F9018951F920F920FB60F9211242F9323
:1022B0003F938F939F93EF93FF932091C3063091A9
:1022C000C4068091C5069091C6062817390731F4D7
:1022D0008091C1008F7D8093C10014C0E091C5063C
:1022E000F091C606ED57F94F20818091C506909177
:1022F000C60601968F7399279093C6068093C506EC
:102300002093C600FF91EF919F918F913F912F9164
:102310000F900FBE0F901F901895CF92DF92EF9203
:10232000FF92CF93DF93EC016A017B01411581EEAF
:10233000580761057105F1F0EC89FD8981E090E0B5
:1023400008A002C0880F991F0A94E2F7808360E01A
:1023500079E08DE390E0A7019601B6D521503109CF
:10236000410951095695479537952795211580E1E3
:10237000380790F0EC89FD89108260E874E88EE1FE
:1023800090E0A7019601A0D52150310941095109DA
:102390005695479537952795E889F9893083EA89D5
:1023A000FB89208319A2EE89FF89408181E090E0BA
:1023B0009C010C8C02C0220F331F0A94E2F7422BBF
:1023C0004083EE89FF8940819C010D8C02C0220F61
:1023D000331F0A94E2F7422B4083EE89FF89408144
:1023E0009C010E8C02C0220F331F0A94E2F7422B8D
:1023F0004083EE89FF8920810F8C02C0880F991FCE
:102400000A94E2F7809582238083DF91CF91FF9039
:10241000EF90DF90CF9008951092640610926306BB
:1024200088EE93E0A0E0B0E08093650690936606A6
:10243000A0936706B093680680E791E090936206E8
:102440008093610687EC96E090936E0680936D060C
:1024500083E896E09093700680936F0685EC90E099
:10246000909372068093710684EC90E090937406CA
:102470008093730680EC90E09093760680937506C7
:1024800081EC90E0909378068093770682EC90E060
:1024900090937A068093790686EC90E090937C0680
:1024A00080937B0684E080937D0683E080937E06A4
:1024B00087E080937F0685E08093800681E08093AB
:1024C00081060895CF92DF92EF92FF920F931F93B0
:1024D000CF93DF936C01EB017A01E60EF71E00E06B
:1024E00010E00BC06991D601ED91FC910190F08153
:1024F000E02DC6010995080F191FCE15DF0591F7CC
:10250000C801DF91CF911F910F91FF90EF90DF9065
:10251000CF9008954F925F926F927F92AF92BF9249
:10252000CF92DF92EF92FF920F931F93CF93DF939F
:10253000CDB7DEB729013A01621B730B840B950BF3
:1025400029893A894B895C892A193B094C095D091B
:10255000298B3A8B4B8B5C8B9B01AC0169897A8907
:102560008B899C896FD4E418F50806091709A8011E
:102570009701CCD42A0D3B1D4C1D5D1DB901CA012C
:10258000DF91CF911F910F91FF90EF90DF90CF904F
:10259000BF90AF907F906F905F904F9008951F9283
:1025A0000F920FB60F9211242F933F938F939F9307
:1025B000AF93BF9380910B0790910C07A0910D07EB
:1025C000B0910E0730911307232F2D5F2D3720F484
:1025D0000196A11DB11D05C0232F2A570296A11DEA
:1025E000B11D2093130780930B0790930C07A093C2
:1025F0000D07B0930E0780910F0790911007A091DF
:102600001107B09112070196A11DB11D80930F070C
:1026100090931007A0931107B0931207BF91AF9149
:102620009F918F913F912F910F900FBE0F901F9010
:102630001895789484B5826084BD84B5816084BD2A
:1026400085B5826085BD85B5816085BDEEE6F0E02B
:10265000808181608083E1E8F0E010828081826087
:102660008083808181608083E0E8F0E08081816008
:102670008083E1EBF0E0808184608083E0EBF0E038
:10268000808181608083EAE7F0E0808184608083DC
:102690008081826080838081816080838081806886
:1026A00080831092C1000895833069F028F481304E
:1026B000A1F0823011F514C08630B1F08730C1F03E
:1026C0008430D9F404C0809180008F7703C080915A
:1026D00080008F7D80938000089584B58F7702C03D
:1026E00084B58F7D84BD08958091B0008F7703C03D
:1026F0008091B0008F7D8093B0000895CF93DF93D9
:1027000090E0FC01E250FF4F4491FC01EE5EFE4F71
:102710008491882341F190E0880F991FFC01E05DCE
:10272000FE4F25913491D9018A5D9E4FFC01859120
:102730009491C82FD92F9FB7F8948C91611106C03E
:10274000409584238C938881842308C0623041F4AF
:10275000242F209582238C938881842B888302C028
:10276000842B8C939FBFDF91CF9108950F931F937C
:10277000CF93DF931F92CDB7DEB7282F30E0F9015A
:10278000E651FF4F8491F901E250FF4F1491F90196
:10279000EE5EFE4F04910023C9F0882319F069838F
:1027A00083DF6981E02FF0E0EE0FFF1FEA5DFE4F4F
:1027B00085919491DC019FB7F8948C91611103C0CD
:1027C0001095812301C0812B8C939FBF0F90DF91C7
:1027D000CF911F910F910895F894CFC35058BB2704
:1027E000AA270ED0CBC1BCD130F0C1D120F031F43A
:1027F0009F3F11F41EF48CC10EF4E095E7FB82C1FB
:10280000E92FCDD180F3BA176207730784079507C4
:1028100018F071F49EF5E5C10EF4E0950B2EBA2F79
:10282000A02D0B01B90190010C01CA01A0011124D6
:10283000FF27591B99F0593F50F4503E68F11A1682
:10284000F040A22F232F342F4427585FF3CF469513
:1028500037952795A795F0405395C9F77EF41F1635
:10286000BA0B620B730B840BBAF09150A1F0FF0FFF
:10287000BB1F661F771F881FC2F70EC0BA0F621FEB
:10288000731F841F48F4879577956795B795F795DB
:102890009E3F08F0B3CF9395880F08F09927EE0F6D
:1028A0009795879508950AD108F481E008950CD092
:1028B00065C15DD140F054D130F021F45F3F19F093
:1028C00021C151118FC124C16AD198F39923C9F351
:1028D0005523B1F3951B550BBB27AA276217730726
:1028E000840738F09F5F5F4F220F331F441FAA1FDA
:1028F000A9F333D00E2E3AF0E0E830D0915050409A
:10290000E695001CCAF729D0FE2F27D0660F771F47
:10291000881FBB1F261737074807AB07B0E809F029
:10292000BB0B802DBF01FF2793585F4F2AF09E3FBE
:10293000510568F0E7C056C15F3FECF3983EDCF309
:10294000869577956795B795F7959F5FC9F7880F37
:10295000911D9695879597F90895E1E0660F771F89
:10296000881FBB1F621773078407BA0720F0621B1A
:10297000730B840BBA0BEE1F88F7E095089519F4DA
:102980000EF0C0C02EC1C4C012D1C8F39638C0F733
:1029900007F80F92E8942BE33AEA48EB5FE7EFD1B0
:1029A0000F920F920F924DB75EB70F92A7D1E8E644
:1029B000F0E0B1D04F915F91EF91FF91E595EE1F5F
:1029C000FF1F49F0FE57E0684427EE0F441FFA95B9
:1029D000E1F74195550B19D10F9007FE0DC10895F0
:1029E00004D06894B111FEC00895E1D088F09F57DB
:1029F00090F0B92F9927B751A0F0D1F0660F771F4B
:102A0000881F991F1AF0BA95C9F712C0B13081F02A
:102A1000E8D0B1E00895E5C0672F782F8827B85F28
:102A200039F0B93FCCF3869577956795B395D9F78B
:102A30003EF490958095709561957F4F8F4F9F4F95
:102A40000895E89409C097FB3EF4909580957095A1
:102A500061957F4F8F4F9F4F9923A9F0F92F96E9EA
:102A6000BB279395F695879577956795B795F1115F
:102A7000F8CFFAF4BB0F11F460FF1BC06F5F7F4FFC
:102A80008F4F9F4F16C0882311F096E911C077230E
:102A900021F09EE8872F762F05C0662371F096E817
:102AA000862F70E060E02AF09A95660F771F881FE6
:102AB000DAF7880F9695879597F90895990F00088A
:102AC000550FAA0BE0E8FEEF16161706E807F90700
:102AD000C0F012161306E407F50798F0621B730B9B
:102AE000840B950B39F40A2661F0232B242B252B1C
:102AF00021F408950A2609F4A140A6958FEF811DBF
:102B0000811D089597F99F6780E870E060E008955F
:102B10009FEF80EC0895DF93CF931F930F93FF9265
:102B2000EF92DF927B018C01689405C0DA2EEF01F1
:102B300024D1FE01E894A5912591359145915591B7
:102B4000AEF3EF015DDEFE019701A801DA9479F79B
:102B5000DF90EF90FF900F911F91CF91DF9108953B
:102B600000240A941616170618060906089500246C
:102B70000A9412161306140605060895092E0394E6
:102B8000000C11F4882352F0BB0F40F4BF2B11F45A
:102B900060FF04C06F5F7F4F8F4F9F4F089557FDB9
:102BA0009058440F551F59F05F3F71F04795880FBB
:102BB00097FB991F61F09F3F79F087950895121652
:102BC00013061406551FF2CF4695F1DF08C01616FE
:102BD00017061806991FF1CF8695710561050894AF
:102BE0000895E894BB2766277727CB0197F90895C6
:102BF00065DF08F48FEF08959B01AC0160E070E0A1
:102C000080E89FE354CE7ECF0FC1D1DFE8F3992354
:102C1000D9F3940F511DBBF39150504094F059F0EB
:102C2000882332F0660F771F881F91505040C1F7FC
:102C30009E3F510544F7880F911D9695879597F90A
:102C400008955F3FACF0983E9CF0BB278695779542
:102C50006795B79508F4B1609395C1F7BB0F58F726
:102C600011F460FFE8CF6F5F7F4F8F4F9F4FE3CF2F
:102C7000B9CF0EF0D9C04CCF689444CF98DFC8F3D9
:102C80009923D1F3C6F3DF93CF931F930F93FF9252
:102C9000C92FDD2788232AF02197660F771F881F09
:102CA000DAF720E030E040E85FEB9FE3883920F07E
:102CB000803E30F021968F7792DDE0E9F0E003C0AE
:102CC0008EDDEDEBF0E027DF8B01BE01EC01FB2E8A
:102CD0006F5771097595771F880B990BB4DE28E142
:102CE00032E741E35FE349D0AF2D9801AE01FF9099
:102CF0000F911F91CF91DF9183DD40CFFA01DC016D
:102D0000AA0FBB1F9B01AC01BF5728F42227332712
:102D1000442750781FC0B75188F4AB2F0024469544
:102D200037952795011CA395D2F3002069F0220F57
:102D3000331F441FB395DAF30DD050CD61307105C8
:102D4000A0E88A07B94630F49B01AC0166277727D3
:102D500088279078309621F02083318342835383F3
:102D600008950BD00BCFFCDE28F001DF18F095237F
:102D700009F0C8CECDCE112435CF11DFA0F3959F39
:102D8000D1F3950F50E0551F629FF001729FBB2752
:102D9000F00DB11D639FAA27F00DB11DAA1F649FFE
:102DA0006627B00DA11D661F829F2227B00DA11DB1
:102DB000621F739FB00DA11D621F839FA00D611D37
:102DC000221F749F3327A00D611D231F849F600D58
:102DD000211D822F762F6A2F11249F5750408AF091
:102DE000E1F088234AF0EE0FFF1FBB1F661F771F1D
:102DF000881F91505040A9F79E3F510570F082CE38
:102E0000F1CE5F3FECF3983EDCF3869577956795BE
:102E1000B795F795E7959F5FC1F7FE2B880F911D3A
:102E20009695879597F908959F3F31F0915020F43A
:102E3000879577956795B795880F911D9695879596
:102E400097F90895DB018F939F937BD0BF91AF914A
:102E5000A29F800D911DA39F900DB29F900D1124F4
:102E60000895991B79E004C0991F961708F0961BE6
:102E7000881F7A95C9F780950895AA1BBB1B51E15D
:102E800007C0AA1FBB1FA617B70710F0A61BB70BDA
:102E9000881F991F5A95A9F780959095BC01CD017F
:102EA000089597FB072E16F4009406D077FD08D0FE
:102EB000E4DF07FC05D03EF4909581959F4F08957F
:102EC000709561957F4F0895A1E21A2EAA1BBB1B36
:102ED000FD010DC0AA1FBB1FEE1FFF1FA217B307E6
:102EE000E407F50720F0A21BB30BE40BF50B661FFC
:102EF000771F881F991F1A9469F7609570958095C0
:102F000090959B01AC01BD01CF010895052E97FB63
:102F100016F4009406D057FD0CD0D6DF07FC09D07C
:102F20007EF490958095709561957F4F8F4F9F4F60
:102F3000089550954095309521953F4F4F4F5F4FE5
:102F400008950FD0A59F900DB49F900DA49F800D64
:102F5000911D11240895EE0FFF1F0590F491E02DAF
:102F60000994A29FB001B39FC001A39F01D0B29F5B
:102F7000700D811D1124911D089511E0C0E4D1E070
:102F800003C0FE01EADF2296C234D107D1F7F894DC
:022F9000FFCF71
:102F92000100000000003F007F00BF00FF000A00A8
:102FA200F401E803B80B10272A0004000300020012
:102FB20001000200030004000600080010001800CF
:102FC20020003000400080000001000000000209E3
:102FD200FF08030905090609070908090A090B0977
:102FE2000C09F50812090D090F091009110905014B
:102FF20003040002030F0701050D090B0000000086
:0C300200DB1062127D10AC109010D0109A
:00000001FF
