:10000000A0C00000C6C00000C4C00000C2C0000004
:10001000C0C00000BEC00000BCC000000C94DD0BDE
:10002000B8C00000B6C00000B4C00000B2C00000FC
:10003000B0C00000AEC00000ACC00000AAC000000C
:100040000C94A515A6C000000C94A7130C94E11302
:10005000A0C000009EC000009CC000009AC000002C
:1000600098C0000096C0000007634236B79BD8A72F
:100070001A39685618AEBAAB558C1D3CB7CC5763CD
:10008000BD6DEDFD753EF6177231BF000000803F7B
:1000900008000000BE922449123EABAAAA2ABECD97
:1000A000CCCC4C3E00000080BEABAAAAAA3E000009
:1000B0000000BF000000803F000000000008417801
:1000C000D3BB4387D1133D190E3CC3BD4282AD2B38
:1000D0003E68EC8276BED98FE1A93E4C80EFFFBE30
:1000E00001C4FF7F3F000000000000000007000285
:1000F00001000003040600000000000000000102EF
:1001000004081020408001020408102001020408A5
:100110001020040404040404040402020202020283
:1001200003030303030300000000250028002B0045
:1001300000000000240027002A007C0A000C9B1409
:100140008B0A11241FBECFEFD8E0DEBFCDBF11E078
:10015000A0E0B1E0E8EFF5E302C005900D92A03910
:10016000B107D9F727E0A0E9B1E001C01D92AF3295
:10017000B207E1F711E0C0E4D1E004C02297FE012C
:100180000E94E01ACA33D107C9F70E94770A0C947B
:10019000191736CF0895089508950895089508957C
:1001A000089590E0FC01E656FE4F6083FC01EC569A
:1001B000FE4F1082089590E0FC01E656FE4F20812C
:1001C000203258F433E5389FF001399FF00D1124A7
:1001D000E15DFB4FE20FF11D638323E5289FF001F2
:1001E000299FF00D1124E15DFB4F21E02283FC01EA
:1001F000EC56FE4F10820895462F682F81E296E05C
:100200000C94F30ACF93DF93D82FC62F282F30E01A
:10021000F901EC56FE4F81E0808393E5929FF00157
:10022000939FF00D1124E15DFB4F9091A701DF0139
:10023000A90FB11D13966C9382838D2FDDDF809102
:1002400004028D1305C06C2F86E0DF91CF91D4CFCF
:10025000DF91CF910895CF93DF93C82FD0E0FE01B7
:10026000EA51FE4F91E090834FEF682F81E296E0D4
:100270000E94F30AFE01EE0FFF1FEE0FFF1FE25375
:10028000FE4F8091230690912406A0912506B091FF
:10029000260680839183A283B383DF91CF91089553
:1002A000809304028FE092E00C949011611102C0DF
:1002B00040E001C04FEF682F81E296E00C94F30A12
:1002C0002F923F924F925F926F927F928F929F9266
:1002D000AF92BF92CF92DF92EF92FF920F931F9354
:1002E000CF93DF93CDB7DEB727970FB6F894DEBF75
:1002F0000FBECDBF8F83862FDA0160E070E0412C06
:10030000512C32014A94A12CB12C6501E12CF12C25
:100310008701EA9420E030E0A901E82FF0E0FE83B5
:10032000ED833197FA83E983FF812F2E312C8D8164
:100330009E810A969C838B8339C0FB01EE0FFF1FC1
:10034000EA0FFB1F808091802814390468F1FB01BB
:100350003196EE0FFF1FEA0FFB1F0190F081E02D99
:10036000E215F30508F17F0100E010E0940140E0A0
:1003700050E08D819E81860F971FBC016F5F7F4F7C
:10038000660F771F6A0F7B1FFB0140805180612C35
:10039000712CFC01EE0FFF1FEA0FFB1FA080B18044
:1003A000C12CD12C6B817C816F5F7F4F89819A81B9
:1003B0006817790714F2EF816E2F70E080E090E00B
:1003C0007F926F925F924F920E9460150F900F90F4
:1003D0000F900F9027960FB6F894DEBF0FBECDBFDB
:1003E000DF91CF911F910F91FF90EF90DF90CF9011
:1003F000BF90AF909F908F907F906F905F904F9045
:100400003F902F90089590E0FC01E853FE4F20812B
:10041000253079F0263069F02430A1F423E5289FB7
:10042000F001299FF00D1124E15DFB4F81E08283F3
:10043000089523E5289FF001299FF00D1124E15D27
:10044000FB4F12820895E82FF0E0E853FE4F6083DF
:10045000DACF3F924F925F926F927F928F929F92EC
:10046000AF92BF92CF92DF92EF92FF920F931F93C2
:10047000CF93DF93D82FF62E882E912CF401E853DA
:10048000FE4F80818530E9F0863009F493C18430D5
:1004900009F016C383E5889DF001899DF00D1124B4
:1004A000E15DFB4F81E08283EB5BFF4FD401AA0F3C
:1004B000BB1FAA0FBB1FA055BE4F11968C91808306
:1004C000FFC22401440C551C440C551CF201E0559C
:1004D000FE4FC0813180128183E5889D3001899D66
:1004E000700C11248FE294E0680E791ED3011296ED
:1004F0001C92838184FF06C06D2F81E296E00E94EA
:10050000F80AC80FF201E055FE4F838186FF06C04E
:100510006D2F81E296E00E94F80A180FF201E05573
:10052000FE4F838183FB882780F9F401E250FE4F60
:100530008083882309F483C08C2F90E024E0959574
:1005400087952A95E1F74FE050E0481B590BFA01D7
:10055000EE0FFF1FE25DFE4F20813181F401EE0FAF
:10056000FF1FEE50FE4F31832083F401E451FE4F14
:10057000443051051CF481E0808301C010828081E9
:10058000882381F140E050E06091AC017091AD01B1
:100590008091AE019091AF010E94911A65E1689D32
:1005A000C001699D900D1124B9018F5C9D4F0E947F
:1005B000A310E301C85BDF4FF401EE0FFF1FEE5005
:1005C000FE4F2081318140E050E06091AC0170919C
:1005D000AD018091AE019091AF010E94911A3983D3
:1005E000288348C08091AC019091AD01289FB00153
:1005F000299F700D389F700D112425E1289DC001A1
:10060000299D900D11248F5C9D4F0E94A310D30152
:10061000A85BBF4FF401EE0FFF1FEE50FE4F40816D
:1006200051812091AC013091AD01429FC001439FA7
:10063000900D529F900D11248D939C931BC0C095DB
:1006400048E151E065E08C2F3BDE45E1489D90019B
:10065000499D300D1124C9018F5C9D4F0E94A3104C
:1006600048E151E065E08C2F2BDEF301E85BFF4FA2
:1006700071836083F301EA5BFF4F3082118285E171
:10068000889DE001899DD00D1124CF5CDD4F60E095
:10069000CE010E94B110FF2009F412C2612F70E058
:1006A00080E090E01F921F921F9227E02F93A12CD1
:1006B000B12C6501E12CF12C8701EA9420E030E0B7
:1006C000A9010E9460150F900F900F900F9063305A
:1006D00071058105910509F44DC05CF46130710527
:1006E00081059105B1F06CF5672B682B692B71F0D2
:1006F000E7C16530710581059105E1F1C4F166300E
:1007000071058105910509F0DBC13BC060E070E037
:1007100002C061E070E0CE010E94A71060E0CE014F
:100720000E94AE10632DCE010E94AB1060E0CE019E
:100730000E94B1101092A601F401E056FE4F108203
:10074000BFC160E070E0CE010E94A71060E0CE0162
:100750000E94AE10632D6695CE010E94B1106FEF1E
:10076000CE010E94AB1081E08093A601E5CF61E04D
:1007700070E002C060E070E0CE010E94A71060E16E
:10078000CECFF201E055FE4F82818E3F20F081E016
:10079000F301808302C0D3011C9262E070E0CE01BD
:1007A0000E94A710F401E056FE4F81E08083109272
:1007B000A60186C183E5889DF001899DF00D112475
:1007C000E15DFB4F12828401000F111F000F111F0A
:1007D000F801E055FE4F8381F401E250FE4F83FBA8
:1007E000992790F99083E401A6E0CC0FDD1FAA952C
:1007F000E1F7B3E06B1322C0EFEA6E2EE2E07E2E4B
:100800006C0E7D1E81FF0CC040E050E068EC72E48D
:10081000C3010E94DC0D40E050E068EC72E40BC0C4
:1008200040E050E060E07FE3C3010E94DC0D4AE05D
:1008300057ED63E27CE3C3010E94200EF401E25015
:10084000FE4F8081882309F4C4C0F801E055FE4FB3
:100850004081842E912C64E0959487946A95E1F709
:10086000D401AA0FBB1FA25DBE4F4C90F11018C05F
:100870006091AC017091AD018091AE019091AF019A
:10088000242D30E040E050E0E3E08E1691042CF49B
:100890000E94911ACA01B901D6C00E944F1AD3C052
:1008A00022E0F2125EC0828190E044E09595879547
:1008B0004A95E1F7EFE0F0E0E81BF90BEE0FFF1FC0
:1008C000E25DFE4F40806091AC017091AD0180917E
:1008D000AE019091AF01512C612C712CA3E08A16CE
:1008E000910414F53FEA832E32E0932E8C0E9D1E68
:1008F000A30192010E94911ACA01B9010E944E18E7
:10090000AB01BC01C4010E949F0C6091AC017091CD
:10091000AD018091AE019091AF01A30192010E94BF
:10092000911ACA01B901BAC02FEA822E22E0922E92
:100930008C0E9D1EA30192010E944F1A0E944E1818
:10094000AB01BC01C401FBD76091AC017091AD015A
:100950008091AE019091AF01A30192010E944F1AC4
:100960009DC0B1E0FB12A0C0A181B0E0F4E0B5955C
:10097000A795FA95E1F7EFE0F0E0EA1BFB0BEE0F2D
:10098000FF1FE25DFE4F20816091AC017091AD01CF
:100990008091AE019091AF0130E040E050E01397BC
:1009A00074F4EFEA8E2EE2E09E2E8C0E9D1E0E94C5
:1009B000911AF401208731874287538775C0FE0161
:1009C000E155FD4F0E944F1A608771878287938798
:1009D0006BC0F1E0FF122DC08FEA882E82E0982EC6
:1009E0008C0E9D1E90EB692E91E0792E600E711E8B
:1009F000D30111966C9170E080E090E00E944E1857
:100A000020E030E04FE753E40E948417AB01BC01C3
:100A1000C4010E942D0D44E051E065E0F3018181A5
:100A20004FDCD40118966D937D938D939C931B9707
:100A30003BC0F11011C0F801E055FE4F44E051E019
:100A400065E080813DDC0E944E18AB01BC01CE0107
:100A500081559D4FBBD728C0B2E0FB1225C0A0EB4B
:100A60006A2EA1E07A2E600E711E44E051E065E02E
:100A7000F301828125DCBFEA8B2EB2E09B2E8C0E27
:100A80009D1E0E944E18AB01BC01C40158D744E022
:100A900051E065E0D30112968C9112DC0E944E1851
:100AA000AB01BC01C40114D7F801E055FE4F8381AE
:100AB000C155DD4F80FF03C081E0888301C01882EB
:100AC000DF91CF911F910F91FF90EF90DF90CF902A
:100AD000BF90AF909F908F907F906F905F904F905E
:100AE0003F900895DF92EF92FF920F931F93CF9361
:100AF000DF938091230690912406A0912506B09162
:100B000026064091A8015091A9016091AA01709117
:100B1000AB018C019D01041B150B260B370B0093B9
:100B2000AC011093AD012093AE013093AF018093DF
:100B3000A8019093A901A093AA01B093AB01809161
:100B4000A7018F3120F48F5F8093A70102C010921C
:100B5000A70180919201909193018F3F910509F037
:100B600030F40196909393018093920104C0109207
:100B7000930110929201E0910402F0E0E853FE4FDD
:100B80008081843031F46091A7018FE092E00E946F
:100B9000931102EF11E038ECE32E31E0F32EC0E0C8
:100BA000D0E043E5D42E8091040290E08C179D079D
:100BB000D1F4FE01E853FE4F80818430A1F0FE01A4
:100BC000E250FE4F8081882371F0809192019091D4
:100BD000930183709927892B31F46091A7018FE0ED
:100BE00092E00E949311F70181917F018430A9F472
:100BF000DC9EC001DD9E900D1124815D9B4FFC01A8
:100C0000E85BFF4F2091AC013091AD01318320832F
:100C10006091A7010E94880E2CC0FE01E250FE4F99
:100C20008081882331F1FE01E451FE4F80818111E2
:100C30000BC08091920190919301F80160817181C4
:100C40000E946A1A892BA9F4DC9EC001DD9E900DDA
:100C50001124815D9B4F0E94870ECE0126E0880FF4
:100C6000991F2A95E1F781559D4F04D660E08C2F9E
:100C7000F0DB21960E5F1F4FC630D10509F093CFF0
:100C8000DF91CF911F910F91FF90EF90DF9008952A
:100C900094E0899FF0011124E60FF11DE055FE4F0D
:100CA0004083D7CBEF92FF920F931F93CF93DF93A5
:100CB00060E076E98FE092E00E948D116AEC70E0CE
:100CC0008FE092E00E9472126BEC70E08FE092E095
:100CD0000E9476126CEC70E08FE092E00E947A1233
:100CE0006BE271E08FE092E00E947E126DEC70E0AA
:100CF0008FE092E00E9482126EEC70E08FE092E052
:100D00000E9486126FEC70E08FE092E00E948A12DF
:100D100060E571E08FE092E00E948E1260ED70E07D
:100D20008FE092E00E94921266E571E08FE092E01F
:100D30000E9496126CEF70E08FE092E00E949A128F
:100D400061ED70E08FE092E00E949E126BED70E02A
:100D50008FE092E00E94A21262E071E08FE092E0E8
:100D60000E94A61263E272E08FE092E00E94AA1253
:100D700068E476E08FE092E00E94AE1262E775E0F0
:100D800081E296E0D7D400E010E065E1E62E73E55D
:100D9000F72EE80156E0CC0FDD1F5A95E1F7C1555B
:100DA000DD4F40E050E06AE774E4CE010FD640E04A
:100DB00050E06AEF74E4CE01C2D540E050E86BE346
:100DC00075E4CE0185D540E050E060E07FE3CE01E0
:100DD00044D640E050E060E07FE3CE01EDD64AE04B
:100DE00057ED63E27CE3CE012BD7E09EE001E19E6C
:100DF000D00D1124CF5CDD4FCE010E948E1064EF28
:100E000071E0CE010E94A310F09EC001F19E900DF2
:100E10001124602F815D9B4F77D70F5F1F4F0630E6
:100E2000110509F0B6CF8091230690912406A09178
:100E30002506B09126068093050290930602A093A2
:100E40000702B0930802DF91CF911F910F91FF909D
:100E5000EF9008952F923F924F925F926F927F9200
:100E60008F929F92AF92BF92CF92DF92EF92FF92BA
:100E70000F931F93CF93DF93CDB7DEB72D970FB6A8
:100E8000F894DEBF0FBECDBF28EC31E0398728874C
:100E900086EE91E09A838983B9E0EB2EB2E0FB2ED7
:100EA00013EBC12E11E0D12E01E4602E06E0702E6E
:100EB000E1EBF1E0FC83EB832EEC31E03E832D830C
:100EC00000E010E01F82212C312C80E8482E8FE3B7
:100ED000582EE885F9852191F987E887243009F4AF
:100EE0005BC030F4213059F0233009F028C240C0F3
:100EF000253009F460C0263009F021C2CDC0B02EE3
:100F0000602F81E296E02D8773D32D85813408F41C
:100F100068C2F7018081811164C25CC2F7018081DF
:100F2000811167C2E981FA818081811101C007C204
:100F30008091230690912406A0912506B091260663
:100F4000ED81FE814081518162817381841B950B0B
:100F5000A60BB70B4597A105B10508F4F0C1E981CF
:100F6000FA81108240E06B2D81E296E03CD3E7C12C
:100F7000602F81E296E03CD3F3019081891709F458
:100F8000DEC1602F81E296E033D3482F602F8FE0DF
:100F900092E00E949D11D3C1F801EC56FE4F808172
:100FA0008111CDC1F3E5F09FC001F19F900D112497
:100FB000815D9B4F47C0F601808184FF0BC0602F8D
:100FC00081E296E015D3F3019081891719F060E072
:100FD000802F3FDAF6018081EB81FC818080912CAB
:100FE00085FF0EC0602F81E296E002D3880E911C2F
:100FF000FFEF8F16910421F018F088248A94912C29
:10100000F601808186FF0BC0602F81E296E0F0D26E
:10101000F3019081891719F062E0802F1ADAF80144
:10102000E056FE4F8081882381F0F3E5F09F500168
:10103000F19FB00C11242FE234E0A20EB31EC501C3
:101040007FD7C5010E94381024C060919001709133
:10105000910135E1309FC001319F900D11248F5CCB
:101060009D4F0E94B410B82E8091A601882391F064
:101070008B2D90E0F5E096948794FA95E1F7082C93
:1010800002C0959587950A94E2F701C0880F8A946B
:10109000EAF7B82E4B2D4EC1F60180815801E6E0EB
:1010A000AA0CBB1CEA95E1F7950121553D4F82FF43
:1010B00019C081E0F9018183902E602F81E296E0D2
:1010C0002D873C8795D22D853C85813408F494C1C9
:1010D000F7018081811190C197C1F7018081811151
:1010E0009EC11CC03B872A87F9011182902E602F78
:1010F00081E296E07DD2813408F49AC1F7018081C3
:10110000811196C18FC1F7018081811199C106C0FB
:1011100024E030E0EA85FB8533832283C5018155D5
:101120009D4F9B878A87FC01828193818230910544
:1011300009F489C034F40097C1F1019709F0EAC0BD
:101140003BC08430910509F4B0C0059709F0E2C0B6
:10115000EA85FB8584819581A681B7810196A11DD1
:10116000B11D84839583A683B783408551856285AD
:10117000738584179507A607B70784F01482158234
:10118000168217828181882319F024E030E004C0A0
:1011900022E030E0EA85FB8533832283EA85FB8504
:1011A0002486358646865786B5C0EA85FB858181CB
:1011B000882309F4AFC0A7C0EA85FB85248D358D4F
:1011C000468D578D64857585868597850E94DE19C5
:1011D000EA85FB8524A935A946A957A90E941C17B1
:1011E000862E972EA82EB92EEA85FB8584869586B5
:1011F000A686B78620E030E040E85FE30E9425192C
:1012000087FD88C0EA85FB85248635864686578615
:101210008081882349F025E030E0338322831482E3
:1012200015821682178276C0EA85FB858181882324
:1012300029F024E030E0338322836CC022E030E0E8
:10124000EA85FB85F8CFEA85FB8520A131A142A183
:1012500053A164857585868597850E94DE19EA8588
:10126000FB8520AD31AD42AD53AD0E941C17862EDB
:10127000972EA82EB92EEA85FB8584869586A686AC
:10128000B78680A491A4A2A4B3A4A50194010E944E
:10129000801718160CF43EC0EA85FB858486958677
:1012A000A686B78623E030E0C6CFEA85FB8524A179
:1012B00035A146A157A164857585868597850E94CD
:1012C000DE19EA85FB8524AD35AD46AD57AD0E94EC
:1012D0001C17862E972EA82EB92EEA85FB858486AC
:1012E0009586A686B78620E030E0A9010E94801787
:1012F000181684F0EA85FB851486158616861786EF
:101300008181882319F021E030E095CFEA85FB85C3
:101310001382128220E030E04FE753E4EA85FB8538
:1013200064857585868597850E94DE190E941D1843
:10133000462FB62E602F81E296E055D101C0B12C28
:101340008091040290E00817190709F4BF820F5F2B
:101350001F4F29813A812F5F3F4F3A8329833FEF07
:10136000E31AF30AE4E0CE0ED11CFFEF6F1A7F0AF6
:101370002B813C812C5F3F4F3C832B83ED81FE8191
:101380003496FE83ED830630110509F0A2CDFC01F1
:10139000EC56FE4F808181115DC04F8166E081E295
:1013A00096E02D960FB6F894DEBF0FBECDBFDF914D
:1013B000CF911F910F91FF90EF90DF90CF90BF9052
:1013C000AF909F908F907F906F905F904F903F90E5
:1013D0002F9009C1F7012083602F8FE092E0A8D7FA
:1013E000A1CD6B2D81E296E003D1813408F496CD36
:1013F00099CDF701108296CD692D81E296E0F8D063
:10140000813408F46ACE8ACE81E0F7018083F90145
:101410001382128214861586168617867FCEF701F0
:1014200010827CCE21E0F701208321E030E072CEF3
:10143000692D81E296E0DCD0813408F464CE6ECE72
:10144000F7011082EA85FB8582819381892B09F05F
:101450005FCE64CE2D960FB6F894DEBF0FBECDBF23
:10146000DF91CF911F910F91FF90EF90DF90CF9080
:10147000BF90AF909F908F907F906F905F904F90B4
:101480003F902F90089581E296E07FD181E296E02F
:10149000B4D081E296E000C18091230690912406A9
:1014A000A0912506B09126064091050250910602B2
:1014B000609107027091080284179507A607B70785
:1014C00099F08093050290930602A0930702B093CF
:1014D0000802809190019091910101969093910161
:1014E00080939001B7DCCFDF8FE092E02AC70E94A3
:1014F000EF15D8DBD1DFFECFCF93DF93CFEAD2E079
:10150000CE01DBD2C05CDF4F84E0CF32D807C1F719
:10151000DF91CF910895CF93DF93CFE2D4E0C05411
:10152000D109CE01A6D182E0CF3AD807C1F7DF9129
:10153000CF910895FC014281538164817581AB0193
:1015400066277727CA01089580E090E008950895FE
:1015500080E0089508950895089580E0089508951D
:101560000895089580E0089508950895089560917C
:10157000B30089E09DE370E00E946A1ACB010895F0
:1015800080E480937C00EAE7F0E080E8808380815B
:10159000876080830895ECE7F0E0908190779083F6
:1015A0009081982B908321E030E0082E01C0220F1B
:1015B0000A94EAF720937E000895EAE7F0E080813C
:1015C00080648083089580917A0082958170089567
:1015D0002091780030917900932F80E0AC01422B6C
:1015E0009A01C9010895860F911DFC014287089553
:1015F000860F911DFC01828D08950F931F93CF9349
:10160000DF93EC01E0DF882309F441C08EA18E0155
:10161000080F111DF801828D80A3DADF969587955A
:1016200096958795F801828F2EA1FE01E20FF11D9C
:1016300080A190E0328D831B910997FF03C09195A3
:10164000819591093FA141E050E060E070E0022EF9
:1016500004C0440F551F661F771F0A94D2F70297E4
:1016600014F0432B02C0409543234FA32F5F263035
:1016700010F42EA301C01EA2EEA1F0E0EE58FE4F22
:10168000808189DFDF91CF911F910F9196CFDF91FC
:10169000CF911F910F910895FC0180E081872A9AD4
:1016A000A185B0E0A858BE4F9C919EBD0DB407FE29
:1016B000FDCF9EB59185DF01A90FB11D1A969C91B2
:1016C0009EBD0DB407FEFDCF9EB52A989185DF0122
:1016D000A90FB11D1A969C911A9752969C938F5FF1
:1016E0008730E1F608950F931F93CF93DF938C011A
:1016F000C0E0D0E0F801C187EC0FFD1F1286C801E1
:10170000CBDF2196C830D105A9F7DF91CF911F918A
:101710000F910895CF93DF93EC0179D081E08DD0C4
:1017200081E099D084E092D02A981986CE01DF9189
:10173000CF91D9CF0F931F93CF93DF93EC018B0100
:10174000F89453985B9A229A219A209AE3DF18879B
:101750000F8382E08093B000E0E7F0E08081826058
:10176000808387E08093B1008FE08093B300109274
:10177000B20006DF1EA280E00EDF1FDF1FA27894FA
:10178000DF91CF911F910F9108951F93CF93DF9316
:10179000EC01EF81F885309761F019B113FB112747
:1017A00010F981E0182721F08E81811101C009957F
:1017B0001E83DF91CF911F9108951F920F920FB654
:1017C0000F9211248F939F93AF93BF93EF93FF9347
:1017D000E1E2F6E082819381A481B5810196A11DA9
:1017E000B11D82839383A483B583FF91EF91BF9151
:1017F000AF919F918F910F900FBE0F901F901895F2
:1018000082E591E09093220680932106089561E09D
:101810008AE00E948C1661E08AE00E9454168CB522
:1018200080618CBD8CB580648CBD61E08DE00E94D0
:10183000541661E08BE00C945416811103C08CB5F2
:10184000806202C08CB58F7D8CBD08959CB5937F5E
:10185000982B9CBD08952CB5982F93702C7F922BBC
:101860009CBD9DB582FB882780F99E7F982B9DBDEE
:101870000895089508958F929F92AF92BF92CF924C
:10188000DF92EF92FF920F931F934A015B01680171
:10189000790120E030E040E85FE3C701B6010E9433
:1018A0001C17A70196010E9484170E946B1990587B
:1018B000A50194010E9484171F910F91FF90EF9052
:1018C000DF90CF90BF90AF909F908F900C94F117C6
:1018D000CF92DF92EF92FF920F931F93CF93DF93FC
:1018E000EC01488F598F6A8F7B8FC8A8D9A8EAA8C6
:1018F000FBA897018601BFDF9B01AC016CA37DA310
:101900008EA39FA3F7FAF094F7F8F09460E070E0EC
:1019100080E89FE30E941B179B01AC01C701B60141
:101920000E94DE196CAF7DAF8EAF9FAFDF91CF917C
:101930001F910F91FF90EF90DF90CF9008958F92BD
:101940009F92AF92BF92CF92DF92EF92FF920F934E
:101950001F93CF93DF93EC014C8B5D8B6E8B7F8B52
:10196000C8A8D9A8EAA8FBA89701860184DF4B0183
:101970005C0168A379A38AA39BA3A701960168A52C
:1019800079A58AA59BA50E941B176B017C01A50167
:10199000940160E070E080E89FE30E941B179B01C8
:1019A000AC01C701B6010E94DE1968AF79AF8AAFFA
:1019B0009BAFDF91CF911F910F91FF90EF90DF9040
:1019C000CF90BF90AF909F908F9008958F929F92ED
:1019D000AF92BF92CF92DF92EF92FF920F931F933D
:1019E000CF93DF93EC01488B598B6A8B7B8BCCA414
:1019F000DDA4EEA4FFA4970186013DDF4B015C014D
:101A00006C8F7D8F8E8F9F8F20E030E040E85FE30A
:101A1000C701B6010E941C176B017C01A50194014E
:101A200060E070E080E89FE30E941B179B01AC011F
:101A3000C701B6010E94DE196CAB7DAB8EAB9FABCC
:101A4000DF91CF911F910F91FF90EF90DF90CF909A
:101A5000BF90AF909F908F900895CF92DF92EF92BA
:101A6000FF92CF93DF93EC01CB01BA0168A779A76E
:101A70008AA79BA728A939A94AA95BA90E941B1775
:101A80006B017C0128A139A14AA15BA160E070E053
:101A900080E89FE30E941B179B01AC01C701B601C0
:101AA0000E94DE1968AF79AF8AAF9BAFDF91CF910B
:101AB000FF90EF90DF90CF900895CF92DF92EF925A
:101AC000FF92CF93DF93EC011B821A821C861D8646
:101AD0001E861F8640E050E0BA0178DF40E050E00B
:101AE000BA01CE012CDF40E050E0BA01CE01F0DEB9
:101AF00040E050E060E87FE3CE01AFDF8AE999E99A
:101B0000A9E9BEE38CA79DA7AEA7BFA72C8D3D8DED
:101B10004E8D5F8D60E070E080E89FE30E941B17B0
:101B200026E636E646EA5FE30E94DE196CAB7DAB43
:101B30008EAB9FAB87E197EBA1EDB8E388AB99AB98
:101B4000AAABBBAB9C01AD0168A579A58AA59BA5F5
:101B50000E941B176B017C0128A139A14AA15BA13E
:101B600060E070E080E89FE30E941B179B01AC01DE
:101B7000C701B6010E94DE1968AF79AF8AAF9BAF8B
:101B80002CA13DA14EA15FA160E070E080E89FE341
:101B90000E941B1727E137EB41ED58EB0E94DE193D
:101BA0006CAF7DAF8EAF9FAF1982DF91CF91FF9069
:101BB000EF90DF90CF900895CF92DF92EF92FF9257
:101BC000CF93DF93EC016A017B012FE530E749E811
:101BD00050E3C701B6010E94801787FF08C08FE558
:101BE000C82E80E7D82E89E8E82E80E3F82ECCA610
:101BF000DDA6EEA6FFA620E030E040E85FE3C701E7
:101C0000B6010E941C176B017C012C8D3D8D4E8D01
:101C10005F8D60E070E080E89FE30E941B179B01EE
:101C2000AC01C701B6010E94DE196CAB7DAB8EAB77
:101C30009FABDF91CF91FF90EF90DF90CF90089511
:101C40008F929F92AF92BF92CF92DF92EF92FF92CC
:101C5000CF93DF93EC016A017B012FE530E749E880
:101C600050E3C701B6010E94801787FF08C09FE5B7
:101C7000C92E90E7D92E99E8E92E90E3F92EC8AA4B
:101C8000D9AAEAAAFBAAA701960168A579A58AA5FF
:101C90009BA50E941B174B015C0128A139A14AA1F9
:101CA0005BA160E070E080E89FE30E941B179B014E
:101CB000AC01C501B4010E94DE1968AF79AF8AAFEB
:101CC0009BAFF7FAF094F7F8F0942CA13DA14EA148
:101CD0005FA160E070E080E89FE30E941B179B011A
:101CE000AC01C701B6010E94DE196CAF7DAF8EAFAB
:101CF0009FAFDF91CF91FF90EF90DF90CF90BF909B
:101D0000AF909F908F900895FC016183089508958E
:101D10004F928F929F92AF92BF92CF92DF92EF92AB
:101D2000FF920F931F93CF93DF93EC01962EFC014C
:101D3000EE5AFF4F6083FC01EB5BFF4F4080642D48
:101D400070E080E090E0FE01E85BFF4F2081318190
:101D500089011F921F921F932F93A12CB12C650113
:101D6000A394E12CF12C8701EA9420E030E0A90152
:101D7000A7D68B01FE01E05BFF4F718360830F905C
:101D80000F900F900F908A81882309F47DC02EE177
:101D90002915E8F17E01E90CF11CF701648170E07E
:101DA00080E090E00E944E184B015C01F7016381D6
:101DB00070E080E090E00E944E18E980F8E0EF9E2D
:101DC0007001112429E436E0E20EF31E2FB7F894D7
:101DD000F70160837183828393832FBF20813181D8
:101DE00042815381C501B4010E941B174B015C0164
:101DF000B80180E090E00E944E189B01AC01C50143
:101E0000B4010E948417AB01BC01F70139C06B819A
:101E100070E080E090E00E944E186B017C01FE01B2
:101E2000E90DF11D638170E080E090E00E944E18A2
:101E30008980F8E08F9E4001112429E436E0820E6B
:101E4000931E2FB7F894F401608371838283938388
:101E50002FBF2081318142815381C701B601EBD769
:101E60006B017C01B80180E090E00E944E189B015C
:101E7000AC01C701B6010E948417AB01BC01F4019B
:101E80004483558366837783C25BDF4F1982188250
:101E9000DF91CF911F910F91FF90EF90DF90CF9046
:101EA000BF90AF909F908F904F900895FC0142A1FA
:101EB00020E030E0FC01E20FF31F51A152A32150BA
:101EC0003109213EFFEF3F07A9F7FC014383089545
:101ED000CF93DF93EC01EADF20E430E040E050E014
:101EE00060E070E0CB01CFD52C8130E02F5131097B
:101EF000260F371F2F3F310509F01CF437FD04C0B2
:101F000005C02FEF30E002C020E030E02B83DF91EE
:101F1000CF910895FC01EE5BFF4F50819C014FE192
:101F2000F901EF5BFF4F6081F901EE5BFF4F6083CA
:101F30004150215031094111F3CFFC0153A30895C1
:101F40004F925F926F927F928F929F92AF92BF92C9
:101F5000CF92DF92EF92FF920F931F93CF93DF9375
:101F6000EC01FC01E65BFF4F80819181019691833A
:101F70008083DE01A85BBF4F2D913C9182179307B0
:101F8000B8F011821082FE01EC5BFF4F80818F312F
:101F900018F48F5F808301C010828A81811108C08C
:101FA0008881811103C0CE0193DF02C0CE017EDFA4
:101FB0004E018CE4880E911CF40180819181019680
:101FC00091838083FE01EA5BFF4F40805180B20124
:101FD00080E090E0FE01E85BFF4F20813181290124
:101FE0001F921F925F922F93A12CB12C6501EE24BA
:101FF000EA9417E0F12E00E010E020E030E0A901C3
:102000005FD50F900F900F900F90F40120813181D8
:102010002617370730F0118210829B80CE017ADFBD
:102020009BA2DF91CF911F910F91FF90EF90DF90D6
:10203000CF90BF90AF909F908F907F906F905F9068
:102040004F90089520E030E040E050E0FC01E20FC6
:10205000F31F63A1460F511D2F5F3F4F2032310503
:10206000A9F7CA0155E0969587955A95E1F7089525
:102070001F93CF93DF93FC012281222309F43FC0F9
:10208000E25BFF4F20813181DC01A05BBF4F4D91AE
:102090005C912417350728F52F5F3F4F318320834C
:1020A000FC01C181F8E0CF9FE0011124C75BD94F4B
:1020B0001FB7F8942C813D814E815F8168817981C1
:1020C0008A819B81B9D6AB01BC01488359836A835D
:1020D0007B831FBF688179818A819B81B3D7862FDB
:1020E00019C0FC01EE5AFF4F20812F3119F4FC0179
:1020F000838110C0FC01E20FF11D84810BC0FC0143
:10210000EA5BFF4F20813181232B89F3DF91CF914F
:102110001F9198CFDF91CF911F910895FC011182FB
:10212000108217868FEF848381E090E09683858309
:10213000178280E8808B1286118616861586128A91
:10214000128213820895FC01748763870895FC014D
:10215000718360830895FC0162830895FC016383A9
:102160000895FC0167870895CF93DF93EC01AB01DD
:102170008D859E858617970778F06F812B853C8526
:10218000629FC001639F900D1124892F99279A01A6
:10219000281B390B3A8729875E874D8760E070E0FE
:1021A00089859A85481B590B61097109962F852FDE
:1021B000742F66272B853C8540E050E00E94911AE1
:1021C000322F2F838889422F481B8F85481710F4A0
:1021D000898960C0288B888199818230910561F559
:1021E0008B899C89841B91099C8B8B8B18161906F3
:1021F00054F067E080E072D083508A8B6EE18FE00C
:102200006DD08B8B1C8A8D819E81019789F44A89C0
:102210002989842F992787FD9095820F911D2C8104
:1022200030E02817390714F097FF02C041954A8B18
:1022300089899A89890F11C0009719F0019771F463
:1022400002C0298B0BC027FD03C0330F398B06C09A
:102250008FEF90E0821B9109880F898B89894C81CF
:10226000481770F42D813E81642F0E945E1A232B43
:1022700009F405C080FF03C0491B498B01C0998B3D
:102280008B819F81892329F48A8199898927898B68
:1022900001C080E0DF91CF91089520912C01309111
:1022A0002D01C9019695982F8827979587958227A4
:1022B00093279C01232F332726952695269528279B
:1022C0003927C901880F991F880F991F82279327E3
:1022D00090932D0180932C01892F08951F93CF9304
:1022E000DF93182FC62FD0E0C81BD1092196D5DF68
:1022F0008E3F20F4D2DF282F30E002C02EEF30E0F6
:102300002C9FA0012D9F500D3C9F500D1124812F1B
:10231000850FDF91CF911F91089589E796E022C143
:1023200089E796E071C1462F62E089E796E020C117
:10233000462F64E089E796E01BC1625E89E796E07C
:1023400017C1EF92FF920F931F93CF93DF931F92CA
:10235000CDB7DEB77C010AE010E089E796E019D13D
:10236000882309F4B7C089E796E048D1282F89E788
:1023700096E0298346D1482F2981243049F138F449
:102380002230D1F0F8F4213009F045C008C02630E1
:1023900059F120F1273071F12830E9F531C0813051
:1023A00029F089E796E0498332D14981D701129615
:1023B000ED91FC91139729C0D7011496ED91FC91F2
:1023C000159723C0D7011696ED91FC9117971DC064
:1023D000D7011896ED91FC91199717C0D7011A965D
:1023E000ED91FC911B9711C0D7011C96ED91FC91CA
:1023F0001D970BC0D7011E96ED91FC911F9705C04C
:10240000D7015096ED91FC915197309709F4A5CFE3
:10241000842F0995A2CF822F8A508A3030F4D701B9
:102420005296ED91FC9153973BC0822F84518A3094
:1024300030F4D7015496ED91FC91559731C0822F1D
:102440008E518A3030F4D7015696ED91FC91579712
:1024500027C0822F88528A3030F4D7015896ED91E8
:10246000FC9159971DC0822F82538A3030F4D701D6
:102470005A96ED91FC915B9713C0822F8C538A3052
:1024800030F4D7015C96ED91FC915D9709C0822FE5
:1024900086548A3058F4D7015E96ED91FC915F978F
:1024A000309709F45ACF642F099557CF243608F492
:1024B00054CFD7019096ED91FC919197309709F404
:1024C0004CCF822F90E084569109B8010E947E1A69
:1024D000099543CF0F90DF91CF911F910F91FF90FE
:1024E000EF900895FC01738362830895FC01758366
:1024F00064830895FC01778366830895FC017187E6
:1025000060870895FC01738762870895FC017587D1
:1025100064870895FC01778766870895FC01718BB5
:10252000608B0895FC01738B628B0895FC01758BA1
:10253000648B0895FC01778B668B0895FC01718F85
:10254000608F0895FC01738F628F0895FC01758F71
:10255000648F0895FC01778F668F0895FC0171A345
:1025600060A30895AB0160E070E08CE796E064C181
:10257000CF93DF931F92CDB7DEB78CE796E0498308
:10258000A9D04981642F8CE796E00F90DF91CF911D
:10259000A1C0CF93DF93EC018CE796E03DD0892B6F
:1025A00039F18A8181110EC08CE796E064D088836E
:1025B00091E09A83893031F48981893019F41A8243
:1025C000188219828A81813091F48CE796E024D0B8
:1025D000892B71F08CE796E04ED089831A8298811E
:1025E000993041F4893031F41882198203C003C054
:1025F00080E001C081E0DF91CF910895FC018081EE
:102600000895FC018181089549E069E0B1CFFC01A2
:102610001282108211820895FC0184859585FC0147
:10262000E05CFF4F20813181FC01EE5BFF4F808138
:102630009181281B390B2F733327C9010895FC01A1
:1026400084859585FC01E05CFF4F40815181FC0150
:10265000EE5BFF4F208131814217530741F001901B
:10266000F081E02DE80FF91F208130E002C02FEF4C
:102670003FEFC9010895FC0184859585FC01E05C6C
:10268000FF4F40815181FC01EE5BFF4F2081318182
:102690004217530781F0A081B181A80FB91F8C9117
:1026A000208131812F5F3F4F2F7333273183208368
:1026B000282F30E002C02FEF3FEFC9010895FC0141
:1026C00081A1882329F0A489B5898C9186FFFBCF4D
:1026D00011A20895CF93DF93FC0126853785D90198
:1026E000A05CBF4F8D919C91119701968F73992794
:1026F000E901CE5BDF4F4881598184179507D9F3F3
:102700000D90BC91A02DA20FB31F6C93A685B78529
:10271000A05CBF4F11969C938E93A689B7892C918C
:1027200081E090E0078C02C0880F991F0A94E2F7BD
:10273000282B2C9381E081A30488F589E02D8081EA
:102740008064808381E090E0DF91CF9108951F92B3
:102750000F920FB60F9211242F933F934F938F93A5
:102760009F93EF93FF938091C00082FD1CC0409126
:10277000C600809122079091230701968F739927B5
:1027800020912407309125078217930771F0E0917B
:102790002207F0912307EE51F94F408390932307CE
:1027A0008093220702C08091C600FF91EF919F9114
:1027B0008F914F913F912F910F900FBE0F901F90CF
:1027C00018951F920F920FB60F9211242F933F93DB
:1027D0008F939F93EF93FF932091DE063091DF0656
:1027E0008091E0069091E1062817390731F4809135
:1027F000C1008F7D8093C10014C0E091E006F0918C
:10280000E106E256F94F20818091E0069091E106C1
:1028100001968F7399279093E1068093E0062093A9
:10282000C600FF91EF919F918F913F912F910F9053
:102830000FBE0F901F901895CF92DF92EF92FF92EC
:10284000CF93DF93EC016A017B01411581EE5807BC
:1028500061057105F1F0EC89FD8981E090E008A047
:1028600002C0880F991F0A94E2F7808360E079E044
:102870008DE390E0A701960154D62150310941091A
:1028800051095695479537952795211580E13807C9
:1028900090F0EC89FD89108260E874E88EE190E0A8
:1028A000A70196013ED6215031094109510956959B
:1028B000479537952795E889F9893083EA89FB8917
:1028C000208319A2EE89FF89408181E090E09C017C
:1028D0000C8C02C0220F331F0A94E2F7422B408374
:1028E000EE89FF8940819C010D8C02C0220F331FAD
:1028F0000A94E2F7422B4083EE89FF8940819C01D4
:102900000E8C02C0220F331F0A94E2F7422B408341
:10291000EE89FF8920810F8C02C0880F991F0A94CD
:10292000E2F7809582238083DF91CF91FF90EF9033
:10293000DF90CF90089510927F0610927E0688EE69
:1029400093E0A0E0B0E08093800690938106A0938E
:102950008206B093830684E891E090937D0680938D
:102960007C0682EE96E090938906809388068EE935
:1029700096E090938B0680938A0685EC90E0909386
:102980008D0680938C0684EC90E090938F06809364
:102990008E0680EC90E0909391068093900681ECF7
:1029A00090E0909393068093920682EC90E090934F
:1029B00095068093940686EC90E09093970680931A
:1029C000960684E08093980683E08093990687E0DA
:1029D00080939A0685E080939B0681E080939C0615
:1029E0000895CF92DF92EF92FF920F931F93CF93B0
:1029F000DF936C01EB017A01E60EF71E00E010E0B8
:102A00000BC06991D601ED91FC910190F081E02D10
:102A1000C6010995080F191FCE15DF0591F7C801EA
:102A2000DF91CF911F910F91FF90EF90DF90CF90AA
:102A300008950F931F93CF93DF9300D000D0CDB7AD
:102A4000DEB79B01AC01611571058105910569F047
:102A500069833A834B835C83E0D129813A814B813E
:102A60005C8181D58B019C0103C000E010E09801DE
:102A7000B801C9010F900F900F900F90DF91CF9187
:102A80001F910F910895CF92DF92EF92FF926B0109
:102A90007C0162177307840795075CF4CA01B901CA
:102AA0006C197D098E099F09C4DFC60ED71EE81E6A
:102AB000F91EB601C701FF90EF90DF90CF90089507
:102AC0004F925F926F927F92AF92BF92CF92DF92BE
:102AD000EF92FF920F931F93CF93DF93CDB7DEB7A3
:102AE00029013A01621B730B840B950B29893A89E2
:102AF0004B895C892A193B094C095D09298B3A8B62
:102B00004B8B5C8B9B01AC0169897A898B899C8991
:102B1000C6D4E418F50806091709A801970123D5BA
:102B20002A0D3B1D4C1D5D1DB901CA01DF91CF91DE
:102B30001F910F91FF90EF90DF90CF90BF90AF90DB
:102B40007F906F905F904F9008951F920F920FB6F5
:102B50000F9211242F933F938F939F93AF93BF9323
:102B60008091260790912707A0912807B091290707
:102B700030912E07232F2D5F2D3720F40196A11DB4
:102B8000B11D05C0232F2A570296A11DB11D209308
:102B90002E078093260790932707A0932807B093CA
:102BA000290780912A0790912B07A0912C07B091BB
:102BB0002D070196A11DB11D80932A0790932B0725
:102BC000A0932C07B0932D07BF91AF919F918F9148
:102BD0003F912F910F900FBE0F901F9018957894F2
:102BE00084B5826084BD84B5816084BD85B5826012
:102BF00085BD85B5816085BDEEE6F0E080818160B0
:102C00008083E1E8F0E010828081826080838081AF
:102C100081608083E0E8F0E0808181608083E1EB87
:102C2000F0E0808184608083E0EBF0E0808181606F
:102C30008083EAE7F0E08081846080838081826025
:102C4000808380818160808380818068808310920E
:102C5000C1000895833069F028F48130A1F08230FA
:102C600011F514C08630B1F08730C1F08430D9F44A
:102C700004C0809180008F7703C0809180008F7D99
:102C800080938000089584B58F7702C084B58F7DCE
:102C900084BD08958091B0008F7703C08091B0000B
:102CA0008F7D8093B0000895CF93DF9390E0FC0177
:102CB000E250FF4F4491FC01EE5EFE4F8491882369
:102CC00041F190E0880F991FFC01E05DFE4F2591D6
:102CD0003491D9018A5D9E4FFC0185919491C82F52
:102CE000D92F9FB7F8948C91611106C04095842329
:102CF0008C938881842308C0623041F4242F20956E
:102D000082238C938881842B888302C0842B8C93AC
:102D10009FBFDF91CF9108950F931F93CF93DF93C0
:102D20001F92CDB7DEB7282F30E0F901E651FF4FF3
:102D30008491F901E250FF4F1491F901EE5EFE4FCC
:102D400004910023C9F0882319F0698383DF698126
:102D5000E02FF0E0EE0FFF1FEA5DFE4F85919491AA
:102D6000DC019FB7F8948C91611103C01095812309
:102D700001C0812B8C939FBF0F90DF91CF911F914A
:102D80000F9108958F929F92AF92BF92CF92DF9250
:102D9000EF92FF92CF93DF93EC01688179818A8172
:102DA0009B81611571058105910521F464E279ED3E
:102DB0008BE597E02DE133EF41E050E0D4D34901BA
:102DC0005A019B01AC01A7EAB1E4E8D36B017C0195
:102DD000ACEEB4EFA5019401EDD3C60ED71EE81EEC
:102DE000F91EF7FE06C081E0C81AD108E10880E8A4
:102DF000F80AC882D982EA82FB82E894F7F8B60121
:102E0000C701DF91CF91FF90EF90DF90CF90BF90FF
:102E1000AF909F908F900895B5CF80E091E0B2CFB2
:102E2000609300017093010180930201909303016C
:102E30000895F894D5C35058BB27AA270ED0CBC10C
:102E4000BCD130F0C1D120F031F49F3F11F41EF419
:102E50008CC10EF4E095E7FB82C1E92FCDD180F360
:102E6000BA17620773078407950718F071F49EF587
:102E7000E5C10EF4E0950B2EBA2FA02D0B01B90180
:102E800090010C01CA01A0011124FF27591B99F0E0
:102E9000593F50F4503E68F11A16F040A22F232FEC
:102EA000342F4427585FF3CF469537952795A7953C
:102EB000F0405395C9F77EF41F16BA0B620B730BE3
:102EC000840BBAF09150A1F0FF0FBB1F661F771F54
:102ED000881FC2F70EC0BA0F621F731F841F48F409
:102EE000879577956795B795F7959E3F08F0B3CF8F
:102EF0009395880F08F09927EE0F97958795089579
:102F00000AD108F481E008950CD065C15DD140F08C
:102F100054D130F021F45F3F19F021C151118FC11C
:102F200024C16AD198F39923C9F35523B1F3951BB2
:102F3000550BBB27AA2762177307840738F09F5FDA
:102F40005F4F220F331F441FAA1FA9F333D00E2E49
:102F50003AF0E0E830D091505040E695001CCAF7B6
:102F600029D0FE2F27D0660F771F881FBB1F26177B
:102F700037074807AB07B0E809F0BB0B802DBF014E
:102F8000FF2793585F4F2AF09E3F510568F0E7C036
:102F900056C15F3FECF3983EDCF3869577956795D5
:102FA000B795F7959F5FC9F7880F911D96958795FF
:102FB00097F90895E1E0660F771F881FBB1F62171E
:102FC00073078407BA0720F0621B730B840BBA0BDC
:102FD000EE1F88F7E095089519F40EF0C0C02EC1D9
:102FE000C4C012D1C8F39638C0F707F80F92E8941E
:102FF0002BE33AEA48EB5FE7EFD10F920F920F9283
:103000004DB75EB70F92A7D1E8E6F0E0B1D04F918F
:103010005F91EF91FF91E595EE1FFF1F49F0FE577D
:10302000E0684427EE0F441FFA95E1F74195550BF0
:1030300019D10F9007FE0DC1089504D06894B11105
:10304000FEC00895E1D088F09F5790F0B92F9927DE
:10305000B751A0F0D1F0660F771F881F991F1AF0A3
:10306000BA95C9F712C0B13081F0E8D0B1E0089547
:10307000E5C0672F782F8827B85F39F0B93FCCF3C8
:10308000869577956795B395D9F73EF49095809599
:10309000709561957F4F8F4F9F4F0895E89409C0B9
:1030A00097FB3EF490958095709561957F4F8F4F7B
:1030B0009F4F9923A9F0F92F96E9BB279395F69591
:1030C000879577956795B795F111F8CFFAF4BB0F0F
:1030D00011F460FF1BC06F5F7F4F8F4F9F4F16C073
:1030E000882311F096E911C0772321F09EE8872FFD
:1030F000762F05C0662371F096E8862F70E060E0B9
:103100002AF09A95660F771F881FDAF7880F969531
:10311000879597F90895990F0008550FAA0BE0E8D5
:10312000FEEF16161706E807F907C0F01216130689
:10313000E407F50798F0621B730B840B950B39F4C9
:103140000A2661F0232B242B252B21F408950A262F
:1031500009F4A140A6958FEF811D811D089597F96F
:103160009F6780E870E060E008959FEF80EC08952D
:10317000DF93CF931F930F93FF92EF92DF927B0128
:103180008C01689405C0DA2EEF0124D1FE01E89489
:10319000A5912591359145915591AEF3EF015DDEF5
:1031A000FE019701A801DA9479F7DF90EF90FF9084
:1031B0000F911F91CF91DF91089500240A94161664
:1031C000170618060906089500240A941216130615
:1031D000140605060895092E0394000C11F48823A3
:1031E00052F0BB0F40F4BF2B11F460FF04C06F5FBF
:1031F0007F4F8F4F9F4F089557FD9058440F551F95
:1032000059F05F3F71F04795880F97FB991F61F068
:103210009F3F79F087950895121613061406551FDF
:10322000F2CF4695F1DF08C0161617061806991F4B
:10323000F1CF86957105610508940895E894BB2740
:1032400066277727CB0197F9089565DF08F48FEF9C
:1032500008959B01AC0160E070E080E89FE354CEEC
:103260007ECF0FC1D1DFE8F39923D9F3940F511D1D
:10327000BBF39150504094F059F0882332F0660F20
:10328000771F881F91505040C1F79E3F510544F76A
:10329000880F911D9695879597F908955F3FACF03B
:1032A000983E9CF0BB27869577956795B79508F46F
:1032B000B1609395C1F7BB0F58F711F460FFE8CFE9
:1032C0006F5F7F4F8F4F9F4FE3CFB9CF0EF0D9C0C5
:1032D0004CCF689444CF98DFC8F39923D1F3C6F359
:1032E000DF93CF931F930F93FF92C92FDD2788237E
:1032F0002AF02197660F771F881FDAF720E030E069
:1033000040E85FEB9FE3883920F0803E30F0219663
:103310008F7792DDE0E9F0E003C08EDDEDEBF0E0C9
:1033200027DF8B01BE01EC01FB2E6F5771097595EC
:10333000771F880B990BB4DE28E132E741E35FE3A6
:1033400049D0AF2D9801AE01FF900F911F91CF9101
:10335000DF9183DD40CFFA01DC01AA0FBB1F9B0187
:10336000AC01BF5728F422273327442750781FC0C9
:10337000B75188F4AB2F0024469537952795011C4B
:10338000A395D2F3002069F0220F331F441FB39599
:10339000DAF30DD050CD61307105A0E88A07B94647
:1033A00030F49B01AC016627772788279078309608
:1033B00021F0208331834283538308950BD00BCFB8
:1033C000FCDE28F001DF18F0952309F0C8CECDCE41
:1033D000112435CF11DFA0F3959FD1F3950F50E065
:1033E000551F629FF001729FBB27F00DB11D639FB7
:1033F000AA27F00DB11DAA1F649F6627B00DA11D5D
:10340000661F829F2227B00DA11D621F739FB00D02
:10341000A11D621F839FA00D611D221F749F332772
:10342000A00D611D231F849F600D211D822F762F0B
:103430006A2F11249F5750408AF0E1F088234AF008
:10344000EE0FFF1FBB1F661F771F881F9150504054
:10345000A9F79E3F510570F082CEF1CE5F3FECF3AD
:10346000983EDCF3869577956795B795F795E79540
:103470009F5FC1F7FE2B880F911D9695879597F951
:1034800008959F3F31F0915020F487957795679587
:10349000B795880F911D9695879597F90895DB014B
:1034A0008F939F937BD0BF91AF91A29F800D911D71
:1034B000A39F900DB29F900D11240895991B79E060
:1034C00004C0991F961708F0961B881F7A95C9F7B4
:1034D00080950895AA1BBB1B51E107C0AA1FBB1F03
:1034E000A617B70710F0A61BB70B881F991F5A9590
:1034F000A9F780959095BC01CD01089597FB072E03
:1035000016F4009406D077FD08D0E4DF07FC05D060
:103510003EF4909581959F4F0895709561957F4FEA
:103520000895A1E21A2EAA1BBB1BFD010DC0AA1F04
:10353000BB1FEE1FFF1FA217B307E407F50720F01C
:10354000A21BB30BE40BF50B661F771F881F991F97
:103550001A9469F760957095809590959B01AC01E0
:10356000BD01CF010895052E97FB16F4009406D0F7
:1035700057FD0CD0D6DF07FC09D07EF490958095DE
:10358000709561957F4F8F4F9F4F0895509540954F
:10359000309521953F4F4F4F5F4F089515D0A59F10
:1035A000900DB49F900DA49F800D911D112408953E
:1035B000B7FFF4CFF3DF821B930B0895EE0FFF1FCD
:1035C0000590F491E02D0994A29FB001B39FC00132
:1035D000A39F01D0B29F700D811D1124911D0895EC
:1035E00011E0C0E4D1E003C0FE01EADF2296C2345C
:0835F000D107D1F7F894FFCFD9
:1035F8000100000000003F007F00BF00FF000A003C
:10360800F401E803B80B102700003F007F00BF005B
:10361800FF000A00F401E803B80B10272A00040091
:103628000300020001000200030004000600080075
:103638001000180020003000400080000001000049
:103648000000A70AA40AA80AAA0AAB0AAC0AAD0A8B
:10365800AF0AB00AB10A9A0AB70AB20AB40AB50A96
:10366800B60A050103040002030F0701050D090B43
:10367800000000006A13F1140C133B131F135F13AF
:00000001FF
