:10000000A0C00000C6C00000C4C00000C2C0000004
:10001000C0C00000BEC00000BCC000000C940C0CAE
:10002000B8C00000B6C00000B4C00000B2C00000FC
:10003000B0C00000AEC00000ACC00000AAC000000C
:100040000C940B16A6C000000C940D140C944714CD
:10005000A0C000009EC000009CC000009AC000002C
:1000600098C0000096C0000007634236B79BD8A72F
:100070001A39685618AEBAAB558C1D3CB7CC5763CD
:10008000BD6DEDFD753EF6177231BF000000803F7B
:1000900008000000BE922449123EABAAAA2ABECD97
:1000A000CCCC4C3E00000080BEABAAAAAA3E000009
:1000B0000000BF000000803F000000000008417801
:1000C000D3BB4387D1133D190E3CC3BD4282AD2B38
:1000D0003E68EC8276BED98FE1A93E4C80EFFFBE30
:1000E00001C4FF7F3F000000000000000007000285
:1000F00001000003040600000000000000000102EF
:1001000004081020408001020408102001020408A5
:100110001020040404040404040402020202020283
:1001200003030303030300000000250028002B0045
:1001300000000000240027002A00AB0A2F0C011544
:10014000BA0A11241FBECFEFD8E0DEBFCDBF11E049
:10015000A0E0B1E0E4ECF6E302C005900D92A03916
:10016000B107D9F727E0A0E9B1E001C01D92A134A1
:10017000B207E1F711E0C0E4D1E004C02297FE012C
:100180000E94461BCA33D107C9F70E94A60A0C94E5
:100190007F1736CF08950895089508950895089516
:1001A000089590E0FC01E256FE4F6083FC01E856A2
:1001B000FE4F1082089590E0FC01E256FE4F208130
:1001C000203258F433E5389FF001399FF00D1124A7
:1001D000E15CFB4FE20FF11D638323E5289FF001F3
:1001E000299FF00D1124E15CFB4F21E02283FC01EB
:1001F000E856FE4F10820895462F682F81E396E05F
:100200000C94220BCF93DF93D82FC62F282F30E0EA
:10021000F901E856FE4F81E0808393E5929FF0015B
:10022000939FF00D1124E15CFB4F9091AB01DF0136
:10023000A90FB11D13966C9382838D2FDDDF809102
:1002400008028D1305C06C2F86E0DF91CF91D4CFCB
:10025000DF91CF910895CF93DF93C82FD0E0FE01B7
:10026000E651FE4F91E090834FEF682F81E396E0D7
:100270000E94220BFE01EE0FFF1FEE0FFF1FEE523A
:10028000FE4F8091330690913406A0913506B091CF
:10029000360680839183A283B383DF91CF91089543
:1002A0008093080283E192E00C94F611611102C080
:1002B00040E001C04FEF682F81E396E00C94220BE1
:1002C0002F923F924F925F926F927F928F929F9266
:1002D000AF92BF92CF92DF92EF92FF920F931F9354
:1002E000CF93DF93CDB7DEB727970FB6F894DEBF75
:1002F0000FBECDBF8F83862FDA0160E070E0412C06
:10030000512C32014A94A12CB12C6501E12CF12C25
:100310008701EA9420E030E0A901E82FF0E0FE83B5
:10032000ED833197FA83E983FF812F2E312C8D8164
:100330009E810A969C838B8339C0FB01EE0FFF1FC1
:10034000EA0FFB1F808091802814390468F1FB01BB
:100350003196EE0FFF1FEA0FFB1F0190F081E02D99
:10036000E215F30508F17F0100E010E0940140E0A0
:1003700050E08D819E81860F971FBC016F5F7F4F7C
:10038000660F771F6A0F7B1FFB0140805180612C35
:10039000712CFC01EE0FFF1FEA0FFB1FA080B18044
:1003A000C12CD12C6B817C816F5F7F4F89819A81B9
:1003B0006817790714F2EF816E2F70E080E090E00B
:1003C0007F926F925F924F920E94C6150F900F908E
:1003D0000F900F9027960FB6F894DEBF0FBECDBFDB
:1003E000DF91CF911F910F91FF90EF90DF90CF9011
:1003F000BF90AF909F908F907F906F905F904F9045
:100400003F902F90089590E0FC01E453FE4F20812F
:10041000253079F0263069F02430A1F423E5289FB7
:10042000F001299FF00D1124E15CFB4F81E08283F4
:10043000089523E5289FF001299FF00D1124E15C28
:10044000FB4F12820895E82FF0E0E453FE4F6083E3
:10045000DACF3F924F925F926F927F928F929F92EC
:10046000AF92BF92CF92DF92EF92FF920F931F93C2
:10047000CF93DF93D82FF62E882E912CF401E453DE
:10048000FE4F80818530E9F0863009F4B7C18430B1
:1004900009F03BC383E5889DF001899DF00D11248F
:1004A000E15CFB4F81E08283EB5BFF4FD401AA0F3D
:1004B000BB1FAA0FBB1FAC54BE4F11968C918083FB
:1004C00024C32401440C551C440C551CF201EC546B
:1004D000FE4FC0813180128183E5889D3001899D66
:1004E000700C11248FE394E0680E791ED3011296EC
:1004F0001C92838184FF06C06D2F81E396E00E94E9
:10050000270BC80FF201EC54FE4F838186FF06C013
:100510006D2F81E396E00E94270B180FF201EC5437
:10052000FE4F838183FB882780F9F401EE5FFD4F46
:100530008083882309F483C08C2F90E054E0959544
:1005400087955A95E1F74FE050E0481B590BFA01A7
:10055000EE0FFF1FE25DFE4F20813181F401EE0FAF
:10056000FF1FEA50FE4F31832083F401E051FE4F1C
:10057000443051051CF481E0808301C010828081E9
:10058000882381F140E050E06091B0017091B101A9
:100590008091B2019091B3010E94F71A67E1689DC2
:1005A000C001699D900D1124B9018B5C9D4F0E9483
:1005B000D410E301C85BDF4FF401EE0FFF1FEA50D8
:1005C000FE4F2081318140E050E06091B001709198
:1005D000B1018091B2019091B3010E94F71A398361
:1005E000288348C08091B0019091B101289FB0014B
:1005F000299F700D389F700D112427E1289DC0019F
:10060000299D900D11248B5C9D4F0E94D410D30125
:10061000A85BBF4FF401EE0FFF1FEA50FE4F408171
:1006200051812091B0013091B101429FC001439F9F
:10063000900D529F900D11248D939C931BC0C095DB
:1006400048E151E065E08C2F3BDE47E1489D900199
:10065000499D300D1124C9018B5C9D4F0E94D4101F
:1006600048E151E065E08C2F2BDEF301E85BFF4FA2
:1006700071836083F301EA5BFF4F3082118287E16F
:10068000889DE001899DD00D1124CB5CDD4F6FEF7B
:10069000CE010E94FC10FF2009F437C2612F70E0E8
:1006A00080E090E01F921F921F9227E02F93A12CD1
:1006B000B12C6501E12CF12C8701EA9420E030E0B7
:1006C000A9010E94C6150F900F900F900F906330F4
:1006D00071058105910509F467C05CF4613071050D
:1006E00081059105C1F07CF5672B682B692B81F0A2
:1006F0000CC2653071058105910509F45FC00CF4E9
:100700005AC0663071058105910509F0FEC15DC0D2
:1007100060E070E002C061E070E0CE010E94F21083
:1007200060E0CE010E94F910632DCE010E94F61008
:100730006FEFCE010E94FC101092AA01F401EC555B
:10074000FE4F1082E2C160E070E0CE010E94F21024
:1007500060E0CE010E94F910832D90E0B4E0959501
:100760008795BA95E1F7282F883068F088E0821BDA
:1007700061E070E001C0660F8A95EAF7CE010E9441
:10078000FC1060E00AC061E070E001C0660F8A956D
:10079000EAF7CE010E94FC106FEFCE010E94F61026
:1007A00081E08093AA01CACF60E070E0CE010E9490
:1007B000F21061E1B6CF61E070E002C060E070E08D
:1007C000CE010E94F21060E1ACCFF201EC54FE4F7A
:1007D00082818E3F20F081E0F301808302C0D3014B
:1007E0001C9262E070E0CE010E94F210F401EC5520
:1007F000FE4F81E080831092AA0187C183E5889D26
:10080000F001899DF00D1124E15CFB4F12828401FF
:10081000000F111F000F111FF801EC54FE4F8381D0
:10082000F401EE5FFD4F83FB992790F99083E4017B
:10083000A6E0CC0FDD1FAA95E1F7B3E06B1322C051
:10084000EFEB6E2EE2E07E2E6C0E7D1E81FF0CC063
:1008500040E050E068EC72E4C3010E940B0E40E0FF
:1008600050E068EC72E40BC040E050E060E07FE3F1
:10087000C3010E940B0E4AE057ED63E27CE3C30123
:100880000E944F0EF401EE5FFD4F8081882309F432
:10089000C5C0F801EC54FE4F4081842E912C64E0D9
:1008A000959487946A95E1F7D401AA0FBB1FA25DC6
:1008B000BE4F4C90F11018C06091B0017091B10121
:1008C0008091B2019091B301242D30E040E050E0DE
:1008D000E3E08E1691042CF40E94F71ACA01B901C4
:1008E000D7C00E94B51AD4C022E0F2125FC0828144
:1008F00090E044E0959587954A95E1F7EFE0F0E0C8
:10090000E81BF90BEE0FFF1FE25DFE4F4080609188
:10091000B0017091B1018091B2019091B301512C5D
:10092000612C712CA3E08A16910414F53FEB832E01
:1009300032E0932E8C0E9D1EA30192010E94F71AA5
:10094000CA01B9010E94B418AB01BC01C4010E94E4
:10095000CE0C6091B0017091B1018091B201909183
:10096000B301A30192010E94F71ACA01B901BBC0E9
:100970002FEB822E22E0922E8C0E9D1EA30192015F
:100980000E94B51A0E94B418AB01BC01C4010E94B8
:10099000CE0C6091B0017091B1018091B201909143
:1009A000B301A30192010E94B51A9DC0B1E0FB12F0
:1009B000A0C0A181B0E0F4E0B595A795FA95E1F764
:1009C000EFE0F0E0EA1BFB0BEE0FFF1FE25DFE4FD6
:1009D00020816091B0017091B1018091B20190913C
:1009E000B30130E040E050E0139774F4EFEB8E2E4B
:1009F000E2E09E2E8C0E9D1E0E94F71AF4012087C5
:100A000031874287538775C0FE01E154FD4F0E9434
:100A1000B51A60877187828793876BC0F1E0FF12F8
:100A20002DC08FEB882E82E0982E8C0E9D1E94EBAD
:100A3000692E91E0792E600E711ED30111966C9192
:100A400070E080E090E00E94B41820E030E04FE7D2
:100A500053E40E94EA17AB01BC01C4010E945C0D83
:100A600044E051E065E0F30181812ADCD40118966D
:100A70006D937D938D939C931B973BC0F11011C098
:100A8000F801EC54FE4F44E051E065E0808118DC51
:100A90000E94B418AB01BC01CE0181549D4FC5D753
:100AA00028C0B2E0FB1225C0A4EB6A2EA1E07A2E8A
:100AB000600E711E44E051E065E0F301828100DCCC
:100AC000BFEB8B2EB2E09B2E8C0E9D1E0E94B418A5
:100AD000AB01BC01C40162D744E051E065E0D30141
:100AE00012968C91EDDB0E94B418AB01BC01C401DD
:100AF0001ED7F801EC54FE4F8381C154DD4F80FFB7
:100B000003C081E0888301C01882DF91CF911F91DB
:100B10000F91FF90EF90DF90CF90BF90AF909F909C
:100B20008F907F906F905F904F903F900895DF92ED
:100B3000EF92FF920F931F93CF93DF938091330631
:100B400090913406A0913506B09136064091AC01E3
:100B50005091AD016091AE017091AF018C019D018A
:100B6000041B150B260B370B0093B0011093B1013A
:100B70002093B2013093B3018093AC019093AD0107
:100B8000A093AE01B093AF018091AB018F3120F4FF
:100B90008F5F8093AB0102C01092AB0180919601F0
:100BA000909197018F3F910509F030F40196909351
:100BB00097018093960104C01092970110929601BC
:100BC000E0910802F0E0E453FE4F8081843031F47C
:100BD0006091AB0183E192E00E94F91106EF11E010
:100BE0003CECE32E31E0F32EC0E0D0E043E5D42E20
:100BF0008091080290E08C179D07D1F4FE01E45328
:100C0000FE4F80818430A1F0FE01EE5FFD4F8081B8
:100C1000882371F0809196019091970183709927B4
:100C2000892B31F46091AB0183E192E00E94F911CC
:100C3000F70181917F018430A9F4DC9EC001DD9E23
:100C4000900D1124815C9B4FFC01E85BFF4F2091CC
:100C5000B0013091B101318320836091AB010E94DA
:100C6000B70E2CC0FE01EE5FFD4F8081882331F16D
:100C7000FE01E051FE4F808181110BC080919601F1
:100C800090919701F801608171810E94D01A892B9F
:100C9000A9F4DC9EC001DD9E900D1124815C9B4F68
:100CA0000E94B60ECE0126E0880F991F2A95E1F723
:100CB00081549D4F0ED660E08C2FCBDB21960E5FCA
:100CC0001F4FC630D10509F093CFDF91CF911F910F
:100CD0000F91FF90EF90DF90089594E0899FF001CD
:100CE0001124E60FF11DEC54FE4F4083B2CBEF927E
:100CF000FF920F931F93CF93DF9360E076E983E138
:100D000092E00E94F3116AEC70E083E192E00E94AD
:100D1000D8126BEC70E083E192E00E94DC126CEC84
:100D200070E083E192E00E94E0126BE271E083E107
:100D300092E00E94E4126DEC70E083E192E00E9488
:100D4000E8126EEC70E083E192E00E94EC126FEC2E
:100D500070E083E192E00E94F01260E571E083E1CF
:100D600092E00E94F41260ED70E083E192E00E9454
:100D7000F81266E571E083E192E00E94FC126CEFEC
:100D800070E083E192E00E94001361ED70E083E186
:100D900092E00E9404136BED70E083E192E00E9408
:100DA000081362E071E083E192E00E940C1363E2B9
:100DB00072E083E192E00E9410136DE676E083E139
:100DC00092E00E94141367E975E081E396E0E1D4B4
:100DD00000E010E067E1E62E73E5F72EE80156E04B
:100DE000CC0FDD1F5A95E1F7C154DD4F40E050E0D4
:100DF0006AE774E4CE0119D640E050E06AEF74E48B
:100E0000CE01CCD540E050E86BE375E4CE018FD540
:100E100040E050E060E07FE3CE014ED640E050E09D
:100E200060E07FE3CE01F7D64AE057ED63E27CE372
:100E3000CE0135D7E09EE001E19ED00D1124CB5CC0
:100E4000DD4F68EE73E0CE010E94BE1064EF71E0EA
:100E5000CE010E94D410F09EC001F19E900D11248D
:100E6000602F815C9B4F7FD70F5F1F4F06301105AE
:100E700009F0B4CF8091330690913406A0913506E5
:100E8000B09136068093090290930A02A0930B0258
:100E9000B0930C02DF91CF911F910F91FF90EF90D3
:100EA00008952F923F924F925F926F927F928F920E
:100EB0009F92AF92BF92CF92DF92EF92FF920F93E9
:100EC0001F93CF93DF93CDB7DEB72B970FB6F89470
:100ED000DEBF0FBECDBF8CEC91E09F838E83EAEE28
:100EE000F1E0FA83E983FDE0EF2EF2E0FF2EA7EBBD
:100EF000CA2EA1E0DA2EB1E56B2EB6E07B2E82ED94
:100F000091E09C838B8300E010E01D82212C312C2A
:100F100080E8482E8FE3582EEE81FF812191FF83D8
:100F2000EE83243009F45BC030F4213059F02330D3
:100F300009F00FC240C0253009F460C0263009F026
:100F400008C2B2C0B02E602F81E396E02B877FD31A
:100F50002B85813408F449C2F7018081811145C293
:100F60003CC2F7018081811148C2E981FA81808108
:100F7000811101C0EEC18091330690913406A09199
:100F80003506B0913606EB81FC814081518162814A
:100F90007381841B950BA60BB70B4597A105B10573
:100FA00008F4D7C1E981FA81108240E06B2D81E31A
:100FB00096E048D3CEC1602F81E396E048D3F30199
:100FC0009081891709F4C5C1602F81E396E03FD372
:100FD000482F602F83E192E00E940312BAC1F8010A
:100FE000E856FE4F80818111B4C1F3E5F09FC00146
:100FF000F19F900D1124815C9B4F39C0F6018081D7
:1010000084FF0BC0602F81E396E021D3F301908130
:10101000891719F060E0802F1CDAF601808185FFC6
:1010200004C0602F81E396E012D3F601808186FF31
:101030000BC0602F81E396E00AD3F30190818917FA
:1010400019F062E0802F05DAF801EC55FE4F80813F
:10105000882381F0F3E5F09F5001F19FB00C11243B
:101060008FE394E0A80EB91EC5019AD7C5010E946E
:10107000681017C097E1909FF001919FF00D112427
:10108000EB5CFD4F8385948520893189820F931F06
:10109000948783876091940170919501CF010E949C
:1010A0009511B82E482F50C1F60180815801E6E015
:1010B000AA0CBB1CEA95E1F782FF1CC095012154E4
:1010C0003D4F81E0F9018183902E602F81E396E00E
:1010D0002B873A87BCD22B853A85813408F49BC193
:1010E000F7018081811197C18BC1F7018081811146
:1010F0009AC11FC0C50181549D4F99878887FC0103
:101100001182902E602F81E396E0A1D2813408F401
:101110008DC1F7018081811189C190C1F701808162
:10112000811192C106C084E090E0E885F98593833F
:101130008283F501E154FD4FF987E887828193812D
:101140008230910509F489C034F40097C1F1019708
:1011500009F0EAC03BC08430910509F4B0C005979E
:1011600009F0E2C0E885F98584819581A681B7817F
:101170000196A11DB11D84839583A683B783408505
:1011800051856285738584179507A607B70784F094
:1011900014821582168217828181882319F084E0D7
:1011A00090E004C082E090E0E885F9859383828333
:1011B000E885F9852486358646865786B5C0E88554
:1011C000F9858181882309F4AFC0A7C0E885F98536
:1011D000248D358D468D578D6485758586859785DB
:1011E0000E94441AE885F98524A935A946A957A97A
:1011F0000E948217862E972EA82EB92EE885F98593
:1012000084869586A686B78620E030E040E85FE3D6
:101210000E948B1987FD88C0E885F985248635866C
:10122000468657868081882349F085E090E0938345
:101230008283148215821682178276C0E885F9852A
:101240008181882329F084E090E0938382836CC0BD
:1012500082E090E0E885F985F8CFE885F98520A15E
:1012600031A142A153A164857585868597850E9429
:10127000441AE885F98520AD31AD42AD53AD0E94E9
:101280008217862E972EA82EB92EE885F98584869A
:101290009586A686B78680A491A4A2A4B3A4A5012E
:1012A00094010E94E61718160CF43EC0E885F985F3
:1012B00084869586A686B78683E090E0C6CFE885CB
:1012C000F98524A135A146A157A164857585868538
:1012D00097850E94441AE885F98524AD35AD46AD61
:1012E00057AD0E948217862E972EA82EB92EE8851C
:1012F000F98584869586A686B78620E030E0A90128
:101300000E94E617181684F0E885F985148615867C
:10131000168617868181882319F081E090E095CFA9
:10132000E885F9851382128220E030E04FE753E42C
:10133000E885F98564857585868597850E94441AB8
:101340000E948318462FB62E602F81E396E07AD153
:1013500001C0B12C2091080230E00217130709F4F4
:10136000BD820F5F1F4F89819A8101969A8389837D
:101370009FEFE91AF90AE4E0CE0ED11CFFEF6F1AD5
:101380007F0A8B819C8104969C838B830630110598
:1013900009F0C2CDF901E856FE4F808181115EC08F
:1013A0004D8166E081E396E02B960FB6F894DEBFA0
:1013B0000FBECDBFDF91CF911F910F91FF90EF90A6
:1013C000DF90CF90BF90AF909F908F907F906F9065
:1013D0005F904F903F902F9035C1F7012083602F91
:1013E00083E192E00E94FE11C0CD6B2D81E396E077
:1013F0002ED1813408F4B5CDB8CDF7011082B5CD2A
:1014000081E0F7018083F901138212821486158628
:10141000168617868ECE692D81E396E018D1813429
:1014200008F463CE86CEF701108283CE692D81E366
:1014300096E00DD1813408F471CE7BCE21E0F70126
:10144000208381E090E071CEF7011082E885F98574
:1014500082819381892B09F066CE6BCE2B960FB6D5
:10146000F894DEBF0FBECDBFDF91CF911F910F91DA
:10147000FF90EF90DF90CF90BF90AF909F908F90B4
:101480007F906F905F904F903F902F90089581E3F1
:1014900096E0AAD181E396E0DFD081E396E02BC10C
:1014A0000F931F938091330690913406A0913506D7
:1014B000B09136064091090250910A0260910B02E8
:1014C00070910C0284179507A607B70799F08093CF
:1014D000090290930A02A0930B02B0930C02809130
:1014E00094019091950101969093950180939401B8
:1014F000D8DCCDDF83E192E08AD7809133069091EA
:101500003406A0913506B091360640919001509175
:10151000910160919201709193018C019D01041BD6
:10152000150B260B370B053611052105310558F033
:101530008093900190939101A0939201B0939301B5
:101540001F910F91F4CA1F910F9108950E94551693
:10155000CEDBA6DFFECFCF93DF93CFEBD2E0CE0181
:10156000DBD2C05CDF4F84E0CF33D807C1F7DF9117
:10157000CF910895CF93DF93CFE3D4E0C054D10946
:10158000CE01A6D182E0CF3BD807C1F7DF91CF9142
:101590000895FC014281538164817581AB01662706
:1015A0007727CA01089580E090E00895089580E0CB
:1015B000089508950895089580E008950895089580
:1015C000089580E008950895089508956091B30006
:1015D00089E09DE370E00E94D01ACB01089580E479
:1015E00080937C00EAE7F0E080E880838081876078
:1015F00080830895ECE7F0E090819077908390816C
:10160000982B908321E030E0082E01C0220F0A942D
:10161000EAF720937E000895EAE7F0E08081806495
:101620008083089580917A00829581700895209139
:10163000780030917900932F80E0AC01422B9A0121
:10164000C9010895860F911DFC0142870895860FF8
:10165000911DFC01828D08950F931F93CF93DF930B
:10166000EC01E0DF882309F441C08EA18E01080F50
:10167000111DF801828D80A3DADF969587959695E6
:101680008795F801828F2EA1FE01E20FF11D80A146
:1016900090E0328D831B910997FF03C0919581954E
:1016A00091093FA141E050E060E070E0022E04C0EB
:1016B000440F551F661F771F0A94D2F7029714F044
:1016C000432B02C0409543234FA32F5F263010F4D5
:1016D0002EA301C01EA2EEA1F0E0EE58FE4F8081C5
:1016E00089DFDF91CF911F910F9196CFDF91CF913D
:1016F0001F910F910895FC0180E081872A9AA185AE
:10170000B0E0A858BE4F9C919EBD0DB407FEFDCF22
:101710009EB59185DF01A90FB11D1A969C919EBDC2
:101720000DB407FEFDCF9EB52A989185DF01A90F64
:10173000B11D1A969C911A9752969C938F5F873091
:10174000E1F608950F931F93CF93DF938C01C0E0D0
:10175000D0E0F801C187EC0FFD1F1286C801CBDF76
:101760002196C830D105A9F7DF91CF911F910F9134
:101770000895CF93DF93EC0179D081E08DD081E0A3
:1017800099D084E092D02A981986CE01DF91CF912A
:10179000D9CF0F931F93CF93DF93EC018B01F89474
:1017A00053985B9A229A219A209AE3DF18870F8335
:1017B00082E08093B000E0E7F0E080818260808387
:1017C00087E08093B1008FE08093B3001092B20065
:1017D00006DF1EA280E00EDF1FDF1FA27894DF91DC
:1017E000CF911F910F9108951F93CF93DF93EC0139
:1017F000EF81F885309761F019B113FB112710F9CB
:1018000081E0182721F08E81811101C009951E8386
:10181000DF91CF911F9108951F920F920FB60F92F3
:1018200011248F939F93AF93BF93EF93FF93E1E3C3
:10183000F6E082819381A481B5810196A11DB11D3D
:1018400082839383A483B583FF91EF91BF91AF917E
:101850009F918F910F900FBE0F901F90189582E56A
:1018600091E09093320680933106089561E08AE01A
:101870000E94F21661E08AE00E94BA168CB580617F
:101880008CBD8CB580648CBD61E08DE00E94BA1681
:1018900061E08BE00C94BA16811103C08CB58062B4
:1018A00002C08CB58F7D8CBD08959CB5937F982B1D
:1018B0009CBD08952CB5982F93702C7F922B9CBDC6
:1018C0009DB582FB882780F99E7F982B9DBD08954A
:1018D000089508958F929F92AF92BF92CF92DF9218
:1018E000EF92FF920F931F934A015B016801790108
:1018F00020E030E040E85FE3C701B6010E948217B4
:10190000A70196010E94EA170E94D1199058A501DB
:1019100094010E94EA171F910F91FF90EF90DF90C2
:10192000CF90BF90AF909F908F900C945718CF920C
:10193000DF92EF92FF920F931F93CF93DF93EC010F
:10194000488F598F6A8F7B8FC8A8D9A8EAA8FBA8AF
:1019500097018601BFDF9B01AC016CA37DA38EA321
:101960009FA3F7FAF094F7F8F09460E070E080E855
:101970009FE30E9481179B01AC01C701B6010E9441
:10198000441A6CAF7DAF8EAF9FAFDF91CF911F91A7
:101990000F91FF90EF90DF90CF9008958F929F92DC
:1019A000AF92BF92CF92DF92EF92FF920F931F936D
:1019B000CF93DF93EC014C8B5D8B6E8B7F8BC8A834
:1019C000D9A8EAA8FBA89701860184DF4B015C0136
:1019D00068A379A38AA39BA3A701960168A579A50B
:1019E0008AA59BA50E9481176B017C01A50194012A
:1019F00060E070E080E89FE30E9481179B01AC01EA
:101A0000C701B6010E94441A68AF79AF8AAF9BAF95
:101A1000DF91CF911F910F91FF90EF90DF90CF90CA
:101A2000BF90AF909F908F9008958F929F92AF92AA
:101A3000BF92CF92DF92EF92FF920F931F93CF93BB
:101A4000DF93EC01488B598B6A8B7B8BCCA4DDA494
:101A5000EEA4FFA4970186013DDF4B015C016C8F72
:101A60007D8F8E8F9F8F20E030E040E85FE3C701DD
:101A7000B6010E9482176B017C01A501940160E010
:101A800070E080E89FE30E9481179B01AC01C701D1
:101A9000B6010E94441A6CAB7DAB8EAB9FABDF915D
:101AA000CF911F910F91FF90EF90DF90CF90BF905B
:101AB000AF909F908F900895CF92DF92EF92FF9218
:101AC000CF93DF93EC01CB01BA0168A779A78AA76E
:101AD0009BA728A939A94AA95BA90E9481176B0174
:101AE0007C0128A139A14AA15BA160E070E080E8F7
:101AF0009FE30E9481179B01AC01C701B6010E94C0
:101B0000441A68AF79AF8AAF9BAFDF91CF91FF9056
:101B1000EF90DF90CF900895CF92DF92EF92FF92F7
:101B2000CF93DF93EC011B821A821C861D861E86D2
:101B30001F8640E050E0BA0178DF40E050E0BA0193
:101B4000CE012CDF40E050E0BA01CE01F0DE40E0F3
:101B500050E060E87FE3CE01AFDF8AE999E9A9E9C7
:101B6000BEE38CA79DA7AEA7BFA72C8D3D8D4E8D44
:101B70005F8D60E070E080E89FE30E94811726E6B9
:101B800036E646EA5FE30E94441A6CAB7DAB8EAB4F
:101B90009FAB87E197EBA1EDB8E388AB99ABAAAB1C
:101BA000BBAB9C01AD0168A579A58AA59BA50E9448
:101BB00081176B017C0128A139A14AA15BA160E0DA
:101BC00070E080E89FE30E9481179B01AC01C70190
:101BD000B6010E94441A68AF79AF8AAF9BAF2CA1BF
:101BE0003DA14EA15FA160E070E080E89FE30E940C
:101BF000811727E137EB41ED58EB0E94441A6CAF97
:101C00007DAF8EAF9FAF1982DF91CF91FF90EF90A4
:101C1000DF90CF900895CF92DF92EF92FF92CF9313
:101C2000DF93EC016A017B012FE530E749E850E3DF
:101C3000C701B6010E94E61787FF08C08FE5C82ECE
:101C400080E7D82E89E8E82E80E3F82ECCA6DDA622
:101C5000EEA6FFA620E030E040E85FE3C701B60152
:101C60000E9482176B017C012C8D3D8D4E8D5F8D06
:101C700060E070E080E89FE30E9481179B01AC0167
:101C8000C701B6010E94441A6CAB7DAB8EAB9FAB13
:101C9000DF91CF91FF90EF90DF90CF9008958F92DA
:101CA0009F92AF92BF92CF92DF92EF92FF92CF932B
:101CB000DF93EC016A017B012FE530E749E850E34F
:101CC000C701B6010E94E61787FF08C09FE5C92E2D
:101CD00090E7D92E99E8E92E90E3F92EC8AAD9AA5F
:101CE000EAAAFBAAA701960168A579A58AA59BA5E2
:101CF0000E9481174B015C0128A139A14AA15BA177
:101D000060E070E080E89FE30E9481179B01AC01D6
:101D1000C501B4010E94441A68AF79AF8AAF9BAF86
:101D2000F7FAF094F7F8F0942CA13DA14EA15FA131
:101D300060E070E080E89FE30E9481179B01AC01A6
:101D4000C701B6010E94441A6CAF7DAF8EAF9FAF42
:101D5000DF91CF91FF90EF90DF90CF90BF90AF9049
:101D60009F908F900895FC016183089508954F928C
:101D70008F929F92AF92BF92CF92DF92EF92FF929B
:101D80000F931F93CF93DF93EC01962EFC01EE5A35
:101D9000FF4F6083FC01EB5BFF4F4080642D70E0E0
:101DA00080E090E0FE01E85BFF4F208131818901F6
:101DB0001F921F921F932F93A12CB12C6501A39406
:101DC000E12CF12C8701EA9420E030E0A901DED675
:101DD0008B01FE01E05BFF4F718360830F900F90DA
:101DE0000F900F908A81882309F47EC02EE1291577
:101DF000E8F17E01E90CF11CF701648170E080E0FC
:101E000090E00E94B4184B015C01F701638170E01F
:101E100080E090E00E94B418E980F8E0EF9E700145
:101E2000112429E536E0E20EF31E2FB7F894F701EE
:101E300060837183828393832FBF208131814281AC
:101E40005381C501B4010E9481174B015C01B801A7
:101E500080E090E00E94B4189B01AC01C501B40180
:101E60000E94EA17AB01BC01F7013AC06B8170E038
:101E700080E090E00E94B4186B017C01FE01E90D46
:101E8000F11D638170E080E090E00E94B4188980C9
:101E9000F8E08F9E4001112429E536E0820E931E62
:101EA0002FB7F894F40160837183828393832FBFEB
:101EB0002081318142815381C701B6010E9481177F
:101EC0006B017C01B80180E090E00E94B4189B0196
:101ED000AC01C701B6010E94EA17AB01BC01F401D5
:101EE0004483558366837783C25BDF4F19821882F0
:101EF000DF91CF911F910F91FF90EF90DF90CF90E6
:101F0000BF90AF909F908F904F900895FC0142A199
:101F100020E030E0FC01E20FF31F51A152A3215059
:101F20003109213EFFEF3F07A9F7FC0143830895E4
:101F3000CF93DF93EC01EADF20E430E040E050E0B3
:101F400060E070E0CB0105D62C8130E02F513109E3
:101F5000260F371F2F3F310509F01CF437FD04C051
:101F600005C02FEF30E002C020E030E02B83DF918E
:101F7000CF910895FC01EE5BFF4F50819C014FE132
:101F8000F901EF5BFF4F6081F901EE5BFF4F60836A
:101F90004150215031094111F3CFFC0153A3089561
:101FA0004F925F926F927F928F929F92AF92BF9269
:101FB000CF92DF92EF92FF920F931F93CF93DF9315
:101FC000EC01FC01E65BFF4F8081918101969183DA
:101FD0008083DE01A85BBF4F2D913C918217930750
:101FE000B8F011821082FE01EC5BFF4F80818F31CF
:101FF00018F48F5F808301C010828A81811108C02C
:102000008881811103C0CE0193DF02C0CE017EDF43
:102010004E018CE4880E911CF4018081918101961F
:1020200091838083FE01EA5BFF4F40805180B201C3
:1020300080E090E0FE01E85BFF4F208131812901C3
:102040001F921F925F922F93A12CB12C6501EE2459
:10205000EA9417E0F12E00E010E020E030E0A90162
:1020600095D50F900F900F900F90F4012081318142
:102070002617370730F0118210829B80CE017ADF5D
:102080009BA2DF91CF911F910F91FF90EF90DF9076
:10209000CF90BF90AF909F908F907F906F905F9008
:1020A0004F90089520E030E040E050E0FC01E20F66
:1020B000F31F63A1460F511D2F5F3F4F20323105A3
:1020C000A9F7CA0155E0969587955A95E1F70895C5
:1020D0001F93CF93DF93FC012281222309F43FC099
:1020E000E25BFF4F20813181DC01A05BBF4F4D914E
:1020F0005C912417350728F52F5F3F4F31832083EC
:10210000FC01C181F8E0CF9FE0011124C75AD94FEB
:102110001FB7F8942C813D814E815F816881798160
:102120008A819B81EFD6AB01BC01488359836A83C6
:102130007B831FBF688179818A819B81E9D7862F44
:1021400019C0FC01EE5AFF4F20812F3119F4FC0118
:10215000838110C0FC01E20FF11D84810BC0FC01E2
:10216000EA5BFF4F20813181232B89F3DF91CF91EF
:102170001F9198CFDF91CF911F910895FC0111829B
:102180001082158214828FEF808781E090E0928721
:102190008187158617821682148A1282138214860A
:1021A0001386778766870895CF93DF93EC019B01B1
:1021B00061157105A1F07695679580E090E0019634
:1021C00040E050E00E94F71AC901398B288B8C59E6
:1021D0009F4F26E0969587952A95E1F78B8BDF91A7
:1021E000CF910895FC01718360830895FC0162839F
:1021F0000895FC0163830895CF93DF93EC01262FAC
:1022000030E02F5F3F4F442737FD4095542F60E06B
:1022100070E081E090E00E94F71A225031093D837E
:102220002C83DF91CF9108951F93CF93DF93EC011F
:102230002B853C854E815F81B901641B750B8C81B8
:102240009D816817790710F48A896BC0832F9927BD
:10225000182F3F832E838D872B81282309F060C0A0
:10226000288139812230310581F5151B8D899E89A0
:10227000811B91099E8B8D8B1816190664F06B8952
:10228000660F80E091D09B89891B8C8B68E28AE085
:102290008BD08D8B1E8A89859A85019781F44C8914
:1022A0002A894103C0011124820F911D288530E045
:1022B0002817390714F097FF02C041954C8B9C8971
:1022C0008A89199F800D112407C02115310521F03D
:1022D0002130310571F402C08A8B0BC087FD03C029
:1022E000110F1A8B06C02FEF30E0281B390B220F7D
:1022F0002A8B8A894885481770F429853A85642F86
:102300000E94C41A232B09F405C080FF03C0491B97
:102310004A8B01C09A8B8A819A8989278A8B01C04E
:1023200080E0DF91CF911F9108952091890630912F
:102330008A0611C0DC011B964D915C911C9750964A
:10234000ED91FC9151974E0F5F1F1C965C934E933D
:102350001B972F5F3F4F2617370761F730938A0689
:102360002093890661CF20912C0130912D01C90164
:102370009695982F882797958795822793279C0174
:10238000232F332726952695269528273927C901F7
:10239000880F991F880F991F8227932790932D01EB
:1023A00080932C01892F08951F93CF93DF93182FCB
:1023B000C62FD0E0C81BD1092196D5DF8E3F20F46F
:1023C000D2DF282F30E002C02EEF30E02C9FA0019A
:1023D0002D9F500D3C9F500D1124812F850FDF91B3
:1023E000CF911F9108958BE896E022C18BE896E08B
:1023F00071C1462F62E08BE896E020C1462F64E071
:102400008BE896E01BC1625E8BE896E017C1EF9205
:10241000FF920F931F93CF93DF931F92CDB7DEB739
:102420007C010AE010E08BE896E019D1882309F4DA
:10243000B7C08BE896E048D1282F8BE896E0298337
:1024400046D1482F2981243049F138F42230D1F087
:10245000F8F4213009F045C008C0263059F120F1C8
:10246000273071F12830E9F531C0813029F08BE84F
:1024700096E0498332D14981D7011296ED91FC91C2
:10248000139729C0D7011496ED91FC91159723C09D
:10249000D7011696ED91FC9117971DC0D70118969C
:1024A000ED91FC91199717C0D7011A96ED91FC9107
:1024B0001B9711C0D7011C96ED91FC911D970BC085
:1024C000D7011E96ED91FC911F9705C0D70150963C
:1024D000ED91FC915197309709F4A5CF842F099580
:1024E000A2CF822F8A508A3030F4D7015296ED91D4
:1024F000FC9153973BC0822F84518A3030F4D7012E
:102500005496ED91FC91559731C0822F8E518A30AF
:1025100030F4D7015696ED91FC91579727C0822F42
:1025200088528A3030F4D7015896ED91FC91599732
:102530001DC0822F82538A3030F4D7015A96ED9114
:10254000FC915B9713C0822F8C538A3030F4D701F3
:102550005C96ED91FC915D9709C0822F86548A307C
:1025600058F4D7015E96ED91FC915F97309709F48E
:102570005ACF642F099557CF243608F454CFD7018A
:102580009096ED91FC919197309709F44CCF822F62
:1025900090E084569109B8010E94E41A099543CF4E
:1025A0000F90DF91CF911F910F91FF90EF900895C1
:1025B000FC01738362830895FC017583648308952D
:1025C000FC01778366830895FC0171876087089515
:1025D000FC01738762870895FC01758764870895FD
:1025E000FC01778766870895FC01718B608B0895E5
:1025F000FC01738B628B0895FC01758B648B0895CD
:10260000FC01778B668B0895FC01718F608F0895B4
:10261000FC01738F628F0895FC01758F648F08959C
:10262000FC01778F668F0895FC0171A360A3089564
:10263000AB0160E070E08EE896E064C1CF93DF9379
:102640001F92CDB7DEB78EE896E04983A9D04981C5
:10265000642F8EE896E00F90DF91CF91A1C0CF93C9
:10266000DF93EC018EE896E03DD0892B39F18A8129
:1026700081110EC08EE896E064D0888391E09A8341
:10268000893031F48981893019F41A8218821982CB
:102690008A81813091F48EE896E024D0892B71F004
:1026A0008EE896E04ED089831A829881993041F461
:1026B000893031F41882198203C003C080E001C060
:1026C00081E0DF91CF910895FC0180810895FC01A4
:1026D0008181089549E069E0B1CFFC011282108246
:1026E00011820895FC0184859585FC01E05CFF4F13
:1026F00020813181FC01EE5BFF4F80819181281B9D
:10270000390B2F733327C9010895FC018485958502
:10271000FC01E05CFF4F40815181FC01EE5BFF4F0B
:10272000208131814217530741F00190F081E02D63
:10273000E80FF91F208130E002C02FEF3FEFC90101
:102740000895FC0184859585FC01E05CFF4F408184
:102750005181FC01EE5BFF4F20813181421753070D
:1027600081F0A081B181A80FB91F8C9120813181A6
:102770002F5F3F4F2F73332731832083282F30E083
:1027800002C02FEF3FEFC9010895FC0181A188230A
:1027900029F0A489B5898C9186FFFBCF11A20895F9
:1027A000CF93DF93FC0126853785D901A05CBF4F0D
:1027B0008D919C91119701968F739927E901CE5BBA
:1027C000DF4F4881598184179507D9F30D90BC914B
:1027D000A02DA20FB31F6C93A685B785A05CBF4F39
:1027E00011969C938E93A689B7892C9181E090E0F5
:1027F000078C02C0880F991F0A94E2F7282B2C93AC
:1028000081E081A30488F589E02D80818064808344
:1028100081E090E0DF91CF9108951F920F920FB663
:102820000F9211242F933F934F938F939F93EF9386
:10283000FF938091C00082FD1CC04091C600809132
:1028400034079091350701968F73992720913607A9
:10285000309137078217930771F0E0913407F091B8
:102860003507EC50F94F4083909335078093340738
:1028700002C08091C600FF91EF919F918F914F917F
:102880003F912F910F900FBE0F901F9018951F92A0
:102890000F920FB60F9211242F933F938F939F9314
:1028A000EF93FF932091F0063091F1068091F206AC
:1028B0009091F3062817390731F48091C1008F7D7C
:1028C0008093C10014C0E091F206F091F306E05548
:1028D000F94F20818091F2069091F30601968F7353
:1028E00099279093F3068093F2062093C600FF91F8
:1028F000EF919F918F913F912F910F900FBE0F906D
:102900001F901895CF92DF92EF92FF92CF93DF93B3
:10291000EC016A017B01411581EE580761057105E3
:10292000F1F0EC89FD8981E090E008A002C0880FF9
:10293000991F0A94E2F7808360E079E08DE390E0EC
:10294000A701960154D621503109410951095695E4
:10295000479537952795211580E1380790F0EC8948
:10296000FD89108260E874E88EE190E0A70196018D
:102970003ED6215031094109510956954795379561
:102980002795E889F9893083EA89FB89208319A290
:10299000EE89FF89408181E090E09C010C8C02C0AF
:1029A000220F331F0A94E2F7422B4083EE89FF89FE
:1029B00040819C010D8C02C0220F331F0A94E2F764
:1029C000422B4083EE89FF8940819C010E8C02C01E
:1029D000220F331F0A94E2F7422B4083EE89FF89CE
:1029E00020810F8C02C0880F991F0A94E2F780950E
:1029F00082238083DF91CF91FF90EF90DF90CF9083
:102A00000895109291061092900688EE93E0A0E04F
:102A1000B0E08093920690939306A0939406B093AF
:102A2000950684E891E090938F0680938E0684EF5C
:102A300096E090939B0680939A0680EB96E09093A5
:102A40009D0680939C0685EC90E090939F06809372
:102A50009E0684EC90E09093A1068093A00680EC03
:102A600090E09093A3068093A20681EC90E090936F
:102A7000A5068093A40682EC90E09093A70680932D
:102A8000A60686EC90E09093A9068093A80684E0C1
:102A90008093AA0683E08093AB0687E08093AC0620
:102AA00085E08093AD0681E08093AE060895CF92D5
:102AB000DF92EF92FF920F931F93CF93DF936C01FE
:102AC000EB017A01E60EF71E00E010E00BC0699101
:102AD000D601ED91FC910190F081E02DC6010995A0
:102AE000080F191FCE15DF0591F7C801DF91CF91AF
:102AF0001F910F91FF90EF90DF90CF9008950F936B
:102B00001F93CF93DF9300D000D0CDB7DEB79B01EA
:102B1000AC01611571058105910569F069833A83FE
:102B20004B835C83E0D129813A814B815C8181D5E3
:102B30008B019C0103C000E010E09801B801C901BD
:102B40000F900F900F900F90DF91CF911F910F91E9
:102B50000895CF92DF92EF92FF926B017C01621792
:102B60007307840795075CF4CA01B9016C197D09E4
:102B70008E099F09C4DFC60ED71EE81EF91EB601D6
:102B8000C701FF90EF90DF90CF9008954F925F9232
:102B90006F927F92AF92BF92CF92DF92EF92FF92AD
:102BA0000F931F93CF93DF93CDB7DEB729013A017F
:102BB000621B730B840B950B29893A894B895C89BD
:102BC0002A193B094C095D09298B3A8B4B8B5C8B8D
:102BD0009B01AC0169897A898B899C89C6D4E418E8
:102BE000F50806091709A801970123D52A0D3B1DF1
:102BF0004C1D5D1DB901CA01DF91CF911F910F914D
:102C0000FF90EF90DF90CF90BF90AF907F906F904C
:102C10005F904F9008951F920F920FB60F9211245C
:102C20002F933F938F939F93AF93BF9380913807D8
:102C300090913907A0913A07B0913B073091400736
:102C4000232F2D5F2D3720F40196A11DB11D05C046
:102C5000232F2A570296A11DB11D20934007809370
:102C6000380790933907A0933A07B0933B078091B8
:102C70003C0790913D07A0913E07B0913F07019618
:102C8000A11DB11D80933C0790933D07A0933E0783
:102C9000B0933F07BF91AF919F918F913F912F913B
:102CA0000F900FBE0F901F901895789484B5826096
:102CB00084BD84B5816084BD85B5826085BD85B5E0
:102CC000816085BDEEE6F0E0808181608083E1E88F
:102CD000F0E01082808182608083808181608083C7
:102CE000E0E8F0E0808181608083E1EBF0E08081CA
:102CF00084608083E0EBF0E0808181608083EAE79C
:102D0000F0E0808184608083808182608083808124
:102D1000816080838081806880831092C1000895E3
:102D2000833069F028F48130A1F0823011F514C0AD
:102D30008630B1F08730C1F08430D9F404C080917E
:102D400080008F7703C0809180008F7D809380000A
:102D5000089584B58F7702C084B58F7D84BD0895B2
:102D60008091B0008F7703C08091B0008F7D8093F9
:102D7000B0000895CF93DF9390E0FC01E250FF4F45
:102D80004491FC01EE5EFE4F8491882341F190E076
:102D9000880F991FFC01E05DFE4F25913491D90108
:102DA0008A5D9E4FFC0185919491C82FD92F9FB7C2
:102DB000F8948C91611106C0409584238C9388818E
:102DC000842308C0623041F4242F209582238C9301
:102DD0008881842B888302C0842B8C939FBFDF91D2
:102DE000CF9108950F931F93CF93DF931F92CDB789
:102DF000DEB7282F30E0F901E651FF4F8491F90149
:102E0000E250FF4F1491F901EE5EFE4F0491002352
:102E1000C9F0882319F0698383DF6981E02FF0E02E
:102E2000EE0FFF1FEA5DFE4F85919491DC019FB785
:102E3000F8948C91611103C01095812301C0812BFE
:102E40008C939FBF0F90DF91CF911F910F910895A9
:102E50008F929F92AF92BF92CF92DF92EF92FF92AA
:102E6000CF93DF93EC01688179818A819B81611521
:102E700071058105910521F464E279ED8BE597E018
:102E80002DE133EF41E050E0D4D349015A019B01D9
:102E9000AC01A7EAB1E4E8D36B017C01ACEEB4EF7E
:102EA000A5019401EDD3C60ED71EE81EF91EF7FE4C
:102EB00006C081E0C81AD108E10880E8F80AC88293
:102EC000D982EA82FB82E894F7F8B601C701DF9164
:102ED000CF91FF90EF90DF90CF90BF90AF909F90F9
:102EE0008F900895B5CF80E091E0B2CF609300015C
:102EF0007093010180930201909303010895F89467
:102F0000D5C35058BB27AA270ED0CBC1BCD130F0B7
:102F1000C1D120F031F49F3F11F41EF48CC10EF4A6
:102F2000E095E7FB82C1E92FCDD180F3BA176207A4
:102F300073078407950718F071F49EF5E5C10EF448
:102F4000E0950B2EBA2FA02D0B01B90190010C01B9
:102F5000CA01A0011124FF27591B99F0593F50F4D1
:102F6000503E68F11A16F040A22F232F342F442729
:102F7000585FF3CF469537952795A795F040539521
:102F8000C9F77EF41F16BA0B620B730B840BBAF0F1
:102F90009150A1F0FF0FBB1F661F771F881FC2F75C
:102FA0000EC0BA0F621F731F841F48F48795779570
:102FB0006795B795F7959E3F08F0B3CF9395880F27
:102FC00008F09927EE0F9795879508950AD108F490
:102FD00081E008950CD065C15DD140F054D130F04E
:102FE00021F45F3F19F021C151118FC124C16AD171
:102FF00098F39923C9F35523B1F3951B550BBB27C0
:10300000AA2762177307840738F09F5F5F4F220F6C
:10301000331F441FAA1FA9F333D00E2E3AF0E0E865
:1030200030D091505040E695001CCAF729D0FE2FB1
:1030300027D0660F771F881FBB1F26173707480743
:10304000AB07B0E809F0BB0B802DBF01FF279358F9
:103050005F4F2AF09E3F510568F0E7C056C15F3FC1
:10306000ECF3983EDCF3869577956795B795F795E1
:103070009F5FC9F7880F911D9695879597F90895D9
:10308000E1E0660F771F881FBB1F62177307840775
:10309000BA0720F0621B730B840BBA0BEE1F88F784
:1030A000E095089519F40EF0C0C02EC1C4C012D12D
:1030B000C8F39638C0F707F80F92E8942BE33AEA82
:1030C00048EB5FE7EFD10F920F920F924DB75EB7CB
:1030D0000F92A7D1E8E6F0E0B1D04F915F91EF9168
:1030E000FF91E595EE1FFF1F49F0FE57E06844276A
:1030F000EE0F441FFA95E1F74195550B19D10F904A
:1031000007FE0DC1089504D06894B111FEC0089562
:10311000E1D088F09F5790F0B92F9927B751A0F0D0
:10312000D1F0660F771F881F991F1AF0BA95C9F75B
:1031300012C0B13081F0E8D0B1E00895E5C0672F4A
:10314000782F8827B85F39F0B93FCCF3869577950B
:103150006795B395D9F73EF49095809570956195F4
:103160007F4F8F4F9F4F0895E89409C097FB3EF41F
:1031700090958095709561957F4F8F4F9F4F9923C4
:10318000A9F0F92F96E9BB279395F6958795779542
:103190006795B795F111F8CFFAF4BB0F11F460FF02
:1031A0001BC06F5F7F4F8F4F9F4F16C0882311F05A
:1031B00096E911C0772321F09EE8872F762F05C06E
:1031C000662371F096E8862F70E060E02AF09A9509
:1031D000660F771F881FDAF7880F9695879597F9FE
:1031E0000895990F0008550FAA0BE0E8FEEF161698
:1031F0001706E807F907C0F012161306E407F507EB
:1032000098F0621B730B840B950B39F40A2661F05E
:10321000232B242B252B21F408950A2609F4A14001
:10322000A6958FEF811D811D089597F99F6780E80E
:1032300070E060E008959FEF80EC0895DF93CF93F6
:103240001F930F93FF92EF92DF927B018C016894A2
:1032500005C0DA2EEF0124D1FE01E894A591259155
:10326000359145915591AEF3EF015DDEFE01970179
:10327000A801DA9479F7DF90EF90FF900F911F91FA
:10328000CF91DF91089500240A94161617061806A8
:103290000906089500240A9412161306140605065A
:1032A0000895092E0394000C11F4882352F0BB0FEB
:1032B00040F4BF2B11F460FF04C06F5F7F4F8F4F4E
:1032C0009F4F089557FD9058440F551F59F05F3F89
:1032D00071F04795880F97FB991F61F09F3F79F038
:1032E00087950895121613061406551FF2CF4695BA
:1032F000F1DF08C0161617061806991FF1CF86953C
:103300007105610508940895E894BB27662777271F
:10331000CB0197F9089565DF08F48FEF08959B01BD
:10332000AC0160E070E080E89FE354CE7ECF0FC137
:10333000D1DFE8F39923D9F3940F511DBBF39150DA
:10334000504094F059F0882332F0660F771F881FA1
:1033500091505040C1F79E3F510544F7880F911D91
:103360009695879597F908955F3FACF0983E9CF04D
:10337000BB27869577956795B79508F4B1609395C7
:10338000C1F7BB0F58F711F460FFE8CF6F5F7F4FB5
:103390008F4F9F4FE3CFB9CF0EF0D9C04CCF689479
:1033A00044CF98DFC8F39923D1F3C6F3DF93CF93CB
:1033B0001F930F93FF92C92FDD2788232AF02197AF
:1033C000660F771F881FDAF720E030E040E85FEBF8
:1033D0009FE3883920F0803E30F021968F7792DD90
:1033E000E0E9F0E003C08EDDEDEBF0E027DF8B01DC
:1033F000BE01EC01FB2E6F5771097595771F880B85
:10340000990BB4DE28E132E741E35FE349D0AF2D09
:103410009801AE01FF900F911F91CF91DF9183DD55
:1034200040CFFA01DC01AA0FBB1F9B01AC01BF57C3
:1034300028F422273327442750781FC0B75188F437
:10344000AB2F0024469537952795011CA395D2F301
:10345000002069F0220F331F441FB395DAF30DD01B
:1034600050CD61307105A0E88A07B94630F49B0160
:10347000AC016627772788279078309621F0208343
:1034800031834283538308950BD00BCFFCDE28F0A9
:1034900001DF18F0952309F0C8CECDCE112435CF29
:1034A00011DFA0F3959FD1F3950F50E0551F629F58
:1034B000F001729FBB27F00DB11D639FAA27F00D8D
:1034C000B11DAA1F649F6627B00DA11D661F829FB4
:1034D0002227B00DA11D621F739FB00DA11D621F99
:1034E000839FA00D611D221F749F3327A00D611DB6
:1034F000231F849F600D211D822F762F6A2F112498
:103500009F5750408AF0E1F088234AF0EE0FFF1FEA
:10351000BB1F661F771F881F91505040A9F79E3F21
:10352000510570F082CEF1CE5F3FECF3983EDCF3B4
:10353000869577956795B795F795E7959F5FC1F75E
:10354000FE2B880F911D9695879597F908959F3FBB
:1035500031F0915020F4879577956795B795880F4E
:10356000911D9695879597F90895DB018F939F9309
:103570007BD0BF91AF91A29F800D911DA39F900D15
:10358000B29F900D11240895991B79E004C0991FF2
:10359000961708F0961B881F7A95C9F780950895AD
:1035A000AA1BBB1B51E107C0AA1FBB1FA617B70769
:1035B00010F0A61BB70B881F991F5A95A9F7809585
:1035C0009095BC01CD01089597FB072E16F4009449
:1035D00006D077FD08D0E4DF07FC05D03EF49095D7
:1035E00081959F4F0895709561957F4F0895A1E251
:1035F0001A2EAA1BBB1BFD010DC0AA1FBB1FEE1F6D
:10360000FF1FA217B307E407F50720F0A21BB30BB7
:10361000E40BF50B661F771F881F991F1A9469F733
:1036200060957095809590959B01AC01BD01CF018F
:103630000895052E97FB16F4009406D057FD0CD084
:10364000D6DF07FC09D07EF4909580957095619542
:103650007F4F8F4F9F4F08955095409530952195FE
:103660003F4F4F4F5F4F089515D0A59F900DB49FCA
:10367000900DA49F800D911D11240895B7FFF4CFE4
:10368000F3DF821B930B0895EE0FFF1F0590F4915B
:10369000E02D0994A29FB001B39FC001A39F01D068
:1036A000B29F700D811D1124911D089511E0C0E499
:1036B000D1E003C0FE01EADF2296C234D107D1F780
:0436C000F894FFCFAC
:1036C4000100000000003F007F00BF00FF000A006F
:1036D400F401E803B80B102700003F007F00BF008F
:1036E400FF000A00F401E803B80B10272A000400C5
:1036F40003000200010002000300040006000800A9
:10370400100018002000300040008000000100007C
:103714000000D60AD30AD70AD90ADA0ADB0ADC0A75
:10372400DE0ADF0AE00AC90AE60AE10AE30AE40A51
:10373400E50A050103040002030F0701050D090B47
:1037440000000000D01357157213A1138513C5137D
:00000001FF
